:020000040800F2
:10000000000002201568000819590008215900084D
:10001000295900083159000839590008000000002A
:10002000000000000000000000000000415900082E
:100030004F590008000000005D5900086B59000886
:10004000656800086568000865680008656800085C
:10005000656800086568000865680008656800084C
:10006000656800086568000865680008656800083C
:10007000656800086568000865680008656800082C
:100080006568000865680008795900086568000817
:10009000656800086568000865680008656800080C
:1000A0008D590008A1590008B5590008C959000820
:1000B00065680008DD590008F15900086568000806
:1000C00065680008656800086568000865680008DC
:1000D00065680008055A000865680008656800083A
:1000E000656800086568000865680008195A000816
:1000F00065680008656800086568000865680008AC
:10010000656800086568000865680008656800089B
:10011000656800086568000865680008656800088B
:10012000355A0008656800086568000865680008B9
:100130006568000800000000000000006568000815
:10014000656800086568000865680008656800085B
:10015000656800086568000865680008656800084B
:10016000656800086568000865680008656800083B
:100170006568000865680008000000006568000800
:080180006568000865680008CD
:1001900010B5054C237833B9044B13B10448AFF3C1
:1001A00000800123237010BDA00300200000000088
:1001B000F0F0000808B5034B1BB103490348AFF347
:1001C000008008BD00000000A4030020F0F000083B
:1001D000034613F8012B002AFBD1181A0138704787
:1001E00001F0FF01102A2BDB10F0070F08D010F8E8
:1001F000013B013A8B422DD010F0070F42B3F6D1EC
:10020000F0B441EA012141EA014122F007047FF004
:1002100000070023F0E80256083C85EA010586EA5B
:10022000010685FA47F5A3FA87F586FA47F6A5FA97
:1002300087F68EB9EED1F0BC01F0FF0102F00702A3
:1002400032B110F8013B013A83EA010313B1F8D14E
:100250000020704701387047002D06BF354603382F
:10026000073815F0010F07D1013015F4807F02BF68
:10027000013015F4C03F0130F0BC0138704700BFB9
:1002800081F0004102E000BF83F0004330B54FEA47
:1002900041044FEA430594EA050F08BF90EA020FB4
:1002A0001FBF54EA000C55EA020C7FEA645C7FEA47
:1002B000655C00F0E2804FEA5454D4EB5555B8BF6A
:1002C0006D420CDD2C4480EA020281EA030382EADB
:1002D000000083EA010180EA020281EA0303362D6D
:1002E00088BF30BD11F0004F4FEA01314FF4801C40
:1002F0004CEA113102D0404261EB410113F0004F52
:100300004FEA03334CEA133302D0524263EB430308
:1003100094EA050F00F0A780A4F10104D5F1200EA6
:100320000DDB02FA0EFC22FA05F2801841F1000101
:1003300003FA0EF2801843FA05F359410EE0A5F1D5
:1003400020050EF1200E012A03FA0EFC28BF4CF006
:10035000020C43FA05F3C01851EBE37101F00045BC
:1003600007D54FF0000EDCF1000C7EEB00006EEBC9
:100370000101B1F5801F1BD3B1F5001F0CD3490853
:100380005FEA30004FEA3C0C04F101044FEA4452AA
:1003900012F5800F80F09A80BCF1004F08BF5FEA31
:1003A000500C50F1000041EB045141EA050130BD11
:1003B0005FEA4C0C404141EB0101013C28BFB1F523
:1003C000801FE9D291F0000F04BF01460020B1FA6E
:1003D00081F308BF2033A3F10B03B3F120020CDA41
:1003E0000C3208DD02F1140CC2F10C0201FA0CF01F
:1003F00021FA02F10CE002F11402D8BFC2F1200C84
:1004000001FA02F120FA0CFCDCBF41EA0C01904039
:10041000E41AA2BF01EB0451294330BD6FEA040482
:100420001F3C1CDA0C340EDC04F11404C4F120026D
:1004300020FA04F001FA02F340EA030021FA04F37F
:1004400045EA030130BDC4F10C04C4F1200220FAD6
:1004500002F001FA04F340EA0300294630BD21FA14
:1004600004F0294630BD94F0000F83F4801306BFDA
:1004700081F480110134013D4EE77FEA645C18BFCE
:100480007FEA655C29D094EA050F08BF90EA020F65
:1004900005D054EA000C04BF1946104630BD91EA5D
:1004A000030F1EBF0021002030BD5FEA545C05D160
:1004B0004000494128BF41F0004130BD14F580049F
:1004C0003CBF01F5801130BD01F0004545F0FE4113
:1004D00041F470014FF0000030BD7FEA645C1ABF48
:1004E000194610467FEA655C1CBF0B46024650EA7F
:1004F000013406BF52EA033591EA030F41F40021AB
:1005000030BD00BF90F0000F04BF0021704730B530
:100510004FF4806404F132044FF000054FF0000105
:1005200050E700BF90F0000F04BF0021704730B5C6
:100530004FF4806404F1320410F0004548BF40429B
:100540004FF000013EE700BF42004FEAE2014FEAF0
:1005500031014FEA02701FBF12F07F4393F07F4FCB
:1005600081F06051704732F07F4208BF704793F0CE
:100570007F4F04BF41F40021704730B54FF46074E1
:1005800001F0004521F000411CE700BF50EA0102E4
:1005900008BF704730B54FF000050AE050EA01028D
:1005A00008BF704730B511F0004502D5404261EBFD
:1005B00041014FF4806404F132045FEA915C3FF43E
:1005C000D8AE4FF003025FEADC0C18BF03325FEADB
:1005D000DC0C18BF033202EBDC02C2F1200300FA8C
:1005E00003FC20FA02F001FA03FE40EA0E0021FAB1
:1005F00002F11444BDE600BF70B54FF0FF0C4CF49F
:10060000E06C1CEA11541DBF1CEA135594EA0C0F50
:1006100095EA0C0F00F0DEF82C4481EA030621EA8B
:100620004C5123EA4C5350EA013518BF52EA0335C6
:1006300041F4801143F4801338D0A0FB02CE4FF078
:100640000005E1FB02E506F00042E0FB03E54FF0A8
:100650000006E1FB03569CF0000F18BF4EF0010EA0
:10066000A4F1FF04B6F5007F64F5407404D25FEA9C
:100670004E0E6D4146EB060642EAC62141EA55514F
:100680004FEAC52040EA5E504FEACE2EB4F1FD0C91
:1006900088BFBCF5E06F1ED8BEF1004F08BF5FEA0F
:1006A000500E50F1000041EB045170BD06F00046C1
:1006B00046EA010140EA020081EA0301B4EB5C046E
:1006C000C2BFD4EB0C0541EA045170BD41F4801166
:1006D0004FF0000E013C00F3AB8014F1360FDEBF8B
:1006E000002001F0004170BDC4F10004203C35DA67
:1006F0000C341BDC04F11404C4F1200500FA05F3EA
:1007000020FA04F001FA05F240EA020001F000428A
:1007100021F0004110EBD37021FA04F642EB060100
:100720005EEA430E08BF20EAD37070BDC4F10C042A
:10073000C4F1200500FA04F320FA05F001FA04F2EE
:1007400040EA020001F0004110EBD37041F10001DA
:100750005EEA430E08BF20EAD37070BDC4F12005E5
:1007600000FA05F24EEA020E20FA04F301FA05F24D
:1007700043EA020321FA04F001F0004121FA04F2F5
:1007800020EA020000EBD3705EEA430E08BF20EAC5
:10079000D37070BD94F0000F0FD101F000464000FF
:1007A00041EB010111F4801F08BF013CF7D041EA81
:1007B000060195F0000F18BF704703F00046520085
:1007C00043EB030313F4801F08BF013DF7D043EA56
:1007D0000603704794EA0C0F0CEA135518BF95EA0C
:1007E0000C0F0CD050EA410618BF52EA4306D1D193
:1007F00081EA030101F000414FF0000070BD50EAB2
:10080000410606BF1046194652EA430619D094EA3B
:100810000C0F02D150EA013613D195EA0C0F05D125
:1008200052EA03361CBF104619460AD181EA030179
:1008300001F0004141F0FE4141F470014FF0000031
:1008400070BD41F0FE4141F4780170BD70B54FF0CC
:10085000FF0C4CF4E06C1CEA11541DBF1CEA13554C
:1008600094EA0C0F95EA0C0F00F0A7F8A4EB05042E
:1008700081EA030E52EA03354FEA013100F0888025
:100880004FEA03334FF0805545EA131343EA1263EE
:100890004FEA022245EA111545EA10654FEA0026A3
:1008A0000EF000419D4208BF964244F1FD0404F55C
:1008B000407402D25B084FEA3202B61A65EB0305B8
:1008C0005B084FEA32024FF480104FF4002CB6EB75
:1008D000020E75EB030E22BFB61A754640EA0C00F5
:1008E0005B084FEA3202B6EB020E75EB030E22BF35
:1008F000B61A754640EA5C005B084FEA3202B6EB76
:10090000020E75EB030E22BFB61A754640EA9C0034
:100910005B084FEA3202B6EB020E75EB030E22BF04
:10092000B61A754640EADC0055EA060E18D04FEAC2
:10093000051545EA16754FEA06164FEAC30343EA62
:1009400052734FEAC2025FEA1C1CC0D111F4801F2F
:100950000BD141EA00014FF000004FF0004CB6E728
:1009600011F4801F04BF01430020B4F1FD0C88BFC7
:10097000BCF5E06F3FF6AFAEB5EB030C04BFB6EBD2
:10098000020C5FEA500C50F1000041EB045170BDC5
:100990000EF0004E4EEA113114EB5C04C2BFD4EBF2
:1009A0000C0541EA045170BD41F480114FF0000E76
:1009B000013C90E645EA060E8DE60CEA135594EAF2
:1009C0000C0F08BF95EA0C0F3FF43BAF94EA0C0FF5
:1009D0000AD150EA01347FF434AF95EA0C0F7FF46A
:1009E00025AF104619462CE795EA0C0F06D152EABE
:1009F00003353FF4FDAE1046194622E750EA4106A2
:100A000018BF52EA43067FF4C5AE50EA41047FF4B2
:100A10000DAF52EA43057FF4EBAE12E74FF0FF3C17
:100A200006E000BF4FF0010C02E000BF4FF0010CE8
:100A30004DF804CD4FEA410C7FEA6C5C4FEA430C61
:100A400018BF7FEA6C5C1BD001B050EA410C0CBFB0
:100A500052EA430C91EA030F02BF90EA020F002012
:100A6000704710F1000F91EA030F58BF994208BF79
:100A700090422CBFD8176FEAE37040F00100704736
:100A80004FEA410C7FEA6C5C02D150EA013C07D18D
:100A90004FEA430C7FEA6C5CD6D152EA033CD3D0D8
:100AA0005DF8040B704700BF8446104662468C46D2
:100AB0001946634600E000BF01B5FFF7B7FF002805
:100AC00048BF10F1000F01BD4DF808EDFFF7F4FF2E
:100AD0000CBF012000205DF808FB00BF4DF808EDB9
:100AE000FFF7EAFF34BF012000205DF808FB00BFDC
:100AF0004DF808EDFFF7E0FF94BF012000205DF8FE
:100B000008FB00BF4DF808EDFFF7CEFF94BF0120B2
:100B100000205DF808FB00BF4DF808EDFFF7C4FFAB
:100B200034BF012000205DF808FB00BF4FEA4102FE
:100B300012F5001215D211D56FF47873B3EB62522F
:100B400012D94FEAC12343F0004343EA505311F056
:100B5000004F23FA02F018BF404270474FF00000E8
:100B6000704750EA013005D111F0004008BF6FF026
:100B7000004070474FF00000704700BF4A0011D29C
:100B800012F5001211D20DD56FF47873B3EB6252E7
:100B90000ED44FEAC12343F0004343EA505323FAF3
:100BA00002F070474FF00000704750EA013002D168
:100BB0004FF0FF3070474FF0000070474FEA41029E
:100BC000B2F1E04324BFB3F5001CDCF1FE5C0DD9AB
:100BD00001F0004C4FEAC0024CEA5070B2F1004FF5
:100BE00040EB830008BF20F00100704711F0804FF8
:100BF00021D113F13872BCBF01F00040704741F4BD
:100C000080114FEA5252C2F11802C2F1200C10FAC0
:100C10000CF320FA02F018BF40F001004FEAC123A4
:100C20004FEAD32303FA0CFC40EA0C0023FA02F348
:100C30004FEA4303CCE77FEA625307D150EA01331E
:100C40001EBF4FF0FE4040F44000704701F00040EE
:100C500040F0FE4040F40000704700BF53B94AB96D
:100C6000002908BF00281CBF4FF0FF314FF0FF30B4
:100C700000F0BEB9ADF1080C6DE904CE00F03CF80F
:100C8000DDF804E0DDE9022304B0704738B5002246
:100C9000002304460D46FFF721FF28B920462946C8
:100CA000BDE8384000F00AB8204605F1004100F0E8
:100CB00005F8404261EB410138BD00BFD0B50C4B97
:100CC000002206460F46FFF797FCFFF757FF044642
:100CD000FFF718FC074B0022FFF78EFC02460B467D
:100CE00030463946FFF7D0FAFFF748FF2146D0BD1E
:100CF0000000F03D0000F0412DE9F047089D8E46D0
:100D000004468846002B4AD18A42174662D9B2FA75
:100D100082F64EB1C6F1200301FA06F820FA03F379
:100D2000B74043EA0808B4404FEA174E1FFA87FC61
:100D3000B8FBFEF1230C0EFB118843EA084301FBCC
:100D40000CF29A4209D9FB1801F1FF3080F0EA80D9
:100D50009A4240F2E78002393B449A1AA3B2B2FBAE
:100D6000FEF00EFB102243EA024300FB0CFC9C4504
:100D700009D9FB1800F1FF3280F0D6809C4540F283
:100D8000D3803B44023840EA0140A3EB0C0300212E
:100D90001DB1F3400022C5E90032BDE8F0878B4267
:100DA00005D90DB1C5E9000100210846F5E7B3FA00
:100DB00083F1002946D1734502D3824200F20581B6
:100DC000841A6EEB030201209046002DE5D0C5E9A0
:100DD0000048E2E7002A00F09080B2FA82F6002E86
:100DE00040F0A4808A1A030C4FEA174E80B2BCB2BE
:100DF0000121B2FBFEFC0EFB1C2243EA024304FB72
:100E00000CF29A4207D9FB180CF1FF3802D29A4231
:100E100000F2E080C4469B1AB3FBFEF20EFB1233D5
:100E200040EA034302FB04F49C4207D9FB1802F199
:100E3000FF3002D29C4200F2CA8002461B1B42EAEB
:100E40000C40A5E7C1F120068B4022FA06F71F43AC
:100E50000EFA01F420FA06F32EFA06FE4FEA1749BD
:100E6000234300FA01F81FFA87FCBEFBF9F01C0CC3
:100E700009FB10EE44EA0E4400FB0CFEA64502FA04
:100E800001F209D93C1900F1FF3A80F09C80A64597
:100E900040F2998002383C44A4EB0E041FFA83FE12
:100EA000B4FBF9F309FB13444EEA044403FB0CFCC6
:100EB000A44508D93C1903F1FF3E80F08280A44587
:100EC0007FD9023B3C4443EA0040A4EB0C04A0FB66
:100ED00002EC64457346E14662D35FD05DB1B8EB86
:100EE000030264EB090404FA06F622FA01F31E4336
:100EF000CC40C5E9006400214FE7B1FBF2FC010CD6
:100F000041EA0E4180B240EA01423B4638463C4647
:100F1000B846BE462026B1FBF7F1A2EB080241EA33
:100F20000C4166E7014618E710462CE7C6F120029F
:100F30002EFA02F3B740B14020FA02F24FEA174E00
:100F40000A43B3FBFEF8BCB20EFB1833110C41EAA6
:100F5000034108FB04F9B04089454FEA104380B2D1
:100F60003ED9791808F1FF3C01D289451FD8A1EB81
:100F70000901B1FBFEF909FB04F80EFB191192B24D
:100F800042EA0142424529D2BA1809F1FF31C4D2DE
:100F90004245C2D2A9F102013A44BEE7F0459DD2D2
:100FA000BEEB02036CEB070C0138E14696E7A7EBBA
:100FB00009094944A8F1020CB1FBFEF909FB04F848
:100FC000DBE773467FE7504666E70846FDE63B44AD
:100FD000023A33E7ACF1020C3B441CE749469CE77C
:100FE000A1EB0901C446B1FBFEF909FB04F8C4E713
:100FF000704700BF80B584B000AF78600123FB73F9
:101000007B681B795A004FF080431A640C21054815
:1010100008F06AFA0346FB73012318461037BD46F1
:1010200080BD00BF340B002080B582B000AF786077
:101030007B681B79642B01D900230AE07B681B794C
:101040005A004FF08043DA630821044808F04CFA54
:10105000012318460837BD4680BD00BF340B002071
:1010600080B584B000AF786039607B6818460AF0BC
:10107000E8FE0346FB60324B1B681A46FB6893424E
:1010800005D8304B1B681A46FB68934201D20023F7
:1010900051E0FA683B681A607B68073318460AF02B
:1010A000D0FE0346FB60284B93F900301A46FB68DC
:1010B000934206D8254B93F900301A46FB689342B9
:1010C00001D2002337E0FB68DAB23B681A717B6813
:1010D0000C3318460AF0B5FE0346FB601C4B1B6838
:1010E0001A46FB68934205D81A4B1B681A46FB68E0
:1010F000934201D200231EE0FA683B689A607B6845
:10110000133318460AF09DFE0346FB60124B93F919
:1011100000301A46FB68934206D8104B93F9003012
:101120001A46FB68934201D2002304E0FB68DAB25E
:101130003B681A73012318461037BD4680BD00BFB7
:10114000000000200400002008000020BC03002054
:101150000C0000201000002014000020BD0300201F
:10116000B0B582B000AF786039607B681B78242B03
:1011700001D00023E6E07B685C1C744B1D68734B58
:101180001B681846FFF724F803461A4629462046EE
:101190000BF0BFFE0346002B04D13B6800221A70FF
:1011A0000123CFE07B685C1C684B5D68674B5B6824
:1011B0001846FFF70DF803461A46294620460BF05D
:1011C000A8FE0346002B04D13B6801221A700123BC
:1011D000B8E07B685C1C5D4B9D685C4B9B68184667
:1011E000FEF7F6FF03461A46294620460BF091FE0D
:1011F0000346002B04D13B6802221A700123A1E0B0
:101200007B685C1C514BDD68504BDB681846FEF771
:10121000DFFF03461A46294620460BF07AFE0346B6
:10122000002B04D13B6803221A7001238AE07B68FB
:101230005C1C464B1D69454B1B691846FEF7C8FFF1
:1012400003461A46294620460BF063FE0346002B50
:1012500004D13B6804221A70012373E07B685C1C94
:101260003A4B5D69394B5B691846FEF7B1FF03469F
:101270001A46294620460BF04CFE0346002B04D1AB
:101280003B6805221A7001235CE07B685C1C2F4BD5
:101290009D692E4B9B691846FEF79AFF03461A4636
:1012A000294620460BF035FE0346002B04D13B684F
:1012B00006221A70012345E07B685C1C234BDD6924
:1012C000224BDB691846FEF783FF03461A46294680
:1012D00020460BF01EFE0346002B04D13B6807227C
:1012E0001A7001232EE07B685C1C184B1D6A174B9B
:1012F0001B6A1846FEF76CFF03461A46294620462D
:101300000BF007FE0346002B04D13B6808221A703D
:10131000012317E07B685C1C0C4B5D6A0B4B5B6A1E
:101320001846FEF755FF03461A46294620460BF09D
:10133000F0FD0346002B04D13B6809221A700123FB
:1013400000E0002318460837BD46B0BD1800002055
:1013500080B588B000AFF8600B467A607B810023CF
:10136000FB610023BB610023BB82FB68FB610023A0
:10137000FB750FE02C21F8690BF0BEFDF861FB69ED
:10138000002B01D100232CE0FB690133FB61FB7DC5
:101390000133FB75FB7D9BB27A899A42EAD82C21F6
:1013A000F8690BF0A9FDB861BB69002B09D12321B5
:1013B000F8690BF0A1FDB861BB69002B01D10023D6
:1013C0000FE0BA69FB69D31ABB82BB8A002B07D036
:1013D000BB8A1A46F96978680BF0ADFD012300E07D
:1013E000002318462037BD4680BD80B588B000AFC9
:1013F0007860396007F1080300221A605A609A6029
:10140000DA601A610023FB6107F10803142200214E
:1014100018460BF069FD07F108031A4601217868A8
:10142000FFF796FF0346FB61FB69012B01D0002308
:1014300046E13B6807F10801022218460BF07BFDEC
:1014400007F108031422002118460BF04DFD07F1A7
:1014500008031A4602217868FFF77AFF0346FB610A
:10146000FB69012B01D000232AE13B68023307F11D
:101470000801022218460BF05EFD07F10803142252
:10148000002118460BF030FD07F108031A4603212E
:101490007868FFF75DFF0346FB61FB69012B01D014
:1014A00000230DE13B68043307F1080102221846CE
:1014B0000BF041FD07F108031422002118460BF040
:1014C00013FD07F108031A4604217868FFF740FF6F
:1014D0000346FB61FB69012B01D00023F0E03B6870
:1014E000063307F10801022218460BF024FD07F12C
:1014F00008031422002118460BF0F6FC07F108033C
:101500001A4605217868FFF723FF0346FB61FB6954
:10151000012B01D00023D3E03B68083307F1080119
:10152000022218460BF007FD07F1080314220021E0
:1015300018460BF0D9FC07F108031A460621786813
:10154000FFF706FF0346FB61FB69012B01D0002377
:10155000B6E03B680A3307F108010A2218460BF08F
:10156000EAFC07F108031422002118460BF0BCFC2A
:1015700007F108031A4607217868FFF7E9FE0346DA
:10158000FB61FB69012B01D0002399E03B68143318
:1015900007F108010A2218460BF0CDFC07F10803F9
:1015A0001422002118460BF09FFC07F108031A468D
:1015B00008217868FFF7CCFE0346FB61FB69012B2D
:1015C00001D000237CE03B681E3307F108010222B2
:1015D00018460BF0B0FC07F108031422002118464E
:1015E0000BF082FC07F108031A4609217868FFF71F
:1015F000AFFE0346FB61FB69012B01D000235FE0D6
:101600003B68203307F108010A2218460BF093FCCF
:1016100007F108031422002118460BF065FC07F1BE
:1016200008031A460A217868FFF792FE0346FB6119
:10163000FB69012B01D0002342E03B682A3307F10C
:1016400008010A2218460BF076FC07F10803142261
:10165000002118460BF048FC07F108031A460B213D
:101660007868FFF775FE0346FB61FB69012B01D02B
:10167000002325E03B68343307F108010A221846AD
:101680000BF059FC07F108031422002118460BF057
:101690002BFC07F108031A460C217868FFF758FE67
:1016A0000346FB61FB69012B01D0002308E03B6886
:1016B0003E3307F108010A2218460BF03CFC0123D7
:1016C00018462037BD4680BD80B588B000AF786031
:1016D000396007F1080300221A605A609A60DA60E4
:1016E0001A610023FB6107F1080314220021184648
:1016F0000BF0FAFB07F108031A4601217868FFF79F
:1017000027FE0346FB61FB69012B01D000235EE04D
:101710003B6807F10801072218460BF00CFC07F1A3
:1017200008031422002118460BF0DEFB07F1080322
:101730001A4602217868FFF70BFE0346FB61FB693E
:10174000012B01D0002342E03B68073307F1080179
:10175000052218460BF0EFFB07F1080314220021C5
:1017600018460BF0C1FB07F108031A4603217868FD
:10177000FFF7EEFD0346FB61FB69012B01D000235F
:1017800025E03B680C3307F10801072218460BF0EF
:10179000D2FB07F108031422002118460BF0A4FB2A
:1017A00007F108031A4604217868FFF7D1FD0346C4
:1017B000FB61FB69012B01D0002308E03B68133378
:1017C00007F10801052218460BF0B5FB0123184666
:1017D0002037BD4680BD80B588B000AF78603960E5
:1017E00007F1080300221A605A609A60DA601A61F1
:1017F0000023FB6107F108031422002118460BF0B7
:1018000073FB07F108031A4601217868FFF7A0FD72
:101810000346FB61FB69012B01D000235EE03B68BE
:1018200007F10801072218460BF085FB07F10803B2
:101830001422002118460BF057FB07F108031A4643
:1018400002217868FFF784FD0346FB61FB69012BE9
:1018500001D0002342E03B68073307F1080105226D
:1018600018460BF068FB07F1080314220021184604
:101870000BF03AFB07F108031A4603217868FFF7DB
:1018800067FD0346FB61FB69012B01D0002325E0C6
:101890003B680C3307F10801072218460BF04BFB9D
:1018A00007F108031422002118460BF01DFB07F175
:1018B00008031A4604217868FFF74AFD0346FB61D6
:1018C000FB69012B01D0002308E03B68133307F1CB
:1018D0000801052218460BF02EFB0123184620377D
:1018E000BD4680BD80B588B000AF7860396007F133
:1018F000080300221A605A609A60DA601A610023B5
:10190000FB6107F108031422002118460BF0ECFAE2
:1019100007F108031A4601217868FFF719FD03460D
:10192000FB61FB69012B01D0002398E03B6807F1C4
:101930000801022218460BF0FEFA07F108031422F0
:10194000002118460BF0D0FA07F108031A460221CD
:101950007868FFF7FDFC0346FB61FB69012B01D0B2
:1019600000237CE03B68023307F108010722184698
:101970000BF0E1FA07F108031422002118460BF0DE
:10198000B3FA07F108031A4603217868FFF7E0FC71
:101990000346FB61FB69012B01D000235FE03B683C
:1019A000093307F10801052218460BF0C4FA07F1C4
:1019B00008031422002118460BF096FA07F10803D9
:1019C0001A4604217868FFF7C3FC0346FB61FB69F4
:1019D000012B01D0002342E03B680E3307F10801E0
:1019E000022218460BF0A7FA07F10803142200217F
:1019F00018460BF079FA07F108031A4605217868B2
:101A0000FFF7A6FC0346FB61FB69012B01D0002315
:101A100025E03B68103307F10801072218460BF058
:101A20008AFA07F108031422002118460BF05CFA29
:101A300007F108031A4606217868FFF789FC034678
:101A4000FB61FB69012B01D0002308E03B681733E1
:101A500007F10801052218460BF06DFA012318461C
:101A60002037BD4680BD000080B584B000AF7860EF
:101A700039607B6818460AF0E4F9F860494B1B6846
:101A8000FA689A4204DC484B1B68FA689A4201DA09
:101A9000002382E0FB68DAB23B681A707B6802338D
:101AA00018460AF0CEF9F860404B1B68FA689A4273
:101AB00004DC3F4B1B68FA689A4201DA00236CE0B1
:101AC0003B68FA685A607B68093318460AF0B9F92E
:101AD000F860384B93F900301A46FB68934206DCF5
:101AE000354B93F900301A46FB68934201DA002324
:101AF00053E03B6893F908203B685A72FB685AB27E
:101B00003B681A727B680E3318460AF09AF9F8603F
:101B10002A4B1B68FA689A4204DC294B1B68FA6856
:101B20009A4201DA002338E0FB68DAB23B689A7225
:101B30007B68103318460AF084F9F860214B1B6863
:101B4000FA689A4204DC204B1B68FA689A4201DA70
:101B5000002322E03B68FA68DA607B681733184696
:101B60000AF06FF9F860194B93F900301A46FB68D8
:101B7000934206DC164B93F900301A46FB689342F9
:101B800001DA002309E03B6893F910203B685A749E
:101B9000FB685AB23B681A74012318461037BD46D9
:101BA00080BD00BF40000020C00300204400002092
:101BB000480000204C0000204D0000205000002074
:101BC000C403002054000020580000205C000020C6
:101BD0005D00002080B500AF00224021064806F0DD
:101BE000ABFA012004F0B2FE01224021024806F0C7
:101BF000A3FA0023184680BD0010024080B586B0CD
:101C000002AF78607B68002B01D1032389E0474B4A
:101C10001B68002B01D0022383E0444A7B681360D9
:101C2000424B1868414B1B68063300930223002285
:101C3000002100F0ABFB0346FB73FB7B002B04D0C1
:101C4000FB7B072B01D0FB7B6BE0384B1868374BD5
:101C50001B680E33009302230122002100F096FB43
:101C60000346FB73FB7B002B04D0FB7B072B01D0CF
:101C7000FB7B56E02D4B18682C4B1B6816330093EA
:101C800002230222002100F081FB0346FB73FB7B51
:101C9000002B04D0FB7B072B01D0FB7B41E0234BC7
:101CA0001868224B1B681E33009302230022012177
:101CB00000F06CFB0346FB73FB7B002B04D0FB7B2B
:101CC000072B01D0FB7B2CE0184B1868174B1B68C7
:101CD0002633009302230122012100F057FB034623
:101CE000FB73FB7B002B04D0FB7B072B01D0FB7B22
:101CF00017E00E4B18680D4B1B682E330093022320
:101D00000222012100F042FB0346FB73FB7B002B08
:101D100004D0FB7B072B01D0FB7B02E0FFF75AFFCF
:101D2000002318461037BD4680BD00BFC803002001
:101D300080B582B000AF03460A46FB711346BB7103
:101D4000054B1868BB1DF979022200F044FB0346DD
:101D500018460837BD4680BDC803002080B582B054
:101D600000AF0346FB71FB7919460020FFF7E0FF47
:101D7000034618460837BD4680BD80B582B000AF27
:101D80000346FB71FB7919460120FFF7D1FF03469B
:101D900018460837BD4680BD80B584B002AF00212B
:101DA000002000F035FC0021002000F0FBFC0A20A0
:101DB00004F0CCFD0121002000F07EFC1E4B1868D1
:101DC0000023009301230122002100F061FA034661
:101DD000FB71FB79002B04D0FB79072B01D0FB7939
:101DE00026E0FFF7F7FE0121002000F011FC0121A1
:101DF000002000F0D7FC0A2004F0A8FDFFF7EAFE5F
:101E00000021002000F058FC0B4B186800230093C1
:101E100000230022002100F03BFA0346FB71FB790E
:101E2000002B04D0FB79072B01D0FB7900E00023C5
:101E300018460837BD4680BDC803002080B584B071
:101E400002AF0021012000F0E3FB0021012000F09F
:101E5000A9FC0A2004F07AFD0121012000F02CFCED
:101E60001E4B18680023009301230122012100F07A
:101E70000FFA0346FB71FB79002B04D0FB79072B8B
:101E800001D0FB7926E0FFF7A5FE0121012000F03B
:101E9000BFFB0121012000F085FC0A2004F056FD63
:101EA000FFF798FE0021012000F006FC0B4B18689C
:101EB0000023009300230022012100F0E9F90346EA
:101EC000FB71FB79002B04D0FB79072B01D0FB7948
:101ED00000E0002318460837BD4680BDC803002037
:101EE00080B584B002AF0121002000F091FB0121F8
:101EF000002000F057FC0A2004F028FD00210020FB
:101F000000F0DAFB1E4B1868002300930123002227
:101F1000002100F0BDF90346FB71FB79002B04D0D2
:101F2000FB79072B01D0FB7926E0FFF753FE002158
:101F3000002000F06DFB0021002000F033FC0A209F
:101F400004F004FDFFF746FE0121002000F0B4FB81
:101F50000B4B18680023009300230122002100F09E
:101F600097F90346FB71FB79002B04D0FB79072B13
:101F700001D0FB7900E0002318460837BD4680BD3C
:101F8000C803002080B584B002AF0121012000F019
:101F90003FFB0121012000F005FC0A2004F0D6FCE3
:101FA0000021012000F088FB1E4B186800230093DD
:101FB00001230022012100F06BF90346FB71FB793C
:101FC000002B04D0FB79072B01D0FB7926E0FFF72B
:101FD00001FE0021012000F01BFB0021012000F088
:101FE000E1FB0A2004F0B2FCFFF7F4FD012101201F
:101FF00000F062FB0B4B18680023009300230122C2
:10200000012100F045F90346FB71FB79002B04D058
:10201000FB79072B01D0FB7900E000231846083735
:10202000BD4680BDC803002080B485B000AF034624
:10203000FB80FB8807EE903AF8EEE77A9FED0E7A88
:1020400027EE877ADFED0D6AC7EE267AC7ED037AB1
:10205000D7ED037A9FED0A7A77EEC77A9FED097A7A
:10206000C7EE876AF0EE667AB0EE670A1437BD46AF
:102070005DF8047B704700BF3333534000F07F4569
:102080003333D33ECCCC4C3E80B487B000AFF86045
:10209000B96087ED010A144B1B6803F03F037B61B5
:1020A000BB6893ED007A7B699B00FA681344D3ED1B
:1020B000007A77EE677ABB68C3ED007A7B699B0094
:1020C000FA6813447A681A60BB6893ED007AD7ED1A
:1020D000017A77EE277ABB68C3ED007A00BF1C3720
:1020E000BD465DF8047B70471406002080B500AF44
:1020F00020220349034804F0A1FD00BF80BD00BFBA
:10210000D40300202406002080B483B000AF0B4B22
:10211000D3ED007AFDEEE77AF8EEE77A9FED087AE4
:1021200067EE877AFDEEE77A17EE903A7B607B6880
:1021300018460C37BD465DF8047B7047CC03002081
:102140000000C84280B483B000AF0B4BD3ED007ADF
:10215000FDEEE77AF8EEE77A9FED087A67EE877A88
:10216000FDEEE77A17EE903A7B607B6818460C37F5
:10217000BD465DF8047B7047D00300200000C842D4
:1021800080B586B000AF7860396000237B612AE0BB
:102190007B695B007A6813441B881846FFF744FF8D
:1021A00087ED040A7B6901335B007A6813441B885E
:1021B0001846FFF739FF87ED030A97ED040A18491F
:1021C0001848FFF761FF97ED030A17491748FFF713
:1021D0005BFF174B1B68013303F03F03144A136086
:1021E0007B6902337B617A693B689A42D0D30C4B9E
:1021F00093ED007ADFED0F6AC7EE267A0E4BC3ED42
:10220000007A094B93ED007ADFED0A6AC7EE267A71
:102210000A4BC3ED007A00BF1837BD4680BD00BF32
:1022200018060020140400201C06002014050020BD
:102230001406002000008042CC030020D0030020C0
:1022400080B582B000AF78607B68054A934203D1C5
:1022500010210448FFF794FF00BF0837BD4680BD3A
:1022600024060020D403002080B582B000AF78603F
:102270007B68054A934203D110210448FFF780FF91
:1022800000BF0837BD4680BD24060020F4030020AF
:1022900080B588B000AF7860084611461A460346FC
:1022A000FB700B46BB7013467B707B68002B01D123
:1022B000032367E0FB78012B01D9092362E0BB7897
:1022C000022B01D906235DE07B78022B01D90C2378
:1022D00058E07B68BB617B681833FB61FB789B002F
:1022E00020333B4453F8083CFB60FB789B002033D1
:1022F0003B4453F8083C08333B61FB789B00203398
:102300003B4453F8083C10337B617B78022B1CD094
:10231000022B36DC002B02D0012B0BD031E0BB7836
:102320009B0020333B4453F8143C184600F0A7F8B8
:10233000034627E0BB789B0020333B4453F8143C12
:10234000184600F0CAF803461CE0BB789B00203317
:102350003B4453F8143CBA6A12789A71BB789B00DC
:1023600020333B4453F8142CBB789B0020333B4470
:1023700053F8143C9B791946104600F0DDF80346EB
:1023800000E0012318462037BD4680BD80B586B0E9
:1023900002AF7860084611461A460346FB700B46AA
:1023A000BB7013467B707878BA78F978BB69009374
:1023B00003467868FFF76CFF0346FB73FB7B002B3B
:1023C00004D0FB7B072B01D0FB7B00E000231846E9
:1023D0001037BD4680BD80B588B002AFF8607B6025
:1023E0000B46FB721346BB720023FB7515E0B87AEF
:1023F000FA7DF97A7B6800930346F868FFF748FF97
:102400000346BB75BB7D002B04D0BB7D072B01D0E1
:10241000BB7D06E0FB7D0133FB75FB7D022BE6D91E
:10242000002318461837BD4680BD80B483B000AF86
:1024300078607B68DB7983F00103DBB2002B01D08D
:10244000072316E07B681B68002B01D1042310E0F2
:102450007B689B79642B01D908230AE07B681B7990
:102460003B2B03D87B685B793B2B01D9052300E02C
:10247000002318460C37BD465DF8047B704780B5D5
:1024800082B000AF78607868FFF7CFFF0346002B7B
:1024900004D07868FFF7C9FF03461AE07B681A6822
:1024A0007B681B791946104607F01EF80346002B7F
:1024B00001D001230DE07B681A687B685B791946BF
:1024C000104608F045FA0346002B01D0012300E036
:1024D000002318460837BD4680BD80B582B000AFE6
:1024E00078607868FFF7A1FF0346002B04D0786876
:1024F000FFF79BFF03461AE07B681A687B681B792D
:102500001946104607F0B8F80346002B01D0012306
:102510000DE07B681A687B685B791946104608F005
:10252000D1FA0346002B01D0012300E00023184616
:102530000837BD4680BD000080B584B000AF78602C
:102540000B46FB707868FFF770FF0346002B04D042
:102550007868FFF76AFF034653E07B681B681B68D7
:10256000DB6A0133FA7802FB03F3284AA2FB032358
:102570005B09FB607B681B79002B05D17B681B68BE
:102580001B68FA685A6318E07B681B79042B05D135
:102590007B681B681A68FB6893630EE07B681B7995
:1025A000082B05D17B681B681A68FB68D36304E0BD
:1025B0007B681B681A68FB6813647B685B79002B77
:1025C00005D17B681B681B68FA685A6318E07B6852
:1025D0005B79042B05D17B681B681A68FB689363E1
:1025E0000EE07B685B79082B05D17B681B681A6855
:1025F000FB68D36304E07B681B681A68FB6813649C
:10260000002318461037BD4680BD00BF1F85EB5123
:1026100090B583B000AF03460A46FB711346BB7109
:10262000F979BB7923481A4692001A4493001A4656
:102630000B461B015B1A9B001344034404331868C8
:10264000F979BB791B4C1A4692001A4493001A463A
:102650000B461B015B1A9B001344234408331B8861
:10266000194600F0F5F8F979BB7912481A4692003C
:102670001A4493001A460B461B015B1A9B00134435
:1026800003440C331868F979BB790A4C1A46920056
:102690001A4493001A460B461B015B1A9B00134415
:1026A000234410331B88194600F0D2F800BF0C37C2
:1026B000BD4690BD60000020B0B582B000AF0346BB
:1026C0000A46FB711346BB71F979BB7934481A4647
:1026D00092001A4493001A460B461B015B1A9B009A
:1026E0001344034404331868F979BB792C4C1A4617
:1026F00092001A4493001A460B461B015B1A9B007A
:102700001344234408331B881D46F979BB79244CB4
:102710001A4692001A4493001A460B461B015B1A94
:102720009B00134423441B681A46294600F0ABF86B
:10273000F979BB791A481A4692001A4493001A464E
:102740000B461B015B1A9B00134403440C331868AF
:10275000F979BB79124C1A4692001A4493001A4632
:102760000B461B015B1A9B001344234410331B8848
:102770001D46F979BB790A4C1A4692001A44930017
:102780001A460B461B015B1A9B00134423441B682B
:102790001A46294600F077F800BF0837BD46B0BD9D
:1027A0006000002090B583B000AF03460A46FB717D
:1027B0001346BB71F979BB7924481A4692001A4432
:1027C00093001A460B461B015B1A9B0013440344FB
:1027D00004331868F979BB791C4C1A4692001A44E4
:1027E00093001A460B461B015B1A9B0013442344BB
:1027F00008331B880022194605F09EFCF979BB7945
:1028000012481A4692001A4493001A460B461B01BE
:102810005B1A9B00134403440C331868F979BB79A5
:102820000A4C1A4692001A4493001A460B461B01A2
:102830005B1A9B001344234410331B880122194662
:1028400005F07AFC00BF0C37BD4690BD600000204B
:1028500080B588B000AF7860396007F10C030022C2
:102860001A605A609A60DA601A613B68FB60012363
:102870003B6107F10C031946786805F0C1FA00BF07
:102880002037BD4680BD80B58AB000AFF860B96022
:102890007A60BB687B610223BB610023FB6100237C
:1028A0003B627B687B6207F114031946F86805F008
:1028B000A7FA00BF2837BD4680BD000080B582B0B2
:1028C00000AF78607B681B79642B01D9002309E095
:1028D0007B681B795A00054BDA630821044806F02F
:1028E00003FE012318460837BD4680BD000800409E
:1028F000C40B002080B582B000AF78607B681B7984
:10290000642B01D9002309E07B681B795A00054B31
:102910009A630421044806F0E7FD012318460837AE
:10292000BD4680BD00080040C40B002080B584B0C7
:1029300000AF786039607B68184609F082FA034678
:10294000FB60324B1B681A46FB68934205D8304B3C
:102950001B681A46FB68934201D2002351E0FA68D3
:102960003B681A607B680733184609F06AFA034629
:10297000FB60284B93F900301A46FB68934206D857
:10298000254B93F900301A46FB68934201D200238D
:1029900037E0FB68DAB23B681A717B680C33184683
:1029A00009F04FFA0346FB601C4B1B681A46FB6894
:1029B000934205D81A4B1B681A46FB68934201D212
:1029C00000231EE0FA683B689A607B681333184660
:1029D00009F037FA0346FB60124B93F900301A46B0
:1029E000FB68934206D8104B93F900301A46FB68F7
:1029F000934201D2002304E0FB68DAB23B681A7309
:102A0000012318461037BD4680BD00BFD800002006
:102A1000DC000020E000002020060020E400002070
:102A2000E8000020EC0000202106002080B582B0E4
:102A300000AF786039607B681B687A6852681A60FA
:102A40007B681B687A6892685A607B681B687A6842
:102A5000D2689A607B681B687A681269DA607B6862
:102A60001B687A6852691A617B681B687A68926988
:102A70005A617B681B687A68D2699A617B681B68B7
:102A80000022DA617B681B68184608F080F903466B
:102A9000002B01D002F012FF7B6893F82030002B4E
:102AA00006D07B681B6839680122184608F04AFA8C
:102AB00000BF0837BD4680BD80B586B000AFF86066
:102AC000B9607A600023FB75FB6818687B689AB26E
:102AD0006423B96808F0ABF90346002B14BF012347
:102AE0000023FB75FB7D18461837BD4680BD0000EE
:102AF00080B586B004AF0123FB71124B1B781A46D8
:102B0000012393405BB2DB435AB20F4B1B785BB29D
:102B100013405BB2DAB20C4B1A700C4B1B785B00A3
:102B200099B22823029301230193074B00930123B9
:102B30000122074805F078FC0346FB7100BF083707
:102B4000BD4680BD7F0100202D0A00207D010020B0
:102B5000CC06002080B586B004AF0123FB71124B78
:102B60001B781A46012393405BB2DB435AB20F4BEA
:102B70001B785BB213405BB2DAB20C4B1A700C4B91
:102B80001B785B0099B22823029301230193074B22
:102B9000009301230122074805F046FC0346FB7120
:102BA00000BF0837BD4680BD7E0100202D0A0020F1
:102BB0007D010020CC06002080B584B000AF3B46EC
:102BC00000221A605A609A60DA60284B284A1A601C
:102BD000264B4FF440325A60244B00229A60234B1C
:102BE00001221A61214B01221A76204B002283F820
:102BF00020201E4B0022DA621C4B1E4A9A621B4B9D
:102C00000022DA60194B0222DA61184B012283F8A4
:102C10003020164B01225A61144803F0BBFE0346D4
:102C2000002B01D002F04AFE04233B6001237B60AD
:102C30000023BB603B4619460C4804F023F90346C9
:102C4000002B01D002F03AFE0A233B6002237B6096
:102C50003B461946054804F015F90346002B01D000
:102C600002F02CFE00BF1037BD4680BD24060020B8
:102C7000002001400100000F80B58AB000AF7860ED
:102C800007F1140300221A605A609A60DA601A6130
:102C90007B681B68404A934279D100233B613F4BDC
:102CA0005B6C3E4A43F4807353643C4B5B6C03F4AF
:102CB00080733B613B690023FB60384B1B6B374AD9
:102CC00043F004031363354B1B6B03F00403FB60F9
:102CD000FB680023BB60314B1B6B304A43F00103A0
:102CE00013632E4B1B6B03F00103BB60BB68012316
:102CF0007B610323BB610023FB6107F114031946C9
:102D0000274805F07DF810237B610323BB61002376
:102D1000FB6107F114031946224805F071F8224BB4
:102D2000224A1A60204B00225A601F4B00229A60F0
:102D30001D4B0022DA601C4B4FF480621A611A4B63
:102D40004FF400625A61184B4FF400529A61164BCF
:102D50004FF48072DA61144B00221A62124B002287
:102D60005A62114804F04AFC0346002B01D002F0DD
:102D7000A5FD7B680C4A9A630B4A7B68936300222B
:102D80000021122004F003FC122004F01CFC00BF00
:102D90002837BD4680BD00BF0020014000380240FA
:102DA00000080240000002406C060020106402404F
:102DB00080B582B000AF00237B600C4B1B6B0B4ACD
:102DC00043F480031363094B1B6B03F480037B60A4
:102DD0007B6800220021382004F0D9FB382004F061
:102DE000F2FB00BF0837BD4680BD00BF003802407F
:102DF00080B58AB000AF07F1140300221A605A6050
:102E00009A60DA601A6100233B61544B1B6B534A92
:102E100043F010031363514B1B6B03F010033B6132
:102E20003B690023FB604D4B1B6B4C4A43F0040392
:102E300013634A4B1B6B03F00403FB60FB68002326
:102E4000BB60464B1B6B454A43F001031363434B86
:102E50001B6B03F00103BB60BB6800237B603F4B2F
:102E60001B6B3E4A43F0020313633C4B1B6B03F0A6
:102E700002037B607B6800233B60384B1B6B374A47
:102E800043F008031363354B1B6B03F008033B60EF
:102E90003B6800224021324805F04EF9002243F2FF
:102EA0002021304805F048F9002220212E4805F065
:102EB00043F940237B610123BB610023FB610023B5
:102EC0003B6207F114031946254804F099FF4FF4BB
:102ED00040437B610023BB610023FB6107F11403C6
:102EE0001946224804F08CFF20237B610023BB613C
:102EF0000023FB6107F1140319461D4804F080FF0D
:102F00004FF440537B610023BB610023FB6107F159
:102F100014031946124804F073FF43F220237B6127
:102F20000123BB610023FB6100233B6207F1140313
:102F300019460C4804F064FF20237B610123BB6128
:102F40000023FB6100233B6207F114031946064886
:102F500004F056FF00BF2837BD4680BD0038024050
:102F60000010024000040240000C02400008024031
:102F70000000024080B500AF124B134A1A60114B9B
:102F8000124A5A600F4B00229A600E4B0022DA6000
:102F90000C4B4FF480421A610A4B00225A61094BD4
:102FA00000229A61074B0022DA61064B00221A6266
:102FB000044805F0F5F80346002B01D002F07EFC32
:102FC00000BF80BDCC06002000540040A086010058
:102FD00080B58AB000AF786007F1140300221A6050
:102FE0005A609A60DA601A617B681B68194A9342DA
:102FF0002BD100233B61184B1B6B174A43F0020394
:103000001363154B1B6B03F002033B613B69C02349
:103010007B611223BB610023FB6103233B6204231A
:103020007B6207F1140319460C4804F0E9FE002303
:10303000FB60094B1B6C084A43F400131364064BF6
:103040001B6C03F40013FB60FB6800BF2837BD4610
:1030500080BD00BF00540040003802400004024020
:1030600090B5ADF5077D00AF07F50674A4F50374C0
:103070002060084607F50671A1F505710A6007F59D
:103080000672A2F50672136007F50673A3F20D230C
:1030900002461A7007F50673A3F20D231B78012B65
:1030A00015D107F114034B49184609F023FE07F127
:1030B00014031846FDF78CF8024607F1140107F5D2
:1030C0000673A3F503731868FFF7F6FC6EE007F5C7
:1030D0000673A3F20D231B78022B15D107F11403FD
:1030E0003D49184609F006FE07F114031846FDF79E
:1030F0006FF8024607F1140107F50673A3F5037391
:103100001868FFF7D9FC51E007F50673A3F20D2309
:103110001B78002B18D107F114033049184609F029
:10312000E9FD07F114031846FDF752F8024607F1CE
:10313000140107F50673A3F503731868FFF7BCFCC9
:10314000034687F8173231E007F50673A3F20D2323
:103150001B78032B15D107F114032149184609F0F8
:10316000C9FD07F114031846FDF732F8024607F1CE
:10317000140107F50673A3F503731868FFF79CFCA9
:1031800014E007F114031749184609F0B3FD07F1DD
:1031900014031846FDF71CF8024607F1140107F561
:1031A0000673A3F503731868FFF786FC4FF40072EB
:1031B00000210D4809F098FE0C4B0022C3F80422B0
:1031C0000A4B002283F8082200BF07F50777BD46A7
:1031D00090BD00BF74F1000894F10008BCF1000834
:1031E000D4F10008ECF100082A070020280700208D
:1031F00090B5ADF5057D00AF07F50474A4F5017435
:103200002060084607F50471A1F503710A6007F50F
:103210000472A2F50472136007F50473A3F2052388
:1032200002461A7007F50473A3F205231B78012BDD
:1032300015D107F110034949184609F05BFD07F164
:1032400010031846FCF7C4FF024607F1100107F50A
:103250000473A3F501731868FFF72EFC6BE007F504
:103260000473A3F205231B78022B15D107F1100379
:103270003B49184609F03EFD07F110031846FCF7DC
:10328000A7FF024607F1100107F50473A3F50173C8
:103290001868FFF711FC4EE007F50473A3F205234D
:1032A0001B78002B15D107F110032E49184609F0A1
:1032B00021FD07F110031846FCF78AFF024607F1CB
:1032C000100107F50473A3F501731868FFF7F4FB09
:1032D00031E007F50473A3F205231B78032B15D106
:1032E00007F110032049184609F004FD07F1100307
:1032F0001846FCF76DFF024607F1100107F504734D
:10330000A3F501731868FFF7D7FB14E007F110036A
:103310001649184609F0EEFC07F110031846FCF7B1
:1033200057FF024607F1100107F50473A3F5017377
:103330001868FFF7C1FB4FF4007200210C4809F038
:10334000D3FD0C4B0022C3F804220A4B002283F861
:10335000082200BF07F50577BD4690BD00F20008C2
:1033600024F200084CF2000864F20008ECF10008B6
:103370002A0700202807002080B588B000AFF86039
:10338000B9607A600023BB770023FB77BB681B79A9
:103390007B777B681B793B77FB681B79FB76FB6847
:1033A0001B7BBB76FA7E7B7FD31ADBB27B7697F9E9
:1033B0001930002BB8BF5B42DBB23B76BA7E3B7F55
:1033C000D31ADBB2FB7597F91730002BB8BF5B42FD
:1033D000DBB2BB750123FB7775E097F91930002B41
:1033E00017DDFA7F97F918309A422EDCBB681B79FB
:1033F0000133DAB2BB681A71B868FDF7FBFD03460A
:10340000BB77BB7F83F00103DBB2002B1DD0002311
:103410005DE097F91930002B17DAFA7F97F9183029
:103420009A4212DCBB681B79013BDAB2BB681A71A5
:10343000B868FDF7DFFD0346BB77BB7F83F0010370
:10344000DBB2002B01D0002341E097F91730002BAD
:1034500017DDFA7F97F916309A422EDC7B681B79CC
:103460000133DAB27B681A717868FDF7DDFD034637
:10347000BB77BB7F83F00103DBB2002B1DD00023A1
:1034800025E097F91730002B17DAFA7F97F91630F5
:103490009A4212DC7B681B79013BDAB27B681A71B5
:1034A0007868FDF7C1FD0346BB77BB7F83F001035E
:1034B000DBB2002B01D0002309E0052003F046FA1F
:1034C000FB7F0133FB77FB7F642B86D901231846F2
:1034D0002037BD4680BD80B588B000AFF860B960C8
:1034E0007A600023BB77BB681B797B777B681B798D
:1034F0003B77FB681B797B83FB681B7B3B837B8B68
:10350000DAB27B7FD31ADBB2FB7597F91730002B49
:10351000B8BF5B42DBB2BB753B8BDAB23B7FD31AE1
:10352000DBB27B7597F91530002BB8BF5B42DBB27D
:103530003B750123FB7775E097F91730002B17DDFA
:10354000FA7F97F916309A422EDCBB681B7901335B
:10355000DAB2BB681A71B868FFF7B0F90346BB77F7
:10356000BB7F83F00103DBB2002B1DD000235DE0A5
:1035700097F91730002B17DAFA7F97F916309A422D
:1035800012DCBB681B79013BDAB2BB681A71B86800
:10359000FFF794F90346BB77BB7F83F00103DBB2EF
:1035A000002B01D0002341E097F91530002B17DDE7
:1035B000FA7F97F914309A422EDC7B681B7901332D
:1035C000DAB27B681A717868FFF794F90346BB7723
:1035D000BB7F83F00103DBB2002B1DD0002325E06D
:1035E00097F91530002B17DAFA7F97F914309A42C1
:1035F00012DC7B681B79013BDAB27B681A71786850
:10360000FFF778F90346BB77BB7F83F00103DBB29A
:10361000002B01D0002309E0052003F097F9FB7F80
:103620000133FB77FB7F642B86D9012318462037B3
:10363000BD4680BD80B586B004AF0123FB71164B3B
:103640001B78DBB25B0099B228230293012301931C
:10365000124B009301230322114804F0E5FE0346B8
:10366000FB710D4B1B78DBB25B0099B228230293F0
:10367000012301930B4B009301230222084804F01D
:10368000D3FE0346FB71FFF765FAFFF731FA00BF7F
:103690000837BD4680BD00BF7D0100207C010020B1
:1036A000CC0600202C0A002080B483B000AF7860E4
:1036B0007B68914A934240F08A807B681B7F012B94
:1036C00040D18E4B1B78DBB2002B0AD18C4B5B6B4D
:1036D0008A4A5360894B00221A82884B01221A7051
:1036E00030E0864B1B78DBB2012B2BD1844B5B6B1C
:1036F000824A9360814B9A68804B1B8A9BB2194621
:103700000B461B045B1A1A447C4B5B68D31A7B4A3A
:10371000D3607A4BDB684FF47A72B2FBF3F3774AEB
:103720005361764B5B69002B09D0744B5A69134681
:103730001B019B1A9B005B089AB2724BDA806F4B9D
:1037400000221A707B681B7F022B40D16E4B1B78C6
:10375000DBB2002B0AD16A4B9B6B6B4A53606A4BFE
:1037600000221A82684B01221A7030E0664B1B78E7
:10377000DBB2012B2BD1624B9B6B634A9360624B94
:103780009A68614B1B8A9BB219460B461B045B1A55
:103790001A445D4B5B68D31A5B4AD3605A4BDB68B3
:1037A0004FF47A72B2FBF3F3574A5361564B5B699D
:1037B000002B09D0544B5A6913461B019B1A9B00DE
:1037C0005B089AB2514BDA804F4B00221A707B682B
:1037D0004F4A934240F08A807B681B7F012B40D187
:1037E0004C4B1B78DBB2002B0AD14B4B5B6B494A2D
:1037F0005360484B00221A82464B01221A7030E077
:10380000444B1B78DBB2012B2BD1434B5B6B414A02
:103810009360404B9A683F4B1B8A9BB219460B46FC
:103820001B045B1A1A443B4B5B68D31A394AD360BA
:10383000384BDB684FF47A72B2FBF3F3354A5361CD
:10384000344B5B69002B09D0324B5A6913461B017C
:103850009B1A9B005B089AB2304BDA802D4B0022FA
:103860001A707B681B7F082B40D12D4B1B78DBB275
:10387000002B0AD1284B1B6C294A5360284B00228D
:103880001A82274B01221A7030E0254B1B78DBB2DD
:10389000012B2BD1204B1B6C214A9360204B9A6843
:1038A0001F4B1B8A9BB219460B461B045B1A1A441A
:1038B0001B4B5B68D31A1A4AD360194BDB684FF471
:1038C0007A72B2FBF3F3164A5361154B5B69002B16
:1038D00009D0134B5A6913461B019B1A9B005B08C6
:1038E0009AB2104BDA800E4B00221A7000BF0C37D0
:1038F000BD465DF8047B7047540C0020300A002060
:10390000001800404C010020480A00205801002007
:103910007C0B0020780A0020000400406401002095
:10392000600A00207001002080B483B000AF78608E
:103930007B681C4A934215D17B681B7F012B06D103
:10394000194B1B8A9BB201339AB2174B1A827B68C0
:103950001B7F022B06D1154B1B8A9BB201339AB2F7
:10396000124B1A827B68124A934215D17B681B7FE7
:10397000012B06D10F4B1B8A9BB201339AB20D4B20
:103980001A827B681B7F082B06D10B4B1B8A9BB2CC
:1039900001339AB2084B1A8200BF0C37BD465DF85E
:1039A000047B7047540C0020300A0020480A002095
:1039B0007C0B0020780A0020600A002080B582B0CD
:1039C00000AF7860324B1B687A689A4257D1314B0E
:1039D000D3F80432B3F5007F09D34FF4007200210D
:1039E0002D4809F081FA2B4B0022C3F80422294B01
:1039F00093F8083283F00103DBB2002B3FD0254B54
:103A0000D3F80432B3F5007F39D2224B1B78242B34
:103A100019D14FF4007200211F4809F065FA1D4BBF
:103A20000022C3F804221B4BD3F804321A4A134471
:103A3000184A12781A70174BD3F804320133154A1A
:103A4000C2F804321BE0134BD3F80432002B16D01B
:103A5000104BD3F80432104A13440E4A12781A70ED
:103A60000C4BD3F8043201330A4AC2F80432094B32
:103A70001B78232B03D1074B012283F80822012254
:103A80000449786807F05EFA00BF0837BD4680BD7C
:103A9000F0000020280700202A07002080B584B00D
:103AA00000AF786039609A4BFB606FF06203BB60D7
:103AB000974BFB606FF06203BB607B68184608F0B1
:103AC000C0F9B860934B1B68BA689A4204DC924B09
:103AD0001B68BA689A4201DA0023C4E1BB68002B74
:103AE00014BF01230023DAB23B681A70884BFB60D5
:103AF0006FF06203BB607B680233184608F0A1F9DF
:103B0000B860864B1B68BA689A4204DC844B1B6819
:103B1000BA689A4201DA0023A5E1BB68002B14BF02
:103B200001230023DAB23B685A70794BFB606FF0D7
:103B30006203BB607B680433184608F082F9B86002
:103B4000784B1B68BA689A4204DC774B1B68BA68EA
:103B50009A4201DA002386E13B68BA685A606C4BEE
:103B6000FB606FF06203BB607B680633184608F0A9
:103B700068F9B8606D4B1B68BA689A4204DC6C4BFC
:103B80001B68BA689A4201DA00236CE13B68BA68A4
:103B90009A605F4BFB606FF06203BB607B68083329
:103BA000184608F04EF9B860624B1B68BA689A4232
:103BB00004DC614B1B68BA689A4201DA002352E1C7
:103BC0003B68BA68DA60524BFB606FF06203BB601F
:103BD0007B680A33184608F031F953EC102B104675
:103BE0001946FCF7EBFF0346FB60544B1B6807EEDE
:103BF000903AF8EEE77A97ED037AB4EEE77AF1EED1
:103C000010FA0CDC4E4B1B6807EE903AF8EEE77AA0
:103C100097ED037AB4EEE77AF1EE10FA01D50023BE
:103C200021E13B68FA681A61394BFB606FF062036F
:103C3000BB607B681433184608F000F953EC102B76
:103C400010461946FCF7BAFF0346FB603D4BD3ED27
:103C5000007A97ED037AB4EEE77AF1EE10FA09DC18
:103C6000394BD3ED007A97ED037AB4EEE77AF1EEB3
:103C700010FA01D50023F6E03B68FA685A61244B3C
:103C8000FB606FF06203BB607B681E33184608F070
:103C9000D8F8B8602D4B1B68BA689A4204DC2C4BEC
:103CA0001B68BA689A4201DA0023DCE03B68BA6814
:103CB0009A61174BFB606FF06203BB607B68203337
:103CC000184608F0BBF853EC102B10461946FCF7C9
:103CD00075FF0346FB601F4B1B6807EE903AF8EE3A
:103CE000E77A97ED037AB4EEE77AF1EE10FA0CDC9E
:103CF000194B1B6807EE903AF8EEE77A97ED037AD6
:103D0000B4EEE77AF1EE10FA28D50023ABE000BF5D
:103D10000000C6C280010020980A00208401002013
:103D20009C0A002090010020A00A00208C010020A5
:103D30008801002094010020A40A00209C0100209A
:103D400098010020A4010020A0010020A80100206B
:103D5000A80A0020B0010020AC0100203B68FA68EE
:103D6000DA61434BFB606FF06203BB607B682A3310
:103D7000184608F063F853EC102B10461946FCF770
:103D80001DFF0346FB603B4BD3ED007A97ED037AB2
:103D9000B4EEE77AF1EE10FA09DC374BD3ED007A96
:103DA00097ED037AB4EEE77AF1EE10FA01D500232D
:103DB00059E03B68FA681A622D4BFB606FF06203B2
:103DC000BB607B683433184608F038F853EC102B8E
:103DD00010461946FCF7F2FE0346FB60274BD3ED75
:103DE000007A97ED037AB4EEE77AF1EE10FA09DC87
:103DF000234BD3ED007A97ED037AB4EEE77AF1EE38
:103E000010FA01D500232EE03B68FA685A62184B7D
:103E1000FB606FF06203BB607B683E33184608F0BE
:103E20000DF853EC102B10461946FCF7C7FE03465D
:103E3000FB60144BD3ED007A97ED037AB4EEE77A8A
:103E4000F1EE10FA09DC104BD3ED007A97ED037A0E
:103E5000B4EEE77AF1EE10FA01D5002303E03B68F7
:103E6000FA689A62012318461037BD4680BD00BF2C
:103E70000000C6C2B8010020B4010020C00100202B
:103E8000BC010020C8010020C401002080B586B01C
:103E900000AF87ED040B87ED021B87ED002BD7E900
:103EA0000223D7E90401FCF719FE0346002B02D0D8
:103EB000D7E902230DE0D7E90023D7E90401FCF795
:103EC0002BFE0346002B02D0D7E9002301E0D7E9FF
:103ED000042343EC172BB0EE470AF0EE670A1837BD
:103EE000BD4680BDB0B58EB000AF87ED080B87ED45
:103EF000061B87ED042B87ED023BD7E90223D7E9A8
:103F00000401FCF779FB02460B46C7E90A23D7E90F
:103F10000623D7E90801FCF7B7F902460B46C7E9C3
:103F20000C23D7E90A23D7E90C01FCF7F5FD03467A
:103F3000002B03D0D7E90A23C7E90C23BB6A3B60F7
:103F4000FB6A83F000437B60D7E90023D7E90C01CB
:103F5000FCF7C4FD0346002B05D0BC6AFB6A83F066
:103F60000045C7E90C45D7E90C23D7E90601FCF762
:103F70008DF902460B4643EC172BB0EE470AF0EEE4
:103F8000670A3837BD46B0BD80B582B000AF87ED57
:103F9000000B4FF000024FF00003D7E90001FCF7DF
:103FA000B1FD0346002B18D04FF00002194BD7E9A2
:103FB0000001FCF76BF902460B4643EC172BB0EE01
:103FC000470AF0EE670A0BF017F853EC102B104677
:103FD0001946FCF7ABFD034617E04FF000020D4B0E
:103FE000D7E90001FCF750F902460B4643EC172BCA
:103FF000B0EE470AF0EE670A0AF082FF53EC102B8E
:1040000010461946FCF792FD034618460837BD4690
:1040100080BD00BF0000E03F80B58CB000AFF8610C
:1040200087ED040B87ED021B87ED002BFB69002B4E
:1040300002D19FED5D7BB0E04FF000025E4BC7E91F
:104040000823D7E90823C7E90A234FF000025B4B96
:10405000D7E90201FCF71AF902460B46D7E9040139
:10406000FCF750FD0346002B0FD14FF00002534BDD
:10407000D7E90201FCF708F902460B46D7E904012B
:10408000FCF736FD0346002B05D04FF000024C4BE9
:10409000C7E90A2375E04FF000024A4BD7E9020155
:1040A000FCF7F4F802460B46D7E90401FCF72AFDB9
:1040B0000346002B0FD14FF00002424BD7E902011B
:1040C000FCF7E2F802460B46D7E90401FCF710FDC5
:1040D0000346002B05D04FF000023B4BC7E90A23F3
:1040E0004FE04FF00002394BD7E90201FCF7CEF860
:1040F00002460B46D7E90401FCF704FD0346002BFA
:104100000FD14FF00002314BD7E90201FCF7BCF8A8
:1041100002460B46D7E90401FCF7EAFC0346002BF4
:1041200005D04FF000022A4BC7E90A2329E04FF0DF
:104130000002284BD7E90201FCF7A8F802460B461B
:10414000D7E90401FCF7DEFC0346002B0FD14FF04A
:104150000002204BD7E90201FCF796F802460B4615
:10416000D7E90401FCF7C4FC0346002B05D04FF04F
:104170000002194BC7E90A2303E0D7E90823C7E97E
:104180000A239FED0B2B97ED081B97ED0A0BFFF70A
:104190007DFEB0EE407AF0EE607AB0EE470AF0EEC7
:1041A000670A3037BD4680BD0000000000000000F7
:1041B0000000000000005940008041400000244001
:1041C000000059400000204000005440000018400A
:1041D00000004E40000010400080464000000000FB
:1041E00080B58AB000AF786187ED020B87ED001BC8
:1041F00039617B691B69002B11D102F09BFB0246E0
:104200007B691A6179694FF000024FF00003C1E940
:1042100000237969D7E90223C1E902235EE002F0B5
:1042200089FBB8617B691B69BA69D31A1846FCF728
:1042300069F94FF000022E4BFCF708FB02460B46D3
:10424000C7E908237B69BA691A614FF000024FF091
:104250000003D7E90801FCF74BFC0346002B04D010
:1042600021A3D3E90023C7E908237969D7E9022309
:10427000C1E902237B6993ED027B7B6993ED006BBF
:1042800097ED083B97ED002BB0EE461AF0EE661A5C
:10429000B0EE470AF0EE670AFFF724FEB0EE407A70
:1042A000F0EE607A7B6983ED007B7B6993ED007BA8
:1042B000B0EE470AF0EE670AFFF766FEF861FB69A9
:1042C000002B01DA0023FB61FB69642B01DD642311
:1042D000FB61FB69DAB23B69104698472837BD4657
:1042E00080BD00BFAFF30080FCA9F1D24D62503F0A
:1042F00000408F4080B582B000AF0346FB71054A95
:10430000FB7913710348FCF775FE00BF0837BD4603
:1043100080BD00BF4C01002080B582B000AF0346D5
:10432000FB71054AFB7913710348FCF77DFE00BF62
:104330000837BD4680BD00BF5801002080B582B05F
:1043400000AF0346FB71FB790A2B03D80A20FFF765
:10435000D1FF03E0FB791846FFF7CCFFFB79184645
:10436000FFF7DAFFFB79002B06D001224FF4005152
:10437000094803F0E1FE05E000224FF40051064831
:1043800003F0DAFE01224FF48051034803F0D4FE1B
:1043900000BF0837BD4680BD000402402DE9B04390
:1043A00094B000AFF861B9617A613B6187ED020BAF
:1043B00087ED001B3B69002B02D1BB6E002B01D0A7
:1043C000012300E00023FB643B69002B06D0FB695E
:1043D000D3E91423904623F0004903E04FF000088E
:1043E0004FF00009C7E91089BB6E002B06D0BB69EE
:1043F000D3E91423144623F0004503E04FF00004F2
:104400004FF00005C7E90E45D7E90E23D7E91001A3
:10441000FCF782FB0346002B02D0D7E9102301E012
:10442000D7E90E23C7E90C2397ED0C2B97ED001B62
:1044300097ED020BF86CFFF7EFFD87ED0A0B4FF0DD
:104440000002084BC7E90823074997ED081B97EDC1
:104450000A0B7869FFF7C4FE00BF5037BD46BDE8C0
:10446000B08300BF000010403D4300080000000082
:10447000B0B592B000AF786187ED020B87ED001BFD
:1044800002F058FAF8637B699B6AFA6BD31A1846F4
:10449000FCF738F84FF000026D4BFCF7D7F90246F5
:1044A0000B46C7E910237B699B6A002B19D17B69F6
:1044B000FA6B9A62D7E90223D7E90001FBF7E4FE21
:1044C00002460B467969C1E9082379694FF0000279
:1044D0004FF00003C1E906234FF000024FF0000344
:1044E000A9E04FF000024FF00003D7E91001FCF7FC
:1044F000FFFA0346002B04D053A3D3E90023C7E9F6
:104500001023D7E90223D7E90001FBF7BDFE0246DD
:104510000B46C7E90C237B69D3E90645D7E910238D
:10452000D7E90C01FCF768F802460B4620462946FD
:10453000FBF7ACFE02460B467969C1E906237B69AD
:10454000D3E90823D7E90C01FBF79EFE02460B4690
:1045500010461946D7E91023FCF778F902460B46B6
:10456000C7E90A237B69D3E90001D7E90C23FCF7EB
:1045700043F802460B4614461D467B69D3E9020107
:104580007B69D3E90623FCF737F802460B46204641
:104590002946FBF77BFE02460B4614461D467B6907
:1045A000D3E90401D7E90A23FCF726F802460B46B3
:1045B00020462946FBF76AFE02460B46C7E9082358
:1045C0007B6993ED0C7B7B6993ED0E6BB0EE462A15
:1045D000F0EE662AB0EE471AF0EE671A97ED080B78
:1045E000FFF754FC87ED060BD7E90623D7E908014E
:1045F000FCF76AFA0346002B13D17B69D3E9064521
:10460000D7E91023D7E90C01FBF7F6FF02460B466A
:1046100020462946FBF738FE02460B467969C1E978
:1046200006237969D7E90C23C1E908237B69FA6B72
:104630009A62D7E9062343EC172BB0EE470AF0EE57
:10464000670A4837BD46B0BDFCA9F1D24D62503F64
:1046500000408F4080B500AFFDF794FC172203495E
:104660000348FEF729FA00BF80BD00BFFCF2000836
:10467000F000002080B500AFFDF7E0FB17220349F2
:104680000348FEF719FA00BF80BD00BF14F300080D
:10469000F000002080B582B000AF78607B68DAB2AD
:1046A000054B1A707B68DBB21846FDF766FB00BF4E
:1046B0000837BD4680BD00BFA809002080B500AF07
:1046C0000020FFF7E7FF00BF80BD000080B500AF0E
:1046D000FDF706FC162203490348FEF7EDF900BF7B
:1046E00080BD00BF2CF30008F000002080B500AFB3
:1046F000FDF752FB162203490348FEF7DDF900BF20
:1047000080BD00BF44F30008F000002080B582B0F7
:1047100000AF78607B68DAB2054B1A707B68DBB259
:104720001846FDF71BFB00BF0837BD4680BD00BF24
:10473000A909002080B500AF0020FFF7E7FF00BF08
:1047400080BD000000000000B0B58AB000AF786006
:104750007B681B6E002B05D102F0ECF802467B68EB
:104760001A66CDE002F0E6F802467B681B6ED31AAB
:104770001846FBF7C7FE4FF00002674BFCF766F8E0
:1047800002460B46C7E9082302F0D4F802467B68CC
:104790001A664FF000024FF00003D7E90801FCF75A
:1047A000A7F90346002B04D057A3D3E90023C7E998
:1047B00008237B6893ED167B7B6893ED146B97ED74
:1047C000083B9FED532BB0EE461AF0EE661AB0EEA2
:1047D000470AF0EE670AFFF785FBB0EE407AF0EE8D
:1047E000607A7B6883ED147B4FF000024B4BC7E986
:1047F00004237B68D3E91423144623F000452246A2
:104800002B46D7E90401FCF787F90346002B1BD0A0
:104810007B6893F86430012B08D1FFF74FFF00202D
:10482000FFF738FF7B6800229A6669E07B6893F89F
:104830006430002B08D1FFF77DFF0020FFF766FFF3
:104840007B6800229A665BE07B68D3E914014FF035
:1048500000024FF00003FCF75FF90346002B01D084
:10486000012301E04FF0FF33FB607B6893ED147B85
:10487000B0EE470AF0EE670AFFF786FB0346002B0F
:10488000B8BF5B42FB61FB69642B01DD6423FB6104
:10489000FB69002B01DA0023FB617B689B6EFA68E1
:1048A0009A4219D07B6893F86430012B07D1FB68DA
:1048B000002B02DDFFF7CEFE01E0FFF7DBFE7B6899
:1048C00093F86430002B07D1FB68002B02DDFFF763
:1048D000FDFE01E0FFF70AFF7B6893F86430012BCF
:1048E00003D1F869FFF7D6FE07E07B6893F86430E0
:1048F000002B02D1F869FFF709FF7B68FA689A6616
:104900002837BD46B0BD00BFFCA9F1D24D62503F73
:10491000000000000000004000408F400000F03F19
:104920002DE9B04F82B000AF02F004F87860124B6E
:104930001B687A689A4208D2104BD3E9002303F12E
:10494000010B92460D4BC3E900AB0B4A7B68136029
:104950007B6800221C461546084BD3E9002344EA35
:10496000020845EA030942464B46104619460837F5
:10497000BD46BDE8B08F00BFDC0A0020E00A002081
:104980002DE9F04FADF5657D0AAF002387F8673359
:1049900001F06AFF00F028FFFEF72AFAFEF708FA96
:1049A00001F02AF901F0B4FA01F0D4F9FEF7E2FAC5
:1049B00001F0B6FE01F050FB01F0FAFB01F02CFA19
:1049C000FEF7FAF8FEF736FEA548FDF717F9FDF7F2
:1049D0008DFBA449A448FEF729F807F55A73A3F202
:1049E00009230A221A700021A04804F00FFF0421B5
:1049F0009E4804F00BFF00219D4804F007FF0C21A6
:104A00009B4804F003FFFDF7C7F9FDF717FA07F518
:104A10005A73A3F52073184670231A46002108F034
:104A200063FA07F55A73A3F520714FF00002914B1A
:104A3000C1E9002307F55A73A3F5207186A3D3E9D2
:104A40000023C1E9022307F55A73A3F520714FF043
:104A50000002894BC1E90C2307F55A73A3F52071B5
:104A60004FF00002854BC1E90E2307F55A73A3F5F9
:104A700020714FF00002824BC1E9102307F55A73F1
:104A8000A3F520714FF000027D4BC1E9122307F519
:104A90005A73A3F52073012283F8642007F55A7333
:104AA000A3F53C73184670231A46002108F01CFA3F
:104AB00007F55A73A3F53C714FF000026D4BC1E945
:104AC000002307F55A73A3F53C7163A3D3E90023D0
:104AD000C1E9022307F55A73A3F53C714FF00002B8
:104AE000654BC1E90C2307F55A73A3F53C714FF0F0
:104AF0000002624BC1E90E2307F55A73A3F53C711E
:104B00004FF000025E4BC1E9102307F55A73A3F57D
:104B10003C714FF000025A4BC1E91223594BD3E9C3
:104B2000002312F1010843F10009564BC3E9008943
:104B3000544BD3E900014FF005024FF00003FCF79E
:104B40008DF8134304D14FF480614F4803F00DFBFF
:104B50004C4BD3E900014FF00A024FF00003FCF781
:104B60007DF8134340F0B081FFF7DAFE02460B46B2
:104B70004649C1E90023454BD3E900231146444B84
:104B8000D3E900231346CB1A002BB8BF5B424EF685
:104B90006022934203DD3F4B01221A7002E03D4B3D
:104BA00000221A703C4B5B68012B0BD03A4B5B78B0
:104BB000002B07D1384B1B78002B03D1354B1B78CA
:104BC000012B6FD107F55A73A3F5207300221A66E3
:104BD00007F55A73A3F520714FF000024FF0000360
:104BE000C1E91423FFF76AFD07F55A73A3F53C7377
:104BF00000221A6607F55A73A3F53C714FF00002C4
:104C00004FF00003C1E91423FFF794FD234B00226A
:104C10001A712248FDF76EFE052001F097FE204B29
:104C200000221A711E48FDF749FE052001F08EFE94
:104C3000194B1B78002B03D1164B1B78012B03D18A
:104C40000A20FFF757FB02E00020FFF753FB00208C
:104C5000FFF762FBCAE000BF9A9999999999A93F19
:104C60001801002028070020F0000020540C00202C
:104C70007C0B002000002E40000059C000805640F0
:104C800000C058C0900A0020000C0240C80A002052
:104C9000D00A0020D80A00207C09002064010020EE
:104CA00070010020A44B9B68002B3CD007F55A7381
:104CB000A3F5207300221A6607F55A73A3F5207135
:104CC0004FF000024FF00003C1E91423FFF7F6FC98
:104CD00007F55A73A3F53C7300221A6607F55A7359
:104CE000A3F53C714FF000024FF00003C1E914231B
:104CF000FFF720FD914B32221A719048FDF7FAFD23
:104D0000052001F023FE8E4B32221A718C48FDF7EC
:104D1000D5FD052001F01AFE0A20FFF7EBFA00206E
:104D2000FFF7FAFA62E0844BDB68012B11D107F13F
:104D300078031846FFF708FD814B64221A718048FA
:104D4000FDF7BCFD034687F86733052001F0FEFD43
:104D50000BE07B4B00221A717948FDF7AFFD03464B
:104D600087F86733052001F0F1FD734B9B69012B38
:104D700011D107F1E8031846FFF7E6FC6F4B6422F8
:104D80001A716E48FDF7B6FD034687F867330520B4
:104D900001F0DCFD0BE0694B00221A716748FDF75A
:104DA000A9FD034687F86733052001F0CFFD624B6C
:104DB000DD68614B9C69604B5B6A1846FBF7C4FB7E
:104DC00082468B465C4B9B6A1846FBF7BDFB02464E
:104DD0000B4607F1E80107F17800009443EC112B32
:104DE0004BEC10AB2B46574AFFF7D8FA564BD3E99A
:104DF00000014FF03C024FF00003FBF72FFF13437D
:104E000062D1FDF781F90346504A1360FDF79AF924
:104E100003464F4A13604F4BDB889BB29C464E4B78
:104E2000DB889BB29E464B4B1B79DBB21C464A4B40
:104E30001B79DBB21D46424BDB881E463F4BDB88AD
:104E4000FB603F4B1B79BB603C4B1B797B603F4B4E
:104E50001A683F4B1968414B1B783B60404B1B78ED
:104E600007F5B07009933B680893079106927A683A
:104E70000592BA680492FB68039302960195009428
:104E800073466246374907F035FF07F5B073184699
:104E9000FBF79EF9024607F5B07319463248FDF755
:104EA0000BFE2C4B0022DA802B4B0022DA80244BA5
:104EB0000022DA80214B0022DA8023494FF00002E1
:104EC0004FF00003C1E90023002387F86633274B26
:104ED00093F8083283F00103DBB2002B04D0642086
:104EE00001F034FD00F05ABC07F25F131946204868
:104EF000FCF736F9034687F8663397F8663383F094
:104F00000103DBB2002B37D01D221A491648FDF7EA
:104F1000D3FD4FF400720021154807F0E5FF134B55
:104F20000022C3F80422114B002283F808226420D7
:104F300001F00CFD00F032BC7C090020640100206F
:104F400070010020B00A0020900A002020070020F5
:104F5000240700204C01002058010020A90900204E
:104F6000A80900205CF30008F000002028070020BA
:104F70002A07002098F3000807F55A73A3F20923C3
:104F80001B78092B40F0D182FFF7CAFC02460B4682
:104F90008B49C1E900238B498B48FCF726FA03466D
:104FA00087F8663397F8663383F00103DBB2002B92
:104FB00011D04FF400720021834807F095FF834B16
:104FC0000022C3F80422814B002283F808226420C7
:104FD00001F0BCFCE2E37E497A48FEF75FFD034640
:104FE00087F8663397F8663383F00103DBB2002B52
:104FF00011D04FF400720021734807F075FF734B16
:105000000022C3F80422714B002283F80822642096
:1050100001F09CFCC2E36E4B5B68012B07D06C4B2C
:105020005B78002B03D16A4B1B78002B68D007F507
:105030005A73A3F520714FF000024FF00003C1E94D
:10504000142307F55A73A3F5207300221A6607F597
:105050005A73A3F520714FF000025E4BC1E9102393
:1050600007F55A73A3F520714FF000025A4BC1E9BE
:105070001023FFF723FB594B00221A715748FDF705
:1050800039FC052001F062FC07F55A73A3F53C7169
:105090004FF000024FF00003C1E9142307F55A73E3
:1050A000A3F5207300221A6607F55A73A3F53C7125
:1050B0004FF00002474BC1E9102307F55A73A3F5DF
:1050C0003C714FF00002444BC1E91023FFF732FB63
:1050D000434B00221A714248FDF7F0FB052001F016
:1050E00035FC3B4B1B78002B03D00A20FFF702F95D
:1050F00002E00020FFF7FEF80020FFF70DF914E2B0
:10510000334B9B68012B6DD107F55A73A3F52071C2
:105110004FF000024FF00003C1E9142307F55A7362
:10512000A3F5207300221A6607F55A73A3F52071C0
:105130004FF00002274BC1E9102307F55A73A3F57E
:1051400020714FF00002244BC1E91023FFF7B6FA9B
:10515000224B32221A712148FDF7CCFB052001F0C9
:10516000F5FB07F55A73A3F53C714FF000024FF0C1
:105170000003C1E9142307F55A73A3F52073002235
:105180001A6607F55A73A3F53C714FF00002114BF4
:10519000C1E9102307F55A73A3F53C714FF00002E3
:1051A0000D4BC1E91023FFF7C5FA0D4B32221A71DE
:1051B0000B48FDF783FB052001F0C8FBB5E100BFFC
:1051C000D00A0020340900202A07002028070020E8
:1051D0007C09002000C058C0008058C06401002035
:1051E00070010020AE4B9B69002B00F08A80AC4B15
:1051F000DB691846FBF7A8F902460B4607F55A711A
:10520000A1F52071C1E9102307F55A73A3F52073A6
:10521000D3E9100107F55A73A3F52073D3E91223DC
:10522000FBF752FC0346002B4AD107F55A73A3F54E
:105230002073D3E9102307F55A71A1F52071C1E954
:10524000122307F55A73A3F52073D3E91045944B45
:105250001B6A1846FBF778F902460B46204629469A
:10526000FBF712F802460B4607F55A71A1F52071BB
:10527000C1E9082301F05EFB024607F55A73A3F566
:1052800020739A6207F55A73A3F520714FF000025C
:105290004FF00003C1E9142307F55A73A3F52073F7
:1052A00000221A66FFF70AFA7E4B64221A717D48C3
:1052B000FDF720FB034687F86633322001F046FBFA
:1052C000774B1B6A1846FBF73FF907F55A73A3F5AE
:1052D000207393ED107B07F1E803B0EE471AF0EE70
:1052E000671A41EC100B1846FFF7C2F8B0EE407A8F
:1052F000F0EE607A07F55A73A3F5207383ED167B01
:105300003EE007F55A73A3F52073D3E91045644BCB
:105310001B6A1846FBF718F902460B462046294639
:10532000FAF7B2FF02460B4607F55A71A1F5207154
:10533000C1E9082301F0FEFA024607F55A73A3F506
:1053400020739A6207F55A73A3F520714FF000029B
:105350004FF00003C1E9142307F55A73A3F5207336
:1053600000221A66FFF7AAF94E4B00221A714D4827
:10537000FDF7C0FA034687F86633322001F0E6FAFB
:10538000474BDB68002B00F09180454B1B691846AA
:10539000FBF7DAF802460B4607F55A71A1F53C71A6
:1053A000C1E9102307F55A73A3F53C73D3E9100143
:1053B00007F55A73A3F53C73D3E91223FBF784FB7B
:1053C0000346002B4AD107F55A73A3F53C73D3E982
:1053D000102307F55A71A1F53C71C1E9122307F5B5
:1053E0005A73A3F53C73D3E910452D4B5B691846FE
:1053F000FBF7AAF802460B4620462946FAF744FF77
:1054000002460B4607F55A71A1F53C71C1E9082324
:1054100001F090FA024607F55A73A3F53C739A62BD
:1054200007F55A73A3F53C714FF000024FF00003EB
:10543000C1E9142307F55A73A3F53C7300221A66D9
:10544000FFF778F9184B64221A711748FDF736FAFE
:10545000034687F86633322001F078FA104B5B6917
:105460001846FBF771F807F55A73A3F53C7393EDF3
:10547000107B07F17803B0EE471AF0EE671A41ECA3
:10548000100B1846FEF7F4FFB0EE407AF0EE607AAB
:1054900007F55A73A3F53C7383ED167B45E000BF17
:1054A0007C090020640100207001002007F55A7378
:1054B000A3F53C73D3E91045B94B5B691846FBF77C
:1054C00043F802460B4620462946FAF7DDFE02461F
:1054D0000B4607F55A71A1F53C71C1E9082301F0AB
:1054E00029FA024607F55A73A3F53C739A6207F549
:1054F0005A73A3F53C714FF000024FF00003C1E96D
:10550000142307F55A73A3F53C7300221A66FFF7BC
:1055100011F9A44B00221A71A248FDF7CFF90346F6
:1055200087F86633322001F011FA07F55A73A3F2B7
:1055300009231B78002B5AD101224FF480519A483D
:1055400002F0FAFD01224FF40051974802F0F4FDF9
:1055500096499748FCF7B8F8034687F8663397F8FA
:10556000663383F00103DBB2002B09D0914B8F4AE5
:1055700001219148FDF774FD642001F0E7F90DE188
:105580008C498A48FBF76CFD034687F8663397F829
:10559000663383F00103DBB2002B09D0854B834ACD
:1055A00002218548FDF75CFD642001F0CFF9F5E0AC
:1055B000824A83497F48FDF7DFFE034687F866335A
:1055C00097F8663383F00103DBB2002B09D0794BE7
:1055D000764A03217848FDF743FD642001F0B6F9CF
:1055E000DCE0744B714A00217348FDF739FD07F583
:1055F0005A73A3F209231B78012B4ED171496C48D1
:10560000FCF7E9F8034687F8663397F8663383F0CA
:105610000103DBB2002B09D06B4B6A4A01216648BB
:10562000FDF7E6FD642001F091F9B7E066496548B1
:10563000FDF77CF9034687F8663397F8663383F005
:105640000103DBB2002B09D05F4B5E4A02215A48AE
:10565000FDF7CEFD642001F079F99FE05B4A5149E6
:105660005948FDF738FF034687F8663397F86633E5
:1056700083F00103DBB2002B09D0534B514A0321C5
:105680004D48FDF7B5FD642001F060F986E04E4B12
:105690004C4A00214848FDF7ABFD07F55A73A3F2C9
:1056A00009231B78032B68D149494148FCF71AF9B3
:1056B000034687F8663397F8663383F00103DBB25D
:1056C000002B16D04FF400720021394807F00CFC73
:1056D000404B0022C3F804223E4B002283F80822EC
:1056E00023223D493448FDF7E7F9642001F02EF903
:1056F00054E03A493648FCF7B7F9034687F8663371
:1057000097F8663383F00103DBB2002B16D04FF419
:1057100000720021264807F0E7FB2E4B0022C3F859
:1057200004222C4B002283F8082228222C492248EC
:10573000FDF7C2F9642001F009F92FE0FCF7E4FC61
:105740000346A7F86433FCF7FDFC0346A7F8623371
:10575000B7F86423B7F8623307F11400214907F062
:10576000C9FA07F114031846FAF732FD024607F1A9
:10577000140319461048FDF79FF94FF400720021F9
:105780000B4807F0B1FB134B0022C3F80422114B66
:10579000002283F80822642001F0D8F8FFF7BEB990
:1057A0007C0900207001002000040240AC090020A8
:1057B0002A070020C4090020F00000205801002022
:1057C0004C010020D4090020EC09002064010020D5
:1057D000FC09002028070020B8F30008180A002060
:1057E000DCF3000808F4000880B594B000AF07F1BE
:1057F000200330220021184607F076FB07F10C0346
:1058000000221A605A609A60DA601A610023BB6055
:10581000284B1B6C274A43F080531364254B1B6CA9
:1058200003F08053BB60BB6800237B60224B1B6886
:10583000214A43F4804313601F4B1B6803F48043E9
:105840007B607B6802233B620123FB6210233B6386
:105850000223BB630023FB6308233B64A0237B6418
:105860000223BB640423FB6407F12003184603F002
:1058700045F90346002B01D000F020F80F23FB6010
:1058800002233B6100237B614FF4C053BB614FF4A3
:10589000C053FB6107F10C030521184603F0A6FB7A
:1058A0000346002B01D000F009F800BF5037BD4679
:1058B00080BD00BF003802400070004080B400AFDF
:1058C00072B600BF00BFFDE780B483B000AF002315
:1058D0007B60104B5B6C0F4A43F4804353640D4B69
:1058E0005B6C03F480437B607B6800233B60094B67
:1058F0001B6C084A43F080531364064B1B6C03F087
:1059000080533B603B6800BF0C37BD465DF8047BAD
:10591000704700BF0038024080B400AF00BFFDE711
:1059200080B400AF00BFFDE780B400AF00BFFDE76B
:1059300080B400AF00BFFDE780B400AF00BFFDE75B
:1059400080B400AF00BFBD465DF8047B704780B4F3
:1059500000AF00BFBD465DF8047B704780B400AF68
:1059600000BFBD465DF8047B704780B500AF00F016
:10597000CDFF00BF80BD000080B500AF024801F040
:105980004CF800BF80BD00BF2406002080B500AFEA
:10599000024804F063F800BF80BD00BFEC0A00209D
:1059A00080B500AF024804F059F800BF80BD00BFC9
:1059B000EC0A002080B500AF024804F04FF800BFA9
:1059C00080BD00BFEC0A002080B500AF024804F0A3
:1059D00045F800BF80BD00BFEC0A002080B500AFD5
:1059E000024804F03BF800BF80BD00BF7C0B0020E4
:1059F00080B500AF024804F031F800BF80BD00BFA1
:105A0000C40B002080B500AF024805F0C1FA00BF0A
:105A100080BD00BF9C0C002080B500AF034804F09F
:105A20001DF8034804F01AF800BF80BD0C0C0020DC
:105A3000540C002080B500AF024801F077FF00BF92
:105A400080BD00BF6C06002080B400AF0123184663
:105A5000BD465DF8047B704780B582B000AF7860CA
:105A6000396007F0C1FA034616221A604FF0FF337F
:105A700018460837BD4680BD80B582B000AF78605B
:105A80004FF0FF317868FFF7E7FF00BFFDE780B513
:105A900086B000AFF860B9607A6000237B610AE0ED
:105AA000AFF300800146BB685A1CBA60CAB21A70D4
:105AB0007B6901337B617A697B689A42F0DB7B68A2
:105AC00018461837BD4680BD80B586B000AFF86077
:105AD000B9607A6000237B6109E0BB685A1CBA6038
