:020000040800F2
:1000000000400220351B0008411A0008491A000868
:1000100000000000000000000000000000000000E0
:10002000000000000000000000000000511A00085D
:1000300000000000000000005B1A0008651A0008BC
:10004000851B000800000000851B0008851B0008B8
:10005000851B0008851B0008851B0008851B000800
:10006000851B0008851B0008751A0008851B000801
:10007000851B0008851B0008851B00080000000088
:10008000851B0008851B0008851B0008851B0008D0
:10009000851B0008851B0008851B0008851B0008C0
:1000A000851B0008851B0008851B00088D1A0008A9
:0800B000A51A0008851B0008D9
:1000B80010B5064C2378002B07D1054B002B02D036
:1000C800044800E000BF0123237010BDE4000020B5
:1000D80000000000B8650008044B10B5002B03D0E1
:1000E8000349044800E000BF10BDC04600000000FE
:1000F800E8000020B86500080023C25C0133002A2C
:10010800FBD1581E7047000003B4714649084000EF
:100118004900095E49008E4403BC70470022430829
:100128008B4274D303098B425FD3030A8B4244D3B7
:10013800030B8B4228D3030C8B420DD3FF220902F9
:1001480012BA030C8B4202D31212090265D0030BB8
:100158008B4219D300E0090AC30B8B4201D3CB03AE
:10016800C01A5241830B8B4201D38B03C01A5241F0
:10017800430B8B4201D34B03C01A5241030B8B42F2
:1001880001D30B03C01A5241C30A8B4201D3CB02DD
:10019800C01A5241830A8B4201D38B02C01A5241C2
:1001A800430A8B4201D34B02C01A5241030A8B42C5
:1001B80001D30B02C01A5241CDD2C3098B4201D3DD
:1001C800CB01C01A524183098B4201D38B01C01A5B
:1001D800524143098B4201D34B01C01A52410309D2
:1001E8008B4201D30B01C01A5241C3088B4201D381
:1001F800CB00C01A524183088B4201D38B00C01A2E
:10020800524143088B4201D34B00C01A5241411A54
:1002180000D20146524110467047FFE701B5002061
:1002280000F0F0F802BDC0460029F7D076E7704725
:1002380003460B437FD4002243088B4274D303093F
:100248008B425FD3030A8B4244D3030B8B4228D3E0
:10025800030C8B420DD3FF22090212BA030C8B4206
:1002680002D31212090265D0030B8B4219D300E0A6
:10027800090AC30B8B4201D3CB03C01A5241830B2B
:100288008B4201D38B03C01A5241430B8B4201D3DB
:100298004B03C01A5241030B8B4201D30B03C01A04
:1002A8005241C30A8B4201D3CB02C01A5241830A7E
:1002B8008B4201D38B02C01A5241430A8B4201D3AD
:1002C8004B02C01A5241030A8B4201D30B02C01AD7
:1002D8005241CDD2C3098B4201D3CB01C01A52413E
:1002E80083098B4201D38B01C01A524143098B42C7
:1002F80001D34B01C01A524103098B4201D30B01B0
:10030800C01A5241C3088B4201D3CB00C01A5241D4
:1003180083088B4201D38B00C01A524143088B4299
:1003280001D34B00C01A5241411A00D20146524132
:10033800104670475DE0CA0F00D04942031000D351
:100348004042534000229C4603098B422DD3030AA6
:100358008B4212D3FC22890112BA030A8B420CD3B6
:10036800890192118B4208D3890192118B4204D3DF
:1003780089013AD0921100E08909C3098B4201D35F
:10038800CB01C01A524183098B4201D38B01C01A99
:10039800524143098B4201D34B01C01A5241030910
:1003A8008B4201D30B01C01A5241C3088B4201D3BF
:1003B800CB00C01A524183088B4201D38B00C01A6C
:1003C8005241D9D243088B4201D34B00C01A524143
:1003D800411A00D20146634652415B10104601D3D0
:1003E8004042002B00D54942704763465B1000D35A
:1003F800404201B5002000F005F802BD0029F8D000
:1004080016E770477047C04680B500AFBFF34F8FFF
:10041800C046044B044ADA60BFF34F8FC046C0465B
:10042800FDE7C04600ED00E00400FA0580B584B0A1
:1004380000AF78607B681B68FB60FA6880239B05C7
:100448009A4205D3FB68054A934201D8012300E08C
:1004580000231800BD4604B080BDC04600400220FD
:1004680080B586B000AF78607B681800FFF7DEFFC4
:10047800031E36D07B681B683B617B6804331B68AE
:10048800FB6072B6C046194B00221A60174B002257
:100498005A60164B00229A6000237B6110E01449D1
:1004A8007B6920339B00012252425A5010497B69D4
:1004B80060339B00012252425A507B6901337B61B1
:1004C8007B69072BEBDD0B4B7A689A603B69BB6055
:1004D800BB6883F30888C04662B6C046FB68984785
:1004E80000E0C046BD4606B080BDC04610E000E052
:1004F80000E100E000ED00E080B58AB000AF786070
:1005080002F092F80C217B1802221A607B18FF2255
:100518009A607B180122DA600823FA187B18110008
:10052800180002F035F97B683B620F4BFB61002332
:100538007B6210E07B6ADB00FA69D31819007B6ADA
:10054800DB003A6AD3181A685B68012002F01EF8CB
:100558007B6A01337B627B6A072BEBD902F088F850
:10056800C046BD460AB080BD00F8070880B590B007
:1005780000AF104B5B68013318D10E4B1B68013379
:1005880014D13B00012252421A603B0000225A60FB
:100598003B00094A9A603B0001225242DA603B0064
:1005A80000221A613B001800FFF7A6FFC046BD46AF
:1005B80010B080BD00F80708CCCCCCCC80B582B098
:1005C80000AF78607B681B68044A934202D1044BF1
:1005D80000221A70C046BD4602B080BD00440040EB
:1005E800FC03002080B582B000AF78607B681B6890
:1005F800044A934202D1044B00221A70C046BD46F9
:1006080002B080BD00440040FC03002080B500AF6C
:1006180080235B0003480122190002F0D5FAC04686
:10062800BD4680BD0008005080B500AF80235B0048
:1006380003480022190002F0C7FAC046BD4680BD33
:100648000008005080B582B000AF786039600BE0D8
:10065800FFF7DCFF7B68180001F018FBFFF7E4FFE9
:100668007B68180001F012FB3B685A1E3A60002BA9
:10067800EED1C046C046BD4602B080BD80B584B04C
:1006880000AF78600A00BB1C1A800F23FB180022F9
:100698001A700C23FB1800221A8010E00C203B185B
:1006A8001B887A68D31819780F22BB18BA181278E1
:1006B8004A401A703B181A883B1801321A800C23DA
:1006C800FA18BB1C12881B889A42E7D30F23FB1821
:1006D8001B781800BD4604B080BD000080B584B00A
:1006E80000AF78600A00FB1C1A70FB1C1B787A6844
:1006F80053407B600F23FB1800221A7012E07B68BE
:100708000122134005D07B685B080B4A53407B608D
:1007180002E07B685B087B600F217B181A787B18E6
:1007280001321A700F23FB181B78072BE7D97B6857
:100738001800BD4604B080BD2083B8ED80B584B0F4
:1007480000AF7860396001235B42FB600023BB6027
:100758000DE07A68BB68D3181A78FB681100180096
:10076800FFF7BCFF0300FB60BB680133BB60BA68DE
:100778003B689A42EDD3FB68DB431800BD4604B0E2
:1007880080BD80B58AB000AFF860B9607A6001F0CA
:100798004BFF72B6C04600237B6229E00122524219
:1007A800D3173A617B617A687B6AD31A3B623B6AEA
:1007B800082B00D90823FB61BA687B6AD118FA694B
:1007C8001023FB18180005F0A9FAFA687B6AD118FB
:1007D8003A697B69012001F0D9FE031E05D062B693
:1007E800C04601F045FF00230BE07B6A08337B62BB
:1007F8007A6A7B689A42D1D362B6C04601F038FF64
:1008080001231800BD460AB080BD000080B586B03F
:1008180000AF0200FB1D1A707E4B1B78DBB2072B62
:1008280000D9F3E09A007C4BD3181B689F467B4B9A
:1008380000221A80FB1D1B78AA2B00D0E3E0754B21
:1008480001221A70DFE0FB1D1B78552B03D1714B79
:1008580002221A70DAE06F4B00221A70704B0122E4
:100868001A70D3E06F4BFA1D12781A70694B032285
:100878001A70CBE06C4BFA1D12781A70654B042283
:100888001A70C3E0654B1B88F72B13D8634B1B8882
:100898005A1C91B2614A11801900644BFA1D1278F2
:1008A8005A54614B1B781A005C4B1B889A4200D93A
:1008B800ABE006E05A4B01221A70564B00221A7020
:1008C800A4E0544B05221A709FE0594BFA1D127888
:1008D8001A70504B06221A7098E0FB1D1B78552B96
:1008E80003D14C4B07221A7090E04A4B00221A7031
:1008F8004B4B01221A7089E0464B00221A70FB1DEF
:100908001B78AA2B2FD1474B1978474B1A781723F6
:10091800FB184A401A701423FB1800221A800FE0B3
:1009280014203B181B88414AD15C1722BB18BA18FF
:1009380012784A401A703B181A883B1801321A80FC
:10094800394B1B781A001423FB181B889342E7D3F2
:10095800374B1B781722BA1812789A4207D0354BB2
:1009680001221A7052E02E4B01221A704EE02D4BD4
:100978001B78FF2B43D12C4B1B78042B03D0284B1F
:1009880001221A7042E0294B1B68FB602A4B1B6846
:100998001A002A4B1B6819001000FFF7CFFE03004E
:1009A8003B61FB683A699A4214D1254A254B1100EC
:1009B800180005F05FF9234B1800FFF79DFB0300B3
:1009C8009AB220492048642303F00AF81F4B0122F9
:1009D8001A701BE01E4A1B4B1100180005F04AF95B
:1009E800184B1800FFF788FB03009AB21549164800
:1009F800642302F0F5FF174B01221A7006E0164B2C
:100A080001221A7002E0C04600E0C046C046BD465A
:100A180006B080BD88020020906700088C02002084
:100A28008A030020890200208A0200209002002008
:100A38008E0200208B03002004040020F80300200D
:100A48001C66000890030020000100208903002094
:100A5800346600088C0300208803002080B582B02B
:100A680000AF78607B681B68084A93420AD1084B3C
:100A78001B781800FFF7CAFE0549064B012218002B
:100A880003F052F8C046BD4602B080BD00440040A5
:100A98008E03002094010020B0B594B000AFC0468A
:100AA800404B1B78DBB2002BFAD13F4A3B001800C1
:100AB800110040231A0005F031F93C4BFB643C4B14
:100AC800BB64FB6C1A7800210A40111C55220A43AA
:100AD8001A705A7800210A40111C562252420A43C1
:100AE8005A70FB6C07229A70FB6C03331A7800214A
:100AF8000A401A705A7800210A405A709A780021E0
:100B08000A409A70DA7800210A40DA70FB6C0022F9
:100B1800DA713B005B68DAB2FB6C1A72FB6C00227C
:100B28005A72234B7B647B6C00221A70214B43253D
:100B38007C1909211800FFF7A1FD03002370BB6C85
:100B48007A1912781A70BB6C01331A7800210A409E
:100B5800111C562252420A431A705A7800210A4040
:100B6800111C55220A435A700E4B01221A700F4964
:100B7800114B0E22180003F02FF8104A104B1100E9
:100B8800180005F077F80E4B1800FFF7B5FA0300C8
:100B98009AB20B490B48642302F022FFC046BD46B7
:100BA80014B0B0BDFC03002000F807080C040020B6
:100BB800160400200E04002094010020506600084E
:100BC8009003002000010020B0B596B000AF0200ED
:100BD800FB1D1A70C046394B1B78DBB2002BFAD1CB
:100BE800374A08243B191800110040231A0005F061
:100BF80095F8344B7B65344B3B657B6D1A78002147
:100C08000A40111C55220A431A705A7800210A40DA
:100C1800111C562252420A435A707B6DFA1D1278F3
:100C28009A707B6D03331A7800210A401A705A783B
:100C380000210A405A709A7800210A409A70DA789E
:100C480000210A40DA707B6D0022DA713B195B687B
:100C5800DAB27B6D1A727B6D00225A721A4BFB64F2
:100C6800FB6C00221A70194B4B257C1909211800BE
:100C7800FFF704FD030023703B6D7A1912781A7090
:100C88003B6D01331A7800210A40111C562252424A
:100C98000A431A705A7800210A40111C55220A4347
:100CA8005A70064B01221A700649094B0E22180089
:100CB80002F092FFC046BD4616B0B0BDFC0300204E
:100CC80000F807081C040020260400201E04002049
:100CD8009401002080B582B000AF584B1B78DBB27E
:100CE800002B0DD01F20FFF76FFF544B00221A7006
:100CF800FA235B0001211800FFF7A4FC012399E007
:100D08004F4B1B78DBB2002B0DD01F20FFF75CFF89
:100D18004B4B00221A70FA235B0002211800FFF7E0
:100D280091FC012386E0474B1B78DBB2002B0DD0EA
:100D3800A120FFF749FF434B00221A70FA235B00FA
:100D480003211800FFF77EFC012373E03E4B1B785C
:100D5800DBB2002B6DD03C4B00221A703B4B0022BB
:100D68001A7000F089FF0200394B1A60FB1D394ADE
:100D780012781A70374B1B7807221340DBB2002B0E
:100D88001CD0344B1B780733DAB2FB1D07218A438A
:100D98001A70BB1D2F4A12781A7009E0BB1D1B7808
:100DA8002D4AFF21D154BB1D1A78BB1D01321A7080
:100DB800BA1DFB1D12781B789A42EFD3FB1D1A78D7
:100DC800264B1B68D218264B1B68C82189028C4603
:100DD80063449A4204D91B4B01221A70012329E06B
:100DE8001E4B1868FB1D1A781B4B1900FFF7C9FC2E
:100DF800031E13D0FB1D1A78184B1B68D218174B0B
:100E08001A60144B1B781A00164B1B68D218154B26
:100E18001A607920FFF7D8FE00230BE0A220FFF725
:100E2800D3FEFA235B0004211800FFF70BFC012313
:100E380000E000231800BD4602B080BD8B030020EF
:100E48008C0300208A030020880300208D030020E3
:100E5800080400208A02002090020020F4030020E9
:100E680004040020F803002080B590B000AF78603B
:100E780001F0DAFB474B80221A61C8239B02FB630F
:100E88007B68BB637BE00C23FB18180010231A0057
:100E9800002104F00FFF0023BB60BB6B3E4A934266
:100EA80005D804233B6380231B057B6304E0802370
:100EB8001B023B63394B7B63BA6B7B6BD31ADB0A30
:100EC800FB62374B1A68C0239B0413400ED0344B87
:100ED8001A68C0239B041A4080235B049A420CD1F1
:100EE800304B1A6880239B03134006D12E4B1B6896
:100EF8009B022E4A1340DB0A06E02B4B1B689B0221
:100F08005B082B4A1340DB0AFA6A9B1ABB62FB6B2D
:100F1800284A94466344DB0A7B627A6ABB6A934236
:100F280000D913003B620C217B1802221A607B183F
:100F38003A6B5A607B18FA6A9A607B183A6ADA60E8
:100F48000823FA187B181100180001F021FC031E71
:100F580003D001F08DFB002318E0C0460D4B1A6941
:100F680080235B021340F9D13B6ADB02FB61FA6B19
:100F7800FB69D31AFB63BA6BFB69D318BB63FB6BC2
:100F8800002B00D07FE701F073FB01231800BD465A
:100F980010B080BD00200240FFFF030800000408D5
:100FA8000075FF1F20200240E075FF1F00FC0F00A6
:100FB80000FE0700FF07000090B595B000AF78600D
:100FC800624A634B1100180004F054FE604B18008D
:100FD800FFF792F803009AB25D495E48642302F075
:100FE800FFFC7B681800FFF73FFF031E07D196231D
:100FF8005B000A211800FFF725FB0123A2E05649F0
:10100800564B0122180002F08FFDFFF745FD544BA7
:1010180001221A7000F030FE0300FB6400F02CFE81
:101028000200504B1A60FFF755FE0300012B12D146
:101038004D4A474B1100180004F01CFE444B1800A1
:10104800FFF75AF803009AB241494248642302F074
:10105800C7FCFFF7D9F9454B1B78DBB2012B0AD146
:101068007920FFF7B1FDFA235B0005211800FFF78F
:10107800E9FA002366E000F0FFFD0200FB6CD31ADA
:101088003B4A934229D93B4A0C243B1918001100CA
:1010980040231A0004F042FEFA235B0006211800E0
:1010A800FFF7D0FA3B19012252421A603B19180087
:1010B800FFF722FA304A264B1100180004F0DAFD37
:1010C800234B1800FFF718F803009AB2204921486B
:1010D800642302F085FCFFF797F9214B1B78DBB2FC
:1010E800002BA0D000F0C8FD02001E4B1B68D31ACD
:1010F800224A934297D91A4B00221A701D4A0C248F
:101108003B191800110040231A0004F007FE3B1990
:10111800012252421A603B191800FFF7EDF9184AEC
:101128000B4B1100180004F0A5FD094B1800FEF741
:10113800E3FF03009AB206490648642302F050FC14
:10114800FFF762F91800BD4615B090BD6466000847
:1011580090030020000100208E030020940100204D
:101168008D030020080400208466000889030020FD
:10117800BF27090000F80708A066000887130000C9
:10118800C066000890B593B000AF78600F4A082495
:101198003B191800110040231A0004F0BFFD21007C
:1011A8007B187A685A607B68002B03D17B18084A41
:1011B8009A6003E00823FB18054ADA600823FB1845
:1011C8001800FFF799F9FFF71FF9C04600F807085C
:1011D800CCCCCCCC90B5A1B000AFB04A40243B19E0
:1011E8001800110040231A0004F098FD21007B1814
:1011F8001B68AB4A934248D17B185B685A425341FB
:10120800DBB21A00A74B1A607B185B68002B06D16B
:10121800A44B01221A60A44BA44A1A6005E0A14B12
:1012280000221A60A04BA24A1A609F4B1A68A14B71
:101238001A60A14B00221A609B4B1B681800FFF72D
:10124800BBFE031E21D13A004023FB1810001900F1
:1012580040231A0004F062FD924B1A683B005A6062
:101268003B00012252421A608E4B1B68002B03D1AF
:101278003B00924A9A6002E03B00904ADA603B00E9
:101288001800FFF739F9FFF7BFF8844A40243B19E3
:101298001800110040231A0004F040FD3B195B6858
:1012A800002B73D1864A874B1100180004F0E2FC2A
:1012B800844B1800FEF720FF03009AB28149824848
:1012C800642302F08DFB3B199B687C4A93422DD125
:1012D8007E4A7C4B1100180004F0CCFC794B1800B6
:1012E800FEF70AFF03009AB276497748642302F0B2
:1012F80077FB3B191B69012B0AD93B1900221A619C
:101308003B191800FFF7F8F80120FFF73BFF0DE045
:1013180040217B181B695A1C7B181A617B1818001E
:10132800FFF7EAF8624B1800FFF79AF8604B1800CD
:10133800FFF77CF8031E15D0654A624B11001800B0
:1013480004F098FC5F4B1800FEF7D6FE03009AB233
:101358005C495D48642302F043FB554B1800FFF7D6
:101368007FF886E0514B1800FFF760F8031E00D1A4
:101378007FE040217B1801225A607B181800FFF794
:10138800BBF84A4B1800FFF76BF872E0514A4D4B17
:101398001100180004F06EFC4A4B1800FEF7ACFE72
:1013A80003009AB247494848642302F019FB4024D5
:1013B8003B19DB68414A93422DD1474A414B110002
:1013C800180004F057FC3F4B1800FEF795FE030089
:1013D8009AB23C493C48642302F002FB3B191B6962
:1013E800012B0AD93B1900221A613B191800FFF793
:1013F80083F80020FFF7C6FE0DE040217B181B692B
:101408005A1C7B181A617B181800FFF775F8274BD0
:101418001800FFF725F8254B1800FFF707F8031EFB
:1014280015D02E4A274B1100180004F023FC254B39
:101438001800FEF761FE03009AB22249224864238D
:1014480002F0CEFA194B1800FFF70AF811E0184B12
:101458001800FEF7EBFF031E0BD040217B1800227B
:101468005A607B181800FFF747F8114B1800FEF771
:10147800F7FFFFF7CBF81A4A124B1100180004F0D7
:10148800F9FB104B1800FEF737FE03009AB20D491E
:101498000D48642302F0A4FAC046FDE700F80708E7
:1014A800AAAA5555000400200404002000A8030837
:1014B80000800008F4030020F8030020BBBBBBBB7E
:1014C800E06600089003002000010020F066000894
:1014D800086700081C6700082C67000844670008B4
:1014E8005867000880B500AF00F04AFB00F030F8FC
:1014F80000F046F900F026F900F088F800F0D4F87A
:10150800104911480123012204F0B4FB0E4B1800C6
:10151800FEF7F2FD03009AB20B490C48642302F06F
:101528005FFAFA235B0002211800FFF78BF8FA2311
:101538005B00180000F0AAFBFFF718F8FFF74AFE57
:10154800C046FDE7706700089003002000010020F6
:1015580090B593B000AF10243B19180038231A0037
:10156800002104F0A7FB3B00180010231A000021FB
:1015780004F0A0FB80239B00180001F043FB3B19FB
:1015880002221A603B1980225200DA6021007B187F
:1015980000221A617B1840225A617B180222DA6104
:1015A8007B1802221A627B1800225A627B180822D2
:1015B8009A627B1880229202DA627B188022920457
:1015C8001A637B18802292055A637B18180001F071
:1015D80065FB031E01D000F019F93B0007221A60D1
:1015E8003B0002225A603B0000229A603B00002226
:1015F800DA603B000221180001F06AFE031E01D0E8
:1016080000F004F9C046BD4613B090BD80B500AFE8
:10161800234B244A1A60224BE12252025A60204B83
:1016280000229A601E4B0022DA601D4B00221A61CC
:101638001B4B0C225A611A4B00229A61184B00224C
:10164800DA61174B00221A62154B00225A62144BBA
:1016580000229A62124B180002F06CF9031E01D0A6
:1016680000F0D4F80E4B0021180004F023FA031EF2
:1016780001D000F0CBF80A4B0021180004F05AFA08
:10168800031E01D000F0C2F8054B180004F0D8F989
:10169800031E01D000F0BAF8C046BD4680BDC04662
:1016A800000100200038014080B500AF234B244AD8
:1016B8001A60224BE122D2025A60204B00229A6023
:1016C8001E4B0022DA601D4B00221A611B4B0C22B4
:1016D8005A611A4B00229A61184B0022DA61174BA3
:1016E80000221A62154B00225A62144B00229A6299
:1016F800124B180002F01EF9031E01D000F086F804
:101708000E4B0021180004F0D5F9031E01D000F09B
:101718007DF80A4B0021180004F00CFA031E01D0D2
:1017280000F074F8054B180004F08AF9031E01D084
:1017380000F06CF8C046BD4680BDC046940100204C
:101748000044004080B582B000AF0C4B9A6B0B4B45
:1017580001210A439A63094B9B6B012213407B606A
:101768007B68002200210A2000F076FB0A2000F0A6
:1017780088FBC046BD4602B080BDC046001002408E
:1017880090B589B000AF0C243B19180014231A0037
:10179800002104F08FFA1B4B5A6B1A4B01210A43A4
:1017A8005A63184B5B6B01221340BB60BB68154B37
:1017B8005A6B144B04210A435A63124B5B6B042285
:1017C80013407B607B6880235B000F480022190070
:1017D80001F0FAF93B19802252001A603B190122E4
:1017E8005A603B1900229A603B190122DA603B19C2
:1017F800054A1900100001F07BF8C046BD4609B043
:1018080090BDC046001002400008005080B500AFEF
:1018180072B6C046C046FDE780B582B000AF114B36
:101828001A6C104B01210A431A640E4B1B6C0122DF
:1018380013407B607B680B4BDA6B0A4B80214905B0
:101848000A43DA63074BDA6B80235B0513403B607E
:101858003B68C023DB00180000F03CFAC046BD46D8
:1018680002B080BD0010024090B597B000AF78601C
:101878004423FB18180014231A00002104F01AFA54
:1018880018243B1918002C231A00002104F012FA1E
:101898007B681B68624A934246D13B1901221A6051
:1018A8003B1900225A603B19180001F0BBFE031EC9
:1018B80001D0FFF7ABFF5B4B1A6C5A4B8021C90173
:1018C8000A431A64574B1A6C8023DB0113407B616F
:1018D8007B69544B5A6B534B04210A435A63514B4F
:1018E8005B6B042213403B613B6944217B18302227
:1018F8001A607B1802225A607B1800229A607B18B3
:101908000322DA607B1801221A617B18464A190003
:10191800100000F0EDFF002200211B2000F09CFACF
:101928001B2000F0AEFA76E07B681B683F4A9342C2
:1019380071D118217B1802221A607B1800229A6044
:101948007B18180001F06EFE031E01D0FFF75EFF42
:10195800344BDA6B334B802189020A43DA63314B0B
:10196800DA6B80239B021340FB60FB682D4B5A6B9C
:101978002C4B01210A435A632A4B5B6B012213400B
:10198800BB60BB6844217B180C221A607B180222BA
:101998005A607B1800229A607B180322DA607B1851
:1019A80001221A617A18A023DB051100180000F043
:1019B8009FFF1F4B1F4A1A601D4B35225A601C4B54
:1019C80010229A601A4B0022DA60194B80221A61A1
:1019D800174B00225A61164B00229A61144B0022C1
:1019E800DA61134BC02292011A62114B180000F001
:1019F80065FA031E01D0FFF709FF7B680C4ADA6716
:101A08000B4B7A689A62002200211C2000F024FA0D
:101A18001C2000F036FAC046BD4617B090BDC0463F
:101A28000038014000100240000800500044004007
:101A3800280200201C00024080B500AFC046FDE728
:101A480080B500AFC046FDE780B500AFC046BD46D3
:101A580080BD80B500AFC046BD4680BD80B500AF33
:101A680000F0F8F8C046BD4680BD000080B500AF64
:101A7800034B180000F01CFCC046BD4680BDC046A4
:101A88002802002080B500AF034B180002F036F999
:101A9800C046BD4680BDC0460001002080B500AFED
:101AA800034B180002F02AF9C046BD4680BDC04667
:101AB8009401002080B586B000AF7860144A154BB9
:101AC800D31A7B617B693B61134B1B68002B02D1E6
:101AD800114B124A1A60104B1A687B68D3183A697E
:101AE8009A4207D204F0EEF803000C221A60012390
:101AF8005B4209E0084B1B68FB60074B1A687B6870
:101B0800D218054B1A60FB681800BD4606B080BDA8
:101B180000400220000400002C040020980500204A
:101B280080B500AFC046BD4680BD00000D48854663
:101B3800FFF7F6FF0C480D490D4A002302E0D45880
:101B4800C4500433C4188C42F9D30A4A0A4C0023FF
:101B580001E013600432A242FBD304F0B9F8FFF7A6
:101B6800C1FCFEE70040022000000020E400002045
:101B780074680008E400002098050020FEE70000D3
:101B880080B582B000AFFB1D00221A700B4B1A689B
:101B98000A4B802149000A431A60032000F010F81C
:101BA800031E03D0FB1D01221A7001E0FFF734FE6B
:101BB800FB1D1B781800BD4602B080BD0020024006
:101BC80090B585B000AF78600F23FB1800221A701B
:101BD8001D4B1B78002B2BD01C4B1C681A4B1B78F9
:101BE8001900FA239800FEF799FA0300190020005B
:101BF800FEF794FA0300180000F053F9031E12D1FF
:101C08007B68032B0AD8796801235B4200221800FD
:101C180000F022F90E4B7A681A600DE00F23FB18CA
:101C280001221A7008E00F23FB1801221A7003E042
:101C38000F23FB1801221A700F23FB181B781800BA
:101C4800BD4605B090BDC046080000200000002039
:101C58000400002080B500AF054B1B781A00054B27
:101C68001B68D218034B1A60C046BD4680BDC046EB
:101C7800080000203004002080B500AF024B1B682C
:101C88001800BD4680BDC0463004002080B584B031
:101C980000AF7860FFF7F0FF0300BB607B68FB6074
:101CA800FB68013305D00A4B1B781A00FB689B18A8
:101CB800FB60C046FFF7E0FF0200BB68D31AFA6872
:101CC8009A42F7D8C046C046BD4604B080BDC0465B
:101CD8000800002080B582B000AF7860064B1B6812
:101CE800064A13401900044B7A680A431A60C04632
:101CF800BD4602B080BDC04600000140FFF9FFFFAD
:101D080080B582B000AF0200FB1D1A70FB1D1B7866
:101D18007F2B09D8FB1D1B781A001F231A40044B80
:101D2800012191400A001A60C046BD4602B080BD3C
:101D380000E100E090B583B000AF02003960FB1D00
:101D48001A70FB1D1B787F2B28D82F4AFB1D1B7888
:101D58005BB29B08C0339B009B58FA1D1278110098
:101D680003220A40D200FF2191400A00D2431A40C0
:101D780011003B689B01FF221A40FB1D1B781800CD
:101D880003230340DB009A401F48FB1D1B785BB20E
:101D98009B080A43C0339B001A5031E01B4AFB1DC5
:101DA8001B7819000F230B40083B9B0806339B0048
:101DB800D31804331B68FA1D1278110003220A4055
:101DC800D200FF2191400A00D2431A4011003B681B
:101DD8009B01FF221A40FB1D1B78180003230340B8
:101DE800DB009A400948FB1D1B781C000F23234089
:101DF800083B9B080A4306339B00C31804331A6048
:101E0800C046BD4603B090BD00E100E000ED00E033
:101E180080B582B000AF78607B685A1E80235B046F
:101E28009A4201D3012310E00A4B7A68013A5A60BA
:101E380001235B4203211800FFF77CFF054B0022BA
:101E48009A60044B07221A6000231800BD4602B0AE
:101E580080BDC04610E000E080B584B000AFB96036
:101E68007A600F217B18021C1A70BA687B181B78DD
:101E78005BB211001800FFF75DFFC046BD4604B015
:101E880080BD80B582B000AF0200FB1D1A70FB1D3B
:101E98001B785BB21800FFF733FFC046BD4602B09F
:101EA80080BD80B582B000AF78607B681800FFF70E
:101EB800AFFF03001800BD4602B080BD80B582B0F8
:101EC80000AF78607B68002B01D1012391E07B682B
:101ED8001B681A00494B9A4210D87B681B68484A0D
:101EE8009446634414211800FEF718F903009A0079
:101EF8007B685A647B68434A1A640FE07B681B68F6
:101F0800414A9446634414211800FEF707F9030078
:101F18009A007B685A647B683C4A1A647B6825226D
:101F2800022199547B681B681A687B681B683849CA
:101F38000A401A607B681B6819687B689A687B6826
:101F4800DB681A437B681B691A437B685B691A4321
:101F58007B689B691A437B68DB691A437B681B6A49
:101F68001A437B681B680A431A607B68180000F0F4
:101F78009FFA7B689A688023DB019A4202D17B68CA
:101F880000225A607B685A687B689B6C7F210A40F4
:101F98001A607B68DB6C7A68126D5A607B685B68D4
:101FA800002B11D07B685B68042B0DD87B68180068
:101FB80000F0C8FA7B685B6D00221A607B689B6D35
:101FC8007A68D26D5A6008E07B6800225A657B689F
:101FD80000229A657B680022DA657B680022DA6352
:101FE8007B682522012199547B6824220021995479
:101FF80000231800BD4602B080BDC0460704024059
:10200800F8FFFDBF00000240F8FBFDBF00040240DE
:102018000F80FFFF80B586B000AFF860B9607A60C6
:102028003B601723FB1800221A70FB6824229B5C74
:10203800012B01D102236FE0FB682422012199546E
:10204800FB6825229B5CDBB2012B57D1FB6825225C
:1020580002219954FB680022DA63FB681B681A683E
:10206800FB681B6801218A431A603B687A68B96873
:10207800F86800F0E1F9FB681B6B002B08D0FB68DF
:102088001B681A68FB681B680E210A431A600FE078
:10209800FB681B681A68FB681B6804218A431A607E
:1020A800FB681B681A68FB681B680A210A431A60E8
:1020B800FB689B6C1A6880235B02134008D0FB689E
:1020C8009B6C1A68FB689B6C802149000A431A6064
:1020D800FB685B6D002B08D0FB685B6D1A68FB68BA
:1020E8005B6D802149000A431A60FB681B681A6807
:1020F800FB681B6801210A431A600AE0FB6880221A
:10210800DA63FB682422002199541723FB18012263
:102118001A701723FB181B781800BD4606B080BD3F
:1021280080B582B000AF78607B68002B01D10123B5
:102138004FE07B6825229B5CDBB2022B08D07B68D2
:102148000422DA637B68242200219954012340E0A9
:102158007B681B681A687B681B680E218A431A60B3
:102168007B689B6C1A687B689B6C1C490A401A60E8
:102178007B681B681A687B681B6801218A431A60A0
:102188007B685B6C1C221A407B681B6C01219140A8
:102198000A005A607B68DB6C7A68126D5A607B684B
:1021A8005B6D002B0CD07B685B6D1A687B685B6D80
:1021B8000A490A401A607B689B6D7A68D26D5A603A
:1021C8007B682522012199547B6824220021995497
:1021D80000231800BD4602B080BDC046FFFEFFFFC9
:1021E80080B584B000AF78600F217B1800221A7088
:1021F8007B6825229B5CDBB2022B06D07B6804221D
:10220800DA637B1801221A7048E07B681B681A6839
:102218007B681B680E218A431A607B681B681A68F2
:102228007B681B6801218A431A607B689B6C1A686B
:102238007B689B6C1D490A401A607B685B6C1C229A
:102248001A407B681B6C012191400A005A607B6828
:10225800DB6C7A68126D5A607B685B6D002B0CD062
:102268007B685B6D1A687B685B6D10490A401A6071
:102278007B689B6D7A68D26D5A607B682522012144
:1022880099547B682422002199547B689B6B002B0E
:1022980004D07B689B6B7A68100098470F23FB1863
:1022A8001B781800BD4604B080BDC046FFFEFFFF86
:1022B80080B584B000AF78607B681B6C1B68FB60DE
:1022C8007B681B681B68BB607B685B6C1C221340C7
:1022D80004229A401300FA68134026D0BB680422EF
:1022E800134022D07B681B681B682022134007D14B
:1022F8007B681B681A687B681B6804218A431A601C
:102308007B685B6C1C221A407B681B6C0421914023
:102318000A005A607B681B6B002B00D180E07B6849
:102328001B6B7A68100098477AE07B685B6C1C220C
:10233800134002229A401300FA6813403CD0BB684D
:102348000222134038D07B681B681B682022134088
:102358000BD17B681B681A687B681B680A218A4353
:102368001A607B682522012199547B681B681A0032
:102378002E4B9A4209D97B685B6C1C221A402C4B65
:10238800022191400A005A6008E07B685B6C1C22BD
:102398001A40284B022191400A005A607B68242287
:1023A800002199547B68DB6A002B39D07B68DB6A93
:1023B8007A681000984733E07B685B6C1C221340F6
:1023C80008229A401300FA6813402AD0BB680822F2
:1023D800134026D07B681B681A687B681B680E212F
:1023E8008A431A607B685B6C1C221A407B681B6CF2
:1023F800012191400A005A607B680122DA637B68F8
:102408002522012199547B682422002199547B6854
:102418005B6B002B05D07B685B6B7A681000984774
:10242800C046C046BD4604B080BDC04680000240DC
:10243800000402400000024080B584B000AFF8609C
:10244800B9607A603B60FB68DB6CFA68126D5A60B1
:10245800FB685B6D002B04D0FB689B6DFA68D26D3E
:102468005A60FB685B6C1C221A40FB681B6C0121DC
:1024780091400A005A60FB681B683A685A60FB681A
:102488009B68102B08D1FB681B687A689A60FB6808
:102498001B68BA68DA6007E0FB681B68BA689A606C
:1024A800FB681B687A68DA60C046BD4604B080BD28
:1024B80080B584B000AF78607B681B681A001D4B3C
:1024C8009A4214D87B685B6C9B089B001A4A9A183E
:1024D8007B689A647B681B681A00FF231340083BDB
:1024E80014211800FDF71AFE0300FB6014E07B6856
:1024F8005B6C9B089B00114A9A187B689A647B68FE
:102508001B681A00FF231340083B14211800FDF72D
:1025180005FE03000733FB607B68094ADA64FB6841
:102528001F22134001229A407B681A65C046BD46A7
:1025380004B080BD07040240000802401C080240A5
:102548008008024080B584B000AF78607B685B6823
:102558007F221340FB60FB680A4A944663449B0051
:102568001A007B685A657B68074A9A65FB68013BD5
:102578000322134001229A407B68DA65C046BD46B3
:1025880004B080BD3F82001040090240B0B586B05B
:1025980000AFF860B9603A607B60214B1B78012B73
:1025A80001D1022338E01E4B01221A701C4B002275
:1025B8005A6017257C19FA239B00180000F07AF856
:1025C800030023707B191B78002B1FD1FB68012B9C
:1025D80006D13A687B68B968080000F0B9F805E0E8
:1025E8003A68BB681100180003F0EEFF1723FC18C7
:1025F800FA239B00180000F05DF803002370094BD4
:102608005A69FB68D943074B0A405A61044B0022B8
:102618001A701723FB181B781800BD4606B0B0BD0A
:10262800340400200020024080B582B000AFFB1DBA
:1026380000221A700B4B5B69002B0CDA094B0A4A13
:102648009A60084B094A9A60064B5B69002B02DACC
:10265800FB1D01221A70FB1D1B781800BD4602B035
:1026680080BDC0460020024023016745AB89EFCDFD
:1026780080B582B000AFFB1D01221A70FA239B00BF
:10268800180000F017F80A4B5A69094B802109060F
:102698000A435A61064B5B69002B02DAFB1D0022D4
:1026A8001A70FB1D1B781800BD4602B080BDC046DD
:1026B8000020024080B584B000AF7860FFF7DCFAF4
:1026C8000300FB60C0239B02BB600CE07B68013306
:1026D80009D0FFF7D1FA0200FB68D31A7A689A4248
:1026E80001D8032328E0164B1B69BA681340EDD1C3
:1026F800134B1B69134A1340BB60114B124A1A61F2
:10270800BB68002B11D0114BBA685A60012313E043
:102718007B68013309D0FFF7AFFA0200FB68D31AD0
:102728007A689A4201D8032306E0054B1A69802388
:10273800DB021340ECD100231800BD4604B080BD75
:1027480000200240FA830000FB83080034040020C4
:10275800B0B584B000AFF8603A607B600B4B5A6943
:102768000A4B01210A435A61FB683A681A60BFF3B1
:102778006F8FC0467B681C0000231D00FB68043374
:1027880022001A60C046BD4604B0B0BD0020024019
:10279800B0B584B000AF78603960334B1B78012B3B
:1027A80001D102235CE0304B01221A702E4B00222B
:1027B8005A600F257C19FA239B001800FFF77AFF4F
:1027C800030023702C003B191B78002B42D17B6837
:1027D8001B68042B0DD17B685B68180000F048F873
:1027E8003C19FA239B001800FFF764FF03002370CD
:1027F80030E03B68012252421A607B689B68BB60EC
:102808001AE07B685B68BA681100180000F044F8A9
:102818000F257C19FA239B001800FFF74BFF0300D4
:1028280023707B191B78002B03D03B68BA681A60A9
:102838000AE0BB680133BB607B689A687B68DB6829
:10284800D318BA689A42DCD3084B5A69074B02215D
:102858008A435A61044B00221A700F23FB181B7815
:102868001800BD4604B0B0BD34040020002002406A
:1028780080B582B000AF7860064B5A697B681A430E
:10288800044B802149020A435A61C046BD4602B042
:1028980080BDC0460020024080B584B000AF78609B
:1028A80039600F4B5B690F4A1340FB607B68042B50
:1028B80005D0FB68802292011343FB6003E0FB68AC
:1028C800094A1340FB603B68DA00FB681A43044B73
:1028D80006490A435A61C046BD4604B080BDC04699
:1028E8000020024007E0FFFFFFDFFFFF02000100BA
:1028F80080B586B000AF7860396000237B614DE118
:102908003B681B6801217A6991400A001340FB600B
:10291800FB68002B00D13EE13B685B680322134053
:10292800012B05D03B685B6803221340022B30D192
:102938007B689B683B617B695B0003229A401300BC
:10294800DA433B6913403B613B68DA687B695B00AB
:102958009A4013003A6913433B617B683A699A606D
:102968007B685B683B6101227B699A401300DA430C
:102978003B6913403B613B685B681B0901221A40B5
:102988007B699A4013003A6913433B617B683A6953
:102998005A603B685B6803221340032B17D07B689F
:1029A800DB683B617B695B0003229A401300DA43D2
:1029B8003B6913403B613B689A687B695B009A40BE
:1029C80013003A6913433B617B683A69DA603B68F4
:1029D8005B6803221340022B23D17B69DA087B68EA
:1029E80008329200D3583B617B69072213409B0051
:1029F8000F229A401300DA433B6913403B613B685E
:102A08001A697B6907210B409B009A4013003A69B9
:102A180013433B617B69DA087B68083292003969A5
:102A2800D1507B681B683B617B695B0003229A403D
:102A38001300DA433B6913403B613B685B68032240
:102A48001A407B695B009A4013003A6913433B6163
:102A58007B683A691A603B685A68C0239B02134036
:102A680000D198E0534A7B699B0818339B009B5818
:102A78003B617B6903221340DB000F229A4013005D
:102A8800DA433B6913403B617A68A023DB059A422D
:102A980019D07B68484A934213D07B68474A9342CF
:102AA8000DD07B68464A934207D07B68454A9342DB
:102AB80001D1042308E0052306E0032304E00223F0
:102AC80002E0012300E000237A6903210A40D200D2
:102AD80093403A6913433B6136497B699B08183335
:102AE8009B003A695A50334B1B683B61FB68DA43D9
:102AF8003B6913403B613B685A6880235B03134082
:102B080003D03A69FB6813433B612A4B3A691A6060
:102B1800284B5B683B61FB68DA433B6913403B61C8
:102B28003B685A6880239B03134003D03A69FB68CB
:102B380013433B611F4B3A695A601E4A8423D3589A
:102B48003B61FB68DA433B6913403B613B685A6869
:102B580080239B02134003D03A69FB6813433B610F
:102B6800144984223B698B50124A8023D3583B6115
:102B7800FB68DA433B6913403B613B685A68802332
:102B88005B02134003D03A69FB6813433B61094970
:102B980080223B698B507B6901337B613B681A68F3
:102BA8007B69DA40131E00D0AAE6C046C046BD467F
:102BB80006B080BD00180240000400500008005014
:102BC800000C00500010005080B582B000AF786053
:102BD80008001100BB1C021C1A807B1C0A1C1A70FE
:102BE8007B1C1B78002B04D0BB1C1A887B689A615D
:102BF80003E0BB1C1A887B689A62C046BD4602B0D7
:102C080080BD000080B584B000AF7860194B1B68A8
:102C1800194A13401900174B7A680A431A607A68F0
:102C280080239B009A421FD1144B1A6813005B0043
:102C38009B185B0012491800FDF770FA0300013376
:102C4800FB6008E0FB68002B03D0FB68013BFB60DE
:102C580001E0032309E0074B5A698023DB001A408F
:102C68008023DB009A42EDD000231800BD4604B053
:102C780080BDC04600700040FFF9FFFF0000002043
:102C880040420F0080B500AF034B9A68E023DB0198
:102C980013401800BD4680BD0010024080B588B0C2
:102CA80000AF78607B68002B01D10123FEE27B68CE
:102CB8001B680122134000D17CE0C34B9B6838227B
:102CC8001340BB61C04BDB68032213407B61BB69C7
:102CD800102B02D17B69032B02D0BB69082B0BD1C7
:102CE800B94B1A6880239B02134062D07B685B68EB
:102CF800002B5ED10123D9E27B685A6880235B02EE
:102D08009A4207D1B04B1A68AF4B802149020A4357
:102D18001A6020E07B685A68A023DB029A420ED131
:102D2800A94B1A68A84B8021C9020A431A60A64B0E
:102D38001A68A54B802149020A431A600BE0A24B8E
:102D48001A68A14BA1490A401A609F4B1A689E4B0A
:102D58009F490A401A607B685B68002B14D0FEF715
:102D68008BFF03003B6108E0FEF786FF02003B692A
:102D7800D31A642B01D9032398E2934B1A68802352
:102D88009B021340F0D015E0FEF776FF03003B618D
:102D980008E0FEF771FF02003B69D31A642B01D9E2
:102DA800032383E2884B1A6880239B021340F0D1E7
:102DB80000E0C0467B681B680222134000D199E0FE
:102DC800814B9B6838221340BB617F4BDB68032231
:102DD80013407B61BB69102B02D17B69022B02D0A7
:102DE800BB69002B35D1784B1A688023DB00134070
:102DF80005D07B68DB68002B01D1012356E2724BBA
:102E08005B68744A134019007B685B691A026E4B51
:102E18000A435A60BB69002B12D16B4B1B686E4A80
:102E2800134019007B681A69674B0A431A60664B9E
:102E38001B68DB0A07221340684ADA40684B1A60AD
:102E4800684B1B681800FEF7BBFE031E51D0012318
:102E58002CE27B68DB68002B30D05B4B1B685E4A3A
:102E6800134019007B681A69574B0A431A60564B7E
:102E78001A68554B802149000A431A60FEF7FCFE88
:102E880003003B6108E0FEF7F7FE02003B69D31A36
:102E9800022B01D9032309E24B4B1A688023DB007C
:102EA8001340F0D0484B5B684A4A134019007B68CE
:102EB8005B691A02444B0A435A601BE0424B1A688A
:102EC800414B49490A401A60FEF7D6FE03003B61B0
:102ED80008E0FEF7D1FE02003B69D31A022B01D9A4
:102EE8000323E3E1384B1A688023DB001340F0D159
:102EF80000E0C0467B681B680822134047D0324B6D
:102F08009B6838221340182B0AD12F4B1B6E0222C4
:102F180013403CD07B689B69002B38D10123C5E165
:102F28007B689B69002B19D0274B1A6E264B012111
:102F38000A431A66FEF7A0FE03003B6108E0FEF7AD
:102F48009BFE02003B69D31A022B01D90323ADE192
:102F58001D4B1B6E02221340F1D018E01A4B1A6E5B
:102F6800194B01218A431A66FEF786FE03003B616E
:102F780008E0FEF781FE02003B69D31A022B01D953
:102F8800032393E1104B1B6E02221340F1D17B689F
:102F98001B680422134000D1C6E01F23FB1800223F
:102FA8001A70094B9B6838221340202B1ED1064B00
:102FB800DB6D0222134000D1B6E07B689B68002BD2
:102FC80000D0B1E0012371E100100240FFFFFEFFD5
:102FD800FFFFFBFFFF80FFFFFFC7FFFF0024F40098
:102FE8000000002004000020FFFEFFFFB14BDA6B59
:102FF80080235B05134001D1012300E00023002B4F
:1030080011D0AC4BDA6BAB4B802149050A43DA632C
:10301800A84BDA6B80235B051340FB60FB681F231A
:10302800FB1801221A70A44B1A6880235B00134016
:103038001AD1A14B1A68A04B802149000A431A6093
:10304800FEF71AFE03003B6108E0FEF715FE0200DA
:103058003B69D31A022B01D9032327E1964B1A683F
:1030680080235B001340F0D07B689B68012B06D15E
:10307800904BDA6D8F4B01210A43DA651CE07B68BF
:103088009B68052B0CD18B4BDA6D8A4B04210A43C4
:10309800DA65884BDA6D874B01210A43DA650BE064
:1030A800844BDA6D834B01218A43DA65814BDA6DF3
:1030B800804B04218A43DA657B689B68002B14D017
:1030C800FEF7DAFD03003B6109E0FEF7D5FD0200DB
:1030D8003B69D31A794A934201D90323E6E0754B39
:1030E800DB6D02221340F0D013E0FEF7C5FD0300AC
:1030F8003B6109E0FEF7C0FD02003B69D31A6F4A45
:10310800934201D90323D1E06A4BDB6D02221340BD
:10311800F0D11F23FB181B78012B05D1654BDA6B07
:10312800644B67490A40DA637B68DB69002B00D18E
:10313800BBE0604B9B6838221340102B00D17BE02A
:103148007B68DB69022B56D15A4B1A68594B5D498B
:103158000A401A60FEF790FD03003B6108E0FEF7A5
:103168008BFD02003B69D31A022B01D903239DE092
:10317800504B1A6880239B041340F0D14D4BDB68F9
:10318800514A134019007B681A6A7B685B6A1A43C4
:103198007B689B6A1B021A437B68DB6A1A437B685D
:1031A8001B6B1A437B685B6B1A43424B0A43DA601A
:1031B800404B1A683F4B802149040A431A603D4B33
:1031C800DA683C4B802149050A43DA60FEF754FD72
:1031D80003003B6108E0FEF74FFD02003B69D31A8C
:1031E800022B01D9032361E0324B1A6880239B0428
:1031F8001340F0D059E02F4B1A682E4B31490A4042
:103208001A60FEF739FD03003B6108E0FEF734FD64
:1032180002003B69D31A022B01D9032346E0254B50
:103228001A6880239B041340F0D1224BDA68214BA3
:1032380026490A40DA6038E07B68DB69012B01D156
:10324800012333E01B4BDB687B617B6903221A4057
:103258007B681B6A9A4226D17B6970221A407B6878
:103268005B6A9A421FD17A69FE23DB011A407B68A8
:103278009B6A1B029A4216D17A69F8239B031A406B
:103288007B68DB6A9A420ED17A69E0231B051A40F3
:103298007B681B6B9A4206D17B695B0F5A077B6878
:1032A8005B6B9A4201D0012300E000231800BD4661
:1032B80008B080BD00100240007000408813000074
:1032C800FFFFFFEFFFFFFFFE8C80C111FCFFFEEE4A
:1032D80080B584B000AF786039607B68002B01D17D
:1032E8000123E9E0764B1B68072213403A689A42AB
:1032F8001ED9734B1B68072293431900704B3A6819
:103308000A431A60FEF7B8FC0300FB6009E0FEF709
:10331800B3FC0200FB68D31A6A4A934201D903231B
:10332800CAE0674B1B68072213403A689A42EED1FD
:103338007B681B680222134015D07B681B68042237
:10334800134006D0604B9A685F4BE021C9010A43DD
:103358009A605D4B9B685D4A134019007B689A68C8
:10336800594B0A439A607B681B680122134057D067
:103378007B685B68012B07D1534B1A6880239B023B
:1033880013402BD1012397E07B685B68022B07D1A0
:103398004D4B1A6880239B0413401FD101238BE0F7
:1033A8007B685B68002B07D1474B1A688023DB00DA
:1033B800134013D101237FE07B685B68032B06D1A0
:1033C800414B1B6E0222134008D1012374E03E4B8F
:1033D800DB6D0222134001D101236DE03A4B9B685B
:1033E8000722934319007B685A68374B0A439A604F
:1033F800FEF742FC0300FB6009E0FEF73DFC02001B
:10340800FB68D31A2F4A934201D9032354E02E4B69
:103418009B6838221A407B685B68DB009A42ECD1D3
:10342800274B1B68072213403A689A421ED2244B46
:103438001B68072293431900214B3A680A431A6014
:10344800FEF71AFC0300FB6009E0FEF715FC02001A
:10345800FB68D31A1B4A934201D903232CE0184B6B
:103468001B68072213403A689A42EED17B681B68B2
:103478000422134009D0144B9B68154A13401900C5
:103488007B68DA68104B0A439A6000F029F801005B
:103498000D4B9B681B0A0F221A400E4B9200D35803
:1034A8001F2213400A00DA400B4B1A600B4B1B68B3
:1034B8001800FEF785FB03001800BD4604B080BD68
:1034C800002002408813000000100240FFF0FFFFB8
:1034D800FF8FFFFFB06700080000002004000020F5
:1034E80080B586B000AF3C4B9B68382213400FD1A3
:1034F800394B1B68DB0A0722134001229A4013004C
:103508003B6039683548FCF709FE03003B615DE024
:10351800314B9B6838221340082B02D1304B3B615A
:1035280054E02D4B9B6838221340102B38D12A4B7E
:10353800DB6803221340FB60274BDB681B0907226B
:1035480013400133BB60FB68032B0DD1B9682448D5
:10355800FCF7E4FD030019001F4BDB681B0A7F2200
:1035680013404B437B610DE0B9681C48FCF7D6FD5E
:1035780003001900184BDB681B0A7F2213404B43DA
:103588007B61C046144BDB685B0F07221340013395
:103598007B6079687869FCF7C1FD03003B6115E041
:1035A8000D4B9B6838221340202B03D180231B022C
:1035B8003B610BE0084B9B6838221340182B03D162
:1035C800FA23DB013B6101E000233B613B69180002
:1035D800BD4606B080BDC046001002400024F4007D
:1035E80000127A0080B500AF024B1B681800BD4678
:1035F80080BDC04600000020B0B500AFFFF7F2FF65
:103608000400FFF73FFB03001A0B054B9200D35849
:103618001F221340DC4023001800BD46B0BDC04641
:10362800F067000880B586B000AF78601323FB18F8
:1036380000221A701223FB1800221A707B681A687D
:1036480080239B02134000D1A3E011203B180022E5
:103658001A70B04BDA6B80235B05134010D1AD4B69
:10366800DA6BAC4B802149050A43DA63A94BDA6B64
:1036780080235B051340BB60BB683B1801221A70AE
:10368800A54B1A68A44B802149000A431A60FEF72B
:10369800F3FA0300FB600BE0FEF7EEFA0200FB68AA
:1036A800D31A022B04D91323FB1803221A7005E03E
:1036B800994B1A6880235B001340EDD01323FB1845
:1036C8001B78002B54D1934BDA6DC0239B00134019
:1036D8007B617B69002B19D07B685B6A7A699A42A7
:1036E80014D08C4BDB6D8D4A13407B61894BDA6DAE
:1036F800884B802149020A43DA65864BDA6D854B8F
:1037080087490A40DA65834B7A69DA657B69012261
:10371800134016D0FEF7B0FA0300FB600CE0FEF78A
:10372800ABFA0200FB68D31A7E4A934204D91323EA
:10373800FB1803221A7004E0764BDB6D022213405B
:10374800EDD01323FB181B78002B0AD1714BDB6DCE
:10375800724A134019007B685A6A6E4B0A43DA654D
:103768000CE01223FB181322BA1812781A7005E01D
:103778001223FB181322BA1812781A701123FB1897
:103788001B78012B05D1634BDA6B624B66490A4003
:10379800DA637B681B680122134009D05D4B5B6DBF
:1037A8000322934319007B685A685A4B0A435A65A7
:1037B8007B681B680222134009D0564B5B6D0C22B4
:1037C800934319007B689A68524B0A435A657B6891
:1037D8001B680422134009D04E4B5B6D3022934383
:1037E80019007B68DA684B4B0A435A657B681B688B
:1037F8002022134009D0474B5B6D4C4A13401900F7
:103808007B681A69434B0A435A657B681B684022E8
:10381800134009D03F4B5B6D454A134019007B6844
:103828005A693C4B0A435A657B681A688023DB0156
:10383800134015D0374B5B6D9B0099087B681A6A5B
:10384800344B0A435A657B681A6A8023DB059A421F
:1038580006D1304BDA682F4B802149020A43DA60DF
:103868007B681A6880231B01134014D0294B9B6D79
:103878000322934319007B689A69264B0A439A6589
:103888007B689B69012B06D1224BDA68214B80218A
:1038980049020A43DA607B681A6880239B01134057
:1038A80014D01C4B9B6D0C22934319007B68DA697A
:1038B800184B0A439A657B68DB69042B06D1154BC4
:1038C800DA68144B802149020A43DA607B681A6877
:1038D80080235B04134016D00E4B9B6D134A134094
:1038E80019007B689A6A0B4B0A439A657B689A6A47
:1038F80080239B019A4206D1064BDA68054B80214A
:1039080049040A43DA601223FB181B781800BD46E5
:1039180006B080BD0010024000700040FFFCFFFFB1
:10392800FFFFFEFF88130000FFFFFFEFFFCFFFFF41
:10393800FF3FFFFF80B582B000AF78607B68002B47
:1039480001D1012346E07B6888229B58002B07D1D0
:103958007B688422002199547B681800FDF784FF56
:103968007B688822242199507B681B681A687B68C9
:103978001B6801218A431A607B689B6A002B03D06D
:103988007B68180000F0D6FE7B68180000F0F0FC99
:103998000300012B01D101231CE07B681B685A68D6
:1039A8007B681B680D490A405A607B681B689A68E7
:1039B8007B681B682A218A439A607B681B681A689F
:1039C8007B681B6801210A431A607B68180000F0B5
:1039D80065FF03001800BD4602B080BDFFB7FFFFBA
:1039E80080B58AB002AFF860B9603B60BB1D1A8031
:1039F800FB6888229B58202B00D090E0BB68002BE6
:103A080003D0BB1D1B88002B01D1012388E0FB6874
:103A18009A6880235B019A4209D1FB681B69002BD5
:103A280005D1BB680122134001D0012378E0FB686F
:103A3800902200219950FB68882221219950FEF795
:103A48001BF903007B61FB68BA1D542112885A5286
:103A5800FB68BA1D562112885A52FB689A6880235F
:103A68005B019A4208D1FB681B69002B04D1002333
:103A7800FB61BB68BB6103E0BB68FB610023BB6102
:103A880030E07A69F8683B680093130000228021CF
:103A980000F0AEFF031E05D0FB6888222021995054
:103AA80003233DE0FB69002B0BD1BB691B881A007F
:103AB800FB681B68D205D20D9A62BB690233BB61F1
:103AC80007E0FB691A78FB681B689A62FB69013397
:103AD800FB61FB6856229B5A9BB2013B99B2FB687B
:103AE80056229952FB6856229B5A9BB2002BC8D18A
:103AF8007A69F8683B68009313000022402100F0BF
:103B080077FF031E05D0FB688822202199500323E4
:103B180006E0FB68882220219950002300E0022358
:103B28001800BD4608B080BD80B588B000AFF86009
:103B3800B960BB1D1A80FB688C229B58202B45D18D
:103B4800BB68002B03D0BB1D1B88002B01D10123B0
:103B58003DE0FB689A6880235B019A4209D1FB68C3
:103B68001B69002B05D1BB680122134001D001233A
:103B78002DE0FB680022DA66FB681B685A68802320
:103B88001B04134019D0EFF310833B613B69FB61C1
:103B980001237B617B6983F31088C046FB681B683F
:103BA8001A68FB681B688021C9040A431A60FB690C
:103BB800BB61BB6983F31088C046BB1D1A88B9680E
:103BC800FB68180000F084FF030000E002231800DF
:103BD800BD4608B080BD000080B588B000AFF86071
:103BE800B960BB1D1A80FB6888229B58202B00D027
:103BF80079E0BB68002B03D0BB1D1B88002B01D1CB
:103C0800012371E0FB689A6880235B019A4209D11D
:103C1800FB681B69002B05D1BB680122134001D04A
:103C2800012361E0FB68BA681A65FB68BA1D542174
:103C380012885A52FB68BA1D562112885A52FB68DC
:103C4800902200219950FB68882221219950FB6815
:103C5800DB6F002B28D0FB68DB6F254ADA62FB6834
:103C6800DB6F244A1A63FB68DB6F234A5A63FB68DD
:103C7800DB6F00229A63FB68D86FFB681B6D190025
:103C8800FB681B6828331A00BB1D1B88FEF7C2F9A6
:103C9800031E09D0FB68902210219950FB688822E6
:103CA8002021995001231FE0FB681B6840221A62FB
:103CB800EFF310833B613B69FB6101237B617B6907
:103CC80083F31088C046FB681B689A68FB681B680A
:103CD80080210A439A60FB69BB61BB6983F3108842
:103CE800C046002300E002231800BD4608B080BD8E
:103CF8006D4E0008054F0008234F0008B0B5AAB064
:103D080000AF78607B681B68DB69A422B9180B6078
:103D18007B681B681B68A02039180B607B681B68D0
:103D28009B689C2439190B601100BB181B68A24AB8
:103D380013409822BD182B60BB181B68002B1AD1A2
:103D48007B181B682022134015D03B181B682022C3
:103D5800134005D13B191A6880235B0513400AD02C
:103D68007B685B6F002B00D1DCE27B685B6F7A6855
:103D780010009847D6E29823FB181B68002B00D147
:103D880022E19C23FB181B688C4A134006D1A02310
:103D9800FB181B688A4A134000D115E1A423FB18BD
:103DA8001B680122134012D0A023FB181A68802335
:103DB8005B0013400BD07B681B6801221A627B688A
:103DC80090229B5801221A437B6890215A50A423C1
:103DD800FB181B680222134011D09C23FB181B6898
:103DE800012213400BD07B681B6802221A627B6891
:103DF80090229B5804221A437B6890215A50A4238E
:103E0800FB181B680422134011D09C23FB181B6865
:103E1800012213400BD07B681B6804221A627B685E
:103E280090229B5802221A437B6890215A50A4235F
:103E3800FB181B680822134017D0A023FB181B6827
:103E48002022134005D19C23FB181B685B4A1340B2
:103E58000BD07B681B6808221A627B6890229B58EB
:103E680008221A437B6890215A50A423FB181A6829
:103E780080231B01134013D0A023FB181A6880234A
:103E8800DB0413400CD07B681B68802212011A6285
:103E98007B6890229B5820221A437B6890215A50B5
:103EA8007B6890229B58002B00D13DE2A423FB188D
:103EB8001B682022134015D0A023FB181B68202262
:103EC800134006D19C23FB181A6880235B05134016
:103ED80008D07B685B6F002B04D07B685B6F7A68C7
:103EE800100098477B6890229B5894217A18136099
:103EF8007B681B689B6840221340402B04D07B18CA
:103F08001B68282213404CD07B68180000F044FF3F
:103F18007B681B689B6840221340402B3CD1EFF321
:103F280010833B663B6E90203A18136001237B6632
:103F38007B6E83F31088C0467B681B689A687B6831
:103F48001B6840218A439A603B181B68BB66BB6E9E
:103F580083F31088C0467B6880229B58002B16D0BC
:103F68007B6880229B58174A9A637B6880229B58FB
:103F78001800FEF735F9031E1CD07B6880229B5879
:103F88009B6B7A68802152581000984712E07B6832
:103F98001800FCF727FB0DE07B681800FCF722FBF4
:103FA80008E07B681800FCF71DFB7B689022002165
:103FB8009950B9E1C046B7E10F08000001000010B0
:103FC80020010004A94F00087B68DB6E012B00D09C
:103FD8003EE1A423FB181B681022134000D137E1EF
:103FE800A023FB181B681022134000D130E17B6826
:103FF8001B6810221A627B681B689B68402213406A
:10400800402B00D0A4E07B6880229B581B685A682C
:104018007E217B181A807B181B88002B00D185E134
:104028007B685C229B5A7A1812889A4200D37DE1F9
:104038007B687A185E2112885A527B6880229B58C6
:104048001B681B682022134070D1EFF310833B6379
:104058003B6BBB6701237B637B6B83F31088C04694
:104068007B681B681A687B681B68B4490A401A6039
:10407800BB6FBB63BB6B83F31088C046EFF3108341
:10408800FB63FB6B7B6701233B643B6C83F310880A
:10409800C0467B681B689A687B681B6801218A4355
:1040A8009A607B6F7B647B6C83F31088C046EFF368
:1040B8001083BB64BB6C3B670123FB64FB6C83F31D
:1040C8001088C0467B681B689A687B681B6840211B
:1040D8008A439A603B6F3B653B6D83F31088C0460B
:1040E8007B688C22202199507B680022DA66EFF3E6
:1040F80010837B657B6DFB660123BB65BB6D83F31A
:104108001088C0467B681B681A687B681B6810218A
:104118008A431A60FB6EFB65FB6D83F31088C0460B
:104128007B6880229B581800FDF7FAFF7B68022203
:104138001A677B685C229A5A7B685E215B5A9BB23D
:10414800D31A9AB27B681100180000F005F9EDE067
:104158007B685C22995A7B685E229B5A9AB28E20B1
:104168003B188A1A1A807B685E229B5A9BB2002BE6
:1041780000D1DDE03B181B88002B00D1D8E0EFF31D
:104188001083FB60FB6888243A19136001233B61A4
:104198003B6983F31088C0467B681B681A687B6894
:1041A8001B6867490A401A603B191B687B617B6979
:1041B80083F31088C046EFF31083BB61BB69842486
:1041C8003A1913600123FB61FB6983F31088C04629
:1041D8007B681B689A687B681B685A490A409A6022
:1041E8003B191B683B623B6A83F31088C0467B68B7
:1041F8008C22202199507B680022DA667B68002295
:104208005A67EFF310837B627B6A80243A19136044
:104218000123BB62BB6A83F31088C0467B681B68B6
:104228001A687B681B6810218A431A603B191B684F
:10423800FB62FB6A83F31088C0467B6802221A6718
:104248003B181A887B681100180000F085F86FE0A9
:10425800A423FB181A6880235B03134010D09C2307
:10426800FB181A688023DB03134009D07B681B689E
:10427800802252031A627B68180001F0C9FB5AE0D9
:10428800A423FB181B688022134016D0A023FB1818
:104298001B688022134006D19C23FB181A688023D0
:1042A8001B04134009D07B689B6F002B42D07B68AE
:1042B8009B6F7A68100098473CE0A423FB181B68A2
:1042C800402213400AD0A023FB181B684022134049
:1042D80004D07B68180000F07AFE2CE0A423FB18B9
:1042E8001A6880231B0413400BD0A023FB181A68FC
:1042F8008023DB05134004D07B68180001F098FB8D
:1043080019E0A423FB181A6880235B04134012D019
:10431800A023FB181B68002B0DDA7B68180001F03E
:104328007FFB08E0C04606E0C04604E0C04602E065
:10433800C04600E0C046BD462AB0B0BDFFFEFFFF44
:10434800DFFEFFFFFEFFFFEF80B582B000AF7860B1
:10435800C046BD4602B080BD80B582B000AF78606F
:104368000A00BB1C1A80C046BD4602B080BD0000D2
:1043780080B588B000AF78601B23FB1800221A7044
:104388007B689A687B681B691A437B685B691A4378
:104398007B68DB691343FB617B681B681B68B44A55
:1043A800134019007B681B68FA690A431A607B6826
:1043B8001B685B68AF4A134019007B68DA687B6842
:1043C8001B680A435A607B689B69FB617B681B6AB0
:1043D800FA691343FB617B681B689B68A64A134014
:1043E80019007B681B68FA690A439A607B681B6836
:1043F800DB6A0F22934319007B685A6A7B681B6843
:104408000A43DA627B681B689C4A934227D19C4B1B
:104418005B6D03221340032B17D01BD8022B0AD045
:1044280018D8002B02D0012B0AD013E01A23FB184E
:1044380000221A708FE01A23FB1802221A708AE0F1
:104448001A23FB1804221A7085E01A23FB18082285
:104458001A7080E01A23FB1810221A707BE07B6820
:104468001B68884A934227D1854B5B6D0C22134009
:104478000C2B17D01BD8082B0AD018D8002B02D029
:10448800042B0AD013E01A23FB1800221A7062E0EA
:104498001A23FB1802221A705DE01A23FB18042263
:1044A8001A7058E01A23FB1808221A7053E01A23CE
:1044B800FB1810221A704EE07B681B68724A934200
:1044C80027D16F4B5B6D30221340302B17D01BD890
:1044D800202B0AD018D8002B02D0102B0AD013E0BA
:1044E8001A23FB1800221A7035E01A23FB1802223F
:1044F8001A7030E01A23FB1804221A702BE01A23D2
:10450800FB1808221A7026E01A23FB1810221A70CA
:1045180021E07B681B685D4A934204D11A23FB188B
:1045280000221A7017E07B681B68594A934204D12D
:104538001A23FB1800221A700DE07B681B68554A85
:10454800934204D11A23FB1800221A7003E01A239D
:10455800FB1810221A707B68DA6980231B029A42C2
:1045680000D065E01A23FB181B78082B15D018DC3F
:10457800042B0DD015DC002B02D0022B05D010E047
:10458800FFF73AF803007B6112E0434B7B610FE0D1
:10459800FEF7A6FF03007B610AE080231B027B6114
:1045A80006E000237B611B23FB1801221A70C0461A
:1045B8007B69002B00D1A6E07B685A6A374B520012
:1045C800D35A19007869FBF7A9FD03005A007B68E4
:1045D8005B685B08D2187B685B6819001000FBF702
:1045E8009DFD03003B613B690F2B1CD93A69802371
:1045F8005B029A4217D23B699AB20E203B180F21F0
:104608008A431A803B695B089BB20722134099B220
:104618003B183A1812880A431A807B681B683A18B4
:104628001288DA606FE01B23FB1801221A706AE017
:104638001A23FB181B78082B15D031DC042B0DD05E
:104648002EDC002B02D0022B05D029E0FEF7D4FF88
:1046580003007B612BE0104B7B6128E0FEF740FFF5
:1046680003007B6123E080231B027B611FE0C046BF
:10467800F369FFCFFFCFFFFFFFF4FF1100380140C0
:10468800001002400044004000480040004C004038
:1046980000500040003C01400024F400106800086D
:1046A80000237B611B23FB1801221A70C0467B691B
:1046B800002B28D07B685A6A1D4B5200D35A190028
:1046C8007869FBF72BFD03001A007B685B685B08C1
:1046D800D2187B685B6819001000FBF71FFD030008
:1046E8003B613B690F2B0AD93A6980235B029A42E6
:1046F80005D23B699AB27B681B68DA6003E01B232A
:10470800FB1801221A707B686A22012199527B6882
:104718006822012199527B6800225A677B6800222F
:104728009A671B23FB181B781800BD4608B080BD8C
:104738001068000880B582B000AF78607B689B6A1B
:10474800082213400BD07B681B685B684A4A1340F9
:1047580019007B689A6B7B681B680A435A607B6800
:104768009B6A012213400BD07B681B685B68434A35
:10477800134019007B68DA6A7B681B680A435A6031
:104788007B689B6A022213400BD07B681B685B68BE
:104798003B4A134019007B681A6B7B681B680A4305
:1047A8005A607B689B6A042213400BD07B681B68A5
:1047B8005B68344A134019007B685A6B7B681B6836
:1047C8000A435A607B689B6A102213400BD07B68AF
:1047D8001B689B682C4A134019007B68DA6B7B685E
:1047E8001B680A439A607B689B6A202213400BD09F
:1047F8007B681B689B68254A134019007B681A6C04
:104808007B681B680A439A607B689B6A4022134056
:104818001DD07B681B685B681D4A134019007B68C4
:104828005A6C7B681B680A435A607B685A6C802301
:104838005B039A420BD17B681B685B68154A13407F
:1048480019007B689A6C7B681B680A435A607B680E
:104858009B6A802213400BD07B681B685B680E4AFA
:10486800134019007B68DA6C7B681B680A435A603E
:10487800C046BD4602B080BDFF7FFFFFFFFFFDFFC2
:10488800FFFFFEFFFFFFFBFFFFEFFFFFFFDFFFFF65
:10489800FFFFEFFFFFFF9FFFFFFFF7FF80B592B01D
:1048A80002AF78607B68902200219950FDF7E4F907
:1048B8000300FB637B681B681B6808221340082BF6
:1048C8002DD1FB6B802291037868474A0092002221
:1048D80000F08EF8031E22D0EFF310837B627B6A10
:1048E800BB630123BB62BB6A83F31088C0467B6845
:1048F8001B681A687B681B6880218A431A60BB6B37
:10490800FB62FB6A83F31088C0467B6888222021FB
:1049180099507B68842200219954032360E07B68C6
:104928001B681B6804221340042B46D1FB6B8022B2
:10493800D10378682C4A0092002200F059F8031E2F
:104948003BD0EFF31083FB60FB687B6301233B6183
:104958003B6983F31088C0467B681B681A687B68CC
:104968001B6822490A401A607B6B7B617B6983F371
:104978001088C046EFF31083BB61BB693B6301231A
:10498800FB61FB6983F31088C0467B681B689A68E3
:104998007B681B6801218A439A603B6B3B623B6AD8
:1049A80083F31088C0467B688C22202199507B684D
:1049B800842200219954032312E07B688822202155
:1049C80099507B688C22202199507B680022DA66F6
:1049D8007B6800221A677B6884220021995400238F
:1049E8001800BD4610B080BDFFFFFF01DFFEFFFFCE
:1049F80080B584B000AFF860B9603B60FB1D1A70E9
:104A080051E0BB6901334ED0FDF736F902003B682F
:104A1800D31ABA699A4202D3BB69002B01D1032386
:104A280051E0FB681B681B68042213403BD0BB683D
:104A3800802B38D0BB68402B35D0FB681B68DB69FE
:104A480008221340082B11D1FB681B6808221A6240
:104A5800FB68180000F0A0F9FB6890220821995023
:104A6800FB6884220021995401232CE0FB681B6811
:104A7800DA6980231B011A4080231B019A4212D154
:104A8800FB681B68802212011A62FB68180000F09C
:104A980083F9FB68902220219950FB688422002129
:104AA800995403230FE0FB681B68DB69BA6813405D
:104AB800BA68D31A5A425341DBB21A00FB1D1B785D
:104AC8009A429ED000231800BD4604B080BD000065
:104AD80080B598B000AFF860B960BB1D1A80FB685C
:104AE800BA689A65FB68BA1D5C2112885A52FB683D
:104AF800BA1D5E2112885A52FB6800225A67FB6869
:104B08009A6880235B019A420DD1FB681B69002BD0
:104B180004D1FB6860227B4999522EE0FB68602231
:104B2800FF21995229E0FB689B68002B0DD1FB6897
:104B38001B69002B04D1FB686022FF2199521CE0FD
:104B4800FB6860227F21995217E0FB689A688023EE
:104B58005B059A420DD1FB681B69002B04D1FB68E9
:104B680060227F21995208E0FB6860223F21995218
:104B780003E0FB68602200219952FB689022002123
:104B88009950FB688C2222219950EFF310833B64E3
:104B98003B6CFB6501237B647B6C83F31088C04608
:104BA800FB681B689A68FB681B6801210A439A60C6
:104BB800FB6DBB64BB6C83F31088C046FB685A6E00
:104BC80080239B059A4250D1FB6868229B5ABA1DE4
:104BD80012889A4249D3FB689A6880235B019A42FB
:104BE80007D1FB681B69002B03D1FB68464A5A674B
:104BF80002E0FB68454A5A67FB681B69002B19D01D
:104C0800EFF310837B637B6BBB650123BB63BB6BDB
:104C180083F31088C046FB681B681A68FB681B682A
:104C2800802149000A431A60BB6DFB63FB6B83F369
:104C38001088C046EFF31083BB62BB6A7B65012313
:104C4800FB62FB6A83F31088C046FB681B689A689E
:104C5800FB681B68802149050A439A607B6D3B63AA
:104C68003B6B83F31088C04647E0FB689A68802353
:104C78005B019A4207D1FB681B69002B03D1FB68D3
:104C8800234A5A6702E0FB68224A5A67FB681B6995
:104C9800002B19D0EFF31083FB61FB69FB64012340
:104CA8003B623B6A83F31088C046FB681B681A683E
:104CB800FB681B68902149000A431A60FB6C7B6201
:104CC8007B6A83F3108818E0EFF310833B613B693C
:104CD8003B6501237B617B6983F31088C046FB68D1
:104CE8001B681A68FB681B6820210A431A603B6D21
:104CF800BB61BB6983F31088C04600231800BD461A
:104D080018B080BDFF010000D1560008A15300086B
:104D1800E95100083150000880B58AB000AF7860CA
:104D2800EFF31083BB60BB687B620123FB60FB6809
:104D380083F31088C0467B681B681A687B681B6809
:104D4800C0218A431A607B6A3B613B6983F3108800
:104D5800C046EFF310837B617B693B620123BB6133
:104D6800BB6983F31088C0467B681B689A687B68B8
:104D78001B6808490A409A603B6AFB61FB6983F338
:104D88001088C0467B68882220219950C046BD46BD
:104D98000AB080BDFFFF7FFF80B58EB000AF78609E
:104DA800EFF310837B617B697B630123BB61BB6984
:104DB80083F31088C0467B681B681A687B681B6889
:104DC80026490A401A607B6BFB61FB6983F31088F4
:104DD800C046EFF310833B623B6A3B6301237B626F
:104DE8007B6A83F31088C0467B681B689A687B6877
:104DF8001B681B490A409A603B6BBB62BB6A83F322
:104E08001088C0467B68DB6E012B18D1EFF3108346
:104E1800BB60BB68FB620123FB60FB6883F31088FF
:104E2800C0467B681B681A687B681B6810218A4328
:104E38001A60FB6A3B613B6983F31088C0467B6854
:104E48008C22202199507B680022DA667B68002238
:104E58005A67C046BD460EB080BDC046DFFEFFFFA4
:104E6800FEFFFFEF80B58CB000AF78607B689B6A6F
:104E7800FB627B681B681B682022134035D1FB6AE4
:104E8800562200219952EFF31083FB60FB68BB6246
:104E980001233B613B6983F31088C046FB6A1B68AA
:104EA8009A68FB6A1B6880218A439A60BB6A7B61A7
:104EB8007B6983F31088C046EFF31083BB61BB693D
:104EC8007B620123FB61FB6983F31088C046FB6AA0
:104ED8001B681A68FB6A1B6840210A431A607B6AD0
:104EE8003B623B6A83F3108804E0FB6A1800FBF717
:104EF80065FBC046C046BD460CB080BD80B584B0D9
:104F080000AF78607B689B6AFB60FB681800FFF75E
:104F18001BFAC046BD4604B080BD80B586B000AF60
:104F280078607B689B6A7B617B6988229B583B61C0
:104F38007B698C229B58FB607B691B689B6880227D
:104F48001340802B0AD13B69212B07D17B6956225C
:104F5800002199527B691800FFF7DEFE7B691B6808
:104F68009B6840221340402B0AD1FB68222B07D1B3
:104F78007B695E22002199527B691800FFF70CFFBC
:104F88007B6990229B5810221A437B6990215A50C2
:104F98007B691800FBF726FBC046BD4606B080BDFE
:104FA80080B584B000AF78607B689B6AFB60FB6863
:104FB8005E2200219952FB68562200219952FB6813
:104FC8001800FBF70FFBC046BD4604B080BD80B596
:104FD80086B000AF7860EFF31083BB60BB687B617D
:104FE8000123FB60FB6883F31088C0467B681B685D
:104FF8001A687B681B6840218A431A607B693B6199
:105008003B6983F31088C0467B6888222021995029
:105018007B6800229A677B681800FBF7CFFAC046C6
:10502800BD4606B080BD000080B594B000AF786082
:105038004E203B187A686021525A1A807B688C226D
:105048009B58222B00D0BAE07B681B685A6A4C2117
:105058007B181A807B181B88DAB23B181B88D9B2D8
:105068007B689B6D0A40D2B21A707B689B6D5A1C94
:105078007B689A657B685E229B5A9BB2013B99B21A
:105088007B685E2299527B685E229B5A9BB2002BFA
:1050980000D09CE0EFF310837B627B6ABB64012342
:1050A800BB62BB6A83F31088C0467B681B681A68BA
:1050B8007B681B6848490A401A60BB6CFB62FB6A44
:1050C80083F31088C046EFF310833B633B6B7B642C
:1050D80001237B637B6B83F31088C0467B681B6866
:1050E8009A687B681B6801218A439A607B6CBB6362
:1050F800BB6B83F31088C0467B688C2220219950B3
:105108007B6800225A677B6800221A677B681B68E5
:105118005A6880231B04134018D0EFF31083BB6137
:10512800BB693B640123FB61FB6983F31088C046BC
:105138007B681B681A687B681B6828490A401A60E4
:105148003B6C3B623B6A83F31088C0467B68DB6E2E
:10515800012B2FD17B680022DA66EFF31083FB6006
:10516800FB68FB6301233B613B6983F31088C046FE
:105178007B681B681A687B681B6810218A431A6061
:10518800FB6B7B617B6983F31088C0467B681B6877
:10519800DB6910221340102B03D17B681B68102297
:1051A8001A627B685C229A5A7B6811001800FFF724
:1051B800D3F80CE07B681800FBF750FC07E07B682D
:1051C8001B689A697B681B6808210A439A61C04674
:1051D800BD4614B080BDC046DFFEFFFFFFFFFFFBEA
:1051E80080B594B000AF78604E203B187A68602193
:1051F800525A1A807B688C229B58222B00D0BAE026
:105208007B681B685A6A4C217B181A807B689B6DE7
:10521800BB647B183A181B88128813409AB2BB6C7F
:105228001A807B689B6D9A1C7B689A657B685E22F6
:105238009B5A9BB2013B99B27B685E2299527B686C
:105248005E229B5A9BB2002B00D09CE0EFF31083A8
:105258003B623B6A7B6401237B627B6A83F3108831
:10526800C0467B681B681A687B681B6848490A4007
:105278001A607B6CBB62BB6A83F31088C046EFF38D
:105288001083FB62FB6A3B6401233B633B6B83F344
:105298001088C0467B681B689A687B681B68012178
:1052A8008A439A603B6C7B637B6B83F31088C046B0
:1052B8007B688C22202199507B6800225A677B6882
:1052C80000221A677B681B685A6880231B041340F6
:1052D80018D0EFF310837B617B69FB630123BB610B
:1052E800BB6983F31088C0467B681B681A687B68B3
:1052F8001B6828490A401A60FB6BFB61FB6983F352
:105308001088C0467B68DB6E012B2FD17B6800229A
:10531800DA66EFF31083BB60BB68BB630123FB60F5
:10532800FB6883F31088C0467B681B681A687B6833
:105338001B6810218A431A60BB6B3B613B6983F38E
:105348001088C0467B681B68DB6910221340102B4D
:1053580003D17B681B6810221A627B685C229A5A08
:105368007B6811001800FEF7F7FF0CE07B68180057
:10537800FBF774FB07E07B681B689A697B681B680E
:1053880008210A439A61C046BD4614B080BDC04694
:10539800DFFEFFFFFFFFFFFB80B5A0B000AF786026
:1053A8007A23FB187A686021525A1A807B681B6836
:1053B800DB69FB677B681B681B687B677B681B680E
:1053C8009B683B677B688C229B58222B00D065E149
:1053D8006E23FB187A686821525A1A800CE17B68A0
:1053E8001B685A6A6C217B181A807B181B88DAB2F2
:1053F8007A23FB181B88D9B27B689B6D0A40D2B20E
:105408001A707B689B6D5A1C7B689A657B685E2264
:105418009B5A9BB2013B99B27B685E2299527B688A
:105428001B68DB69FB67FB6F0722134049D0FB6FE2
:105438000122134010D07A6F80235B0013400BD0F9
:105448007B681B6801221A627B6890229B580122A4
:105458001A437B6890215A50FB6F022213400FD0E9
:105468003B6F012213400BD07B681B6802221A6233
:105478007B6890229B5804221A437B6890215A50DB
:10548800FB6F042213400FD03B6F012213400BD057
:105498007B681B6804221A627B6890229B58022250
:1054A8001A437B6890215A507B6890229B58002BA6
:1054B80007D07B681800FBF795F87B6890220021DD
:1054C80099507B685E229B5A9BB2002B00D093E0D8
:1054D800EFF31083BB63BB6BBB660123FB63FB6B02
:1054E80083F31088C0467B681B681A687B681B6852
:1054F80070490A401A60BB6E3B643B6C83F31088AA
:10550800C046EFF310837B647B6C7B660123BB642E
:10551800BB6C83F31088C0467B681B689A687B68FD
:105528001B6865490A409A607B6EFB64FB6C83F3D9
:105538001088C0467B688C22202199507B68002205
:105548005A677B6800221A677B681B685A68802341
:105558001B04134018D0EFF31083FB62FB6A3B6611
:1055680001233B633B6B83F31088C0467B681B6851
:105578001A687B681B6851490A401A603B6E7B6356
:105588007B6B83F31088C0467B68DB6E012B2FD1C1
:105598007B680022DA66EFF310833B623B6AFB65A7
:1055A80001237B627B6A83F31088C0467B681B6893
:1055B8001A687B681B6810218A431A60FB6DBB62FE
:1055C800BB6A83F31088C0467B681B68DB691022BE
:1055D8001340102B03D17B681B6810221A627B686A
:1055E8005C229A5A7B6811001800FEF7B5FE03E0AA
:1055F8007B681800FBF732FA6E23FB181B88002B18
:1056080004D0FB6F2022134000D0E8E65A203B1854
:105618007A685E21525A1A8001007B181B88002B79
:1056280044D07B6868229B5A7A1812889A423DD2E5
:10563800EFF31083BB60BB687B650123FB60FB68ED
:1056480083F31088C0467B681B689A687B681B6870
:105658001B490A409A607B6D3B613B6983F3108864
:10566800C0467B68174A5A67EFF310837B617B69F2
:105678003B650123BB61BB6983F31088C0467B6827
:105688001B681A687B681B6820210A431A603B6DF7
:10569800FB61FB6983F31088C04607E07B681B68E1
:1056A8009A697B681B6808210A439A61C046BD460F
:1056B80020B080BDFFFEFFFFFEFFFFEFFFFFFFFBF7
:1056C800FFFFFFEF3150000880B5A2B000AF78604F
:1056D8008223FB187A686021525A1A807B681B68FB
:1056E800DB698422BA1813607B681B681B68FB6738
:1056F8007B681B689B68BB677B688C229B58222B46
:1057080000D06FE17623FB187A686821525A1A8014
:1057180014E17B681B685A6A74217B181A807B68BD
:105728009B6D3B677B188222BA181B88128813402E
:105738009AB23B6F1A807B689B6D9A1C7B689A654E
:105748007B685E229B5A9BB2013B99B27B685E22C2
:1057580099527B681B68DB6984217A1813607B186F
:105768001B68072213404ED07B181B680122134088
:1057780010D0FA6F80235B0013400BD07B681B6846
:1057880001221A627B6890229B5801221A437B6887
:1057980090215A508423FB181B68022213400FD013
:1057A800BB6F012213400BD07B681B6802221A6270
:1057B8007B6890229B5804221A437B6890215A5098
:1057C8008423FB181B68042213400FD0BB6F0122EF
:1057D80013400BD07B681B6804221A627B689022F6
:1057E8009B5802221A437B6890215A507B6890226A
:1057F8009B58002B07D07B681800FAF7F3FE7B68EC
:105808009022002199507B685E229B5A9BB2002B04
:1058180000D093E0EFF31083FB63FB6BFB6601237F
:105828003B643B6C83F31088C0467B681B681A682E
:105838007B681B6871490A401A60FB6E7B647B6C4D
:1058480083F31088C046EFF31083BB64BB6CBB6660
:105858000123FB64FB6C83F31088C0467B681B68DC
:105868009A687B681B6866490A409A60BB6E3B650C
:105878003B6D83F31088C0467B688C2220219950A9
:105888007B6800225A677B6800221A677B681B685E
:105898005A6880231B04134018D0EFF310833B632E
:1058A8003B6B7B6601237B637B6B83F31088C0466D
:1058B8007B681B681A687B681B6852490A401A6033
:1058C8007B6EBB63BB6B83F31088C0467B68DB6E63
:1058D800012B2FD17B680022DA66EFF310837B62FD
:1058E8007B6A3B660123BB62BB6A83F31088C046B0
:1058F8007B681B681A687B681B6810218A431A60DA
:105908003B6EFB62FB6A83F31088C0467B681B68AA
:10591800DB6910221340102B03D17B681B6810220F
:105928001A627B685C229A5A7B6811001800FEF79D
:1059380013FD03E07B681800FBF790F87623FB184B
:105948001B88002B06D08423FB181B6820221340D9
:1059580000D0DEE65E203B187A685E21525A1A8033
:1059680001007B181B88002B44D07B6868229B5A57
:105978007A1812889A423DD2EFF31083FB60FB68D5
:10598800BB6501233B613B6983F31088C0467B6894
:105998001B689A687B681B681B490A409A60BB6D44
:1059A8007B617B6983F31088C0467B68174A5A6716
:1059B800EFF31083BB61BB697B650123FB61FB6966
:1059C80083F31088C0467B681B681A687B681B686D
:1059D80020210A431A607B6D3B623B6A83F310887F
:1059E800C04607E07B681B689A697B681B680821CA
:1059F8000A439A61C046BD4622B080BDFFFEFFFF44
:105A0800FEFFFFEFFFFFFFFBFFFFFFEFE95100087D
:105A180080B582B000AF7860C046BD4602B080BD98
:105A280080B582B000AF7860C046BD4602B080BD88
:105A380080B582B000AF7860C046BD4602B080BD78
:105A480080B584B000AF78607B6884229B5C012BB2
:105A580001D1022327E07B688422012199547B68C5
:105A68008822242199507B681B681B68FB607B682F
:105A78001B681A687B681B6801218A431A60FB68E7
:105A88000B4A1340FB607B6800225A667B681B68E0
:105A9800FA681A607B688822202199507B688422E2
:105AA8000021995400231800BD4604B080BDC046AB
:105AB800FFFFFFDF80B584B000AF786039607B6896
:105AC80084229B5C012B01D102232EE07B68842277
