:020000040800F2
:10800000004002200D0301080901010811010108C7
:108010000000000000000000000000000000000060
:10802000000000000000000000000000190101082D
:108030000000000000000000230101082D010108DC
:108040005D030108000000005D0301085D030108F5
:108050005D0301085D0301085D0301085D0301087C
:108060005D0301083D0101085D0301085D0301088E
:108070005D0301085D0301085D03010800000000C5
:108080005D0301085D0301085D0301085D0301084C
:108090005D0301085D0301085D0301085D0301083C
:1080A0005D0301085D0301085D0301085501010836
:0880B0006D0101085D030108E8
:1080B80010B5064C2378002B07D1054B002B02D0B6
:1080C800044800E000BF0123237010BD8C0200208B
:1080D80000000000D4AD0108044B10B5002B03D0FC
:1080E8000349044800E000BF10BDC046000000007E
:1080F80090020020D4AD01080023C25C0133002A9D
:10810800FBD1581E7047000002B471464908490067
:10811800095C49008E4402BC7047C04603B47146EE
:10812800490840004900095E49008E4403BC704775
:10813800002243088B4274D303098B425FD3030A9E
:108148008B4244D3030B8B4228D3030C8B420DD3B1
:10815800FF22090212BA030C8B4202D3121209023F
:1081680065D0030B8B4219D300E0090AC30B8B427D
:1081780001D3CB03C01A5241830B8B4201D38B032B
:10818800C01A5241430B8B4201D34B03C01A5241D0
:10819800030B8B4201D30B03C01A5241C30A8B4213
:1081A80001D3CB02C01A5241830A8B4201D38B02FE
:1081B800C01A5241430A8B4201D34B02C01A5241A2
:1081C800030A8B4201D30B02C01A5241CDD2C30914
:1081D8008B4201D3CB01C01A524183098B4201D390
:1081E8008B01C01A524143098B4201D34B01C01A7B
:1081F800524103098B4201D30B01C01A5241C308F3
:108208008B4201D3CB00C01A524183088B4201D361
:108218008B00C01A524143088B4201D34B00C01A4D
:108228005241411A00D20146524110467047FFE7B9
:1082380001B5002000F0F0F802BDC0460029F7D0D3
:1082480076E7704703460B437FD4002243088B42EE
:1082580074D303098B425FD3030A8B4244D3030BC5
:108268008B4228D3030C8B420DD3FF22090212BA8A
:10827800030C8B4202D31212090265D0030B8B4206
:1082880019D300E0090AC30B8B4201D3CB03C01AF0
:108298005241830B8B4201D38B03C01A5241430BCB
:1082A8008B4201D34B03C01A5241030B8B4201D3BB
:1082B8000B03C01A5241C30A8B4201D3CB02C01A26
:1082C8005241830A8B4201D38B02C01A5241430A9E
:1082D8008B4201D34B02C01A5241030A8B4201D38D
:1082E8000B02C01A5241CDD2C3098B4201D3CB0134
:1082F800C01A524183098B4201D38B01C01A5241E3
:1083080043098B4201D34B01C01A524103098B42E6
:1083180001D30B01C01A5241C3088B4201D3CB00D1
:10832800C01A524183088B4201D38B00C01A5241B4
:1083380043088B4201D34B00C01A5241411A00D264
:1083480001465241104670475DE0CA0F00D04942CD
:10835800031000D34042534000229C4603098B423D
:108368002DD3030A8B4212D3FC22890112BA030AC5
:108378008B420CD3890192118B4208D38901921147
:108388008B4204D389013AD0921100E08909C309CC
:108398008B4201D3CB01C01A524183098B4201D3CE
:1083A8008B01C01A524143098B4201D34B01C01AB9
:1083B800524103098B4201D30B01C01A5241C30831
:1083C8008B4201D3CB00C01A524183088B4201D3A0
:1083D8008B00C01A5241D9D243088B4201D34B00BB
:1083E800C01A5241411A00D20146634652415B10FD
:1083F800104601D34042002B00D5494270476346DE
:108408005B1000D3404201B5002000F005F802BD22
:108418000029F8D016E770477047C0468446100018
:1084280062468C461900634600E0C0461FB501F05D
:1084380019FC002801D40021C8421FBD10B501F065
:1084480059FB4042013010BD10B501F00BFC00286B
:1084580001DB002010BD012010BDC04610B501F0A1
:1084680001FC002801DD002010BD012010BDC04620
:1084780010B501F083FB002801DC002010BD0120AD
:1084880010BDC04610B501F079FB002801DA0020C4
:1084980010BD012010BDC046F0B54F464646D64631
:1084A8004402C0B547000E1C640A3F0EC50F002FDA
:1084B8003CD0FF2F42D00023802299469A46E40000
:1084C800D20414437F3F73025B0A984673001B0E65
:1084D800F60F002B1BD0FF2B13D042468021D20071
:1084E800C9041143884600207F3B2900FF1A4B46E8
:1084F8007140C9B20F2B00D9B5E0744A9B00D3581C
:108508009F464346002B3FD1FF3F023303E04346DB
:10851800002B2DD1012329004A467140C9B21A43C4
:108528000E2A38D86A48920082589746002C13D1F0
:1085380004239946033B00279A46C4E7002C05D13B
:1085480008239946063BFF279A46BCE70C23994621
:10855800093BFF279A46B6E7200002F009FB762779
:10856800431F9C4000237F4299469A463F1AAAE738
:10857800404602F0FDFA4246431F9A4076235B428A
:108588001B1A90460020B0E703234A461A43914637
:108598000320FC33A9E70D00FF200022C005ED07EA
:1085A80010432843E0BCBA46B146A846F0BD0D00CA
:1085B80000200022F2E75346022BEDD0032B33D0E4
:1085C800A046012B05D100200022E7E7350003284B
:1085D8007AD03B007F33002B2DDD4246520707D06F
:1085E8000F2241460A40042A02D004229446E0445D
:1085F8004246120105D54246364B1A403B0090468A
:108608008033FE2BC8DC42469201520AD8B2C5E735
:1086180080220025FF20D203C0E78022D203144223
:1086280002D04346134249D08022D2032243520249
:10863800FF20520AB2E70122D31A1B2BC3DC4246A1
:10864800DA4043469E37BB40591E8B411A435307B5
:1086580004D00F231340042B00D00432530129D532
:10866800012000229AE7424663015501AB4215D228
:108678001B200022013F01261C0052005B00002C39
:1086880001DB9D4201D85B1B324301380028F3D13E
:10869800581E8341134398460D009AE71A20012279
:1086A8005B1BE8E7023B5A4253415B42350000221C
:1086B800D8B273E792010020520A6FE71A435202B8
:1086C8003500FF20520A69E74446ADE724B10108A6
:1086D80064B10108FFFFFFF7F0B54F464646D6469E
:1086E80043025B0A4500C0B599460F1C2D0EC60F04
:1086F800002D00D188E0FF2D00D18DE08022DB0025
:10870800D2041A430023914698469A467F3D7C023C
:108718007B00640A1B0EFF0F002B68D0FF2B21D0B3
:108728008022E400D204144342467F3B5B190021B7
:108738005D1C0A2A2EDC7E404246022A23DC013ACE
:10874800012A00D9BDE002296ED001292CD10020D0
:108758000022C005F60710433043E0BCBA46B146D4
:10876800A846F0BD2B00FF33002C65D003224146FC
:1087780011433200013588467A40FF350A2900DD69
:10878800D8E016000321404601228240A620C000FE
:10879800024220D05346022B46D0032B00D1BBE027
:1087A80051464C460129D2D02B007F33002B70DD77
:1087B800620704D00F222240042A00D00434220188
:1087C80003D5634B1C402B008033FE2B2CDCA2010D
:1087D800520AD8B2BDE790208000024227D1B938AA
:1087E800FF3810426DD03E00A1468A46D2E7002CE1
:1087F80041D1012342461A4390462B0042460121AB
:108808005D1C0A2A97DDC5E7002B26D1042398466C
:10881800033B00259A467AE7002B18D1082398468F
:10882800063BFF259A4672E7FF20002291E7802247
:108838000026FF20D2038CE741460222013511436E
:108848008846FF350A29A5DC02217E4074E70C23FF
:108858009846093BFF259A4659E7180002F088F91F
:108868004A46431F76259A4000236D429146984612
:108878009A462D1A4BE7200002F07AF94246431F28
:108888009C402B1A763B00215D1C0A2A00DC52E72B
:1088980080E70122D31A1B2B00DD58E79E35220002
:1088A800AC40DA40631E9C412243530704D00F2397
:1088B8001340042B00D00432530137D50120002285
:1088C80047E7210C4A462404240C2700100C120404
:1088D800120C44435743484351433A0C0919521860
:1088E800944203D9802149028C4660443F04110414
:1088F8003F0CC9198C01671EBC41120C890E121855
:108908000C439201144312010ED5012362081C4046
:10891800144349E73E00A14680224B46D2031A433E
:108928005202FF20520A14E71D003DE79201002081
:10893800520A0EE70F29EDD180224B46D20313428B
:10894800EAD01442E8D13E00FF20224301E7C046A6
:10895800FFFFFFF7F8B54746CE464E0243024500F3
:10896800720AC40F480080B594465F0A2D0E9B0911
:10897800000EC90FB609FF2824D0012251402A1A37
:108988008C420FD0002A00DC6AE1002835D1002E85
:1089980000D1A2E0511E012A00D124E1FF2A21D0F2
:1089A8000A002FE0002A00DC67E100285ED0FF2DD6
:1089B80018D08021C9040E431B2A00DC76E02A0067
:1089C800013332E02A00FF3A9146002E42D08C4211
:1089D80055D04A46002A00D19CE0002D00D177E00E
:1089E8000C003300DB08002B00D16EE08022D2039C
:1089F80013435B02FF205B0A24E0FF2DF2D08021A5
:108A0800C9040E4301211B2A08DC31002020D14073
:108A1800821A96403200501E824111435B1A5A0155
:108A280060D407212A00194057D00F211940042982
:108A380000D00433590150D5501CFE2A45D09B0163
:108A4800C0B25B0AC0051843E4072043C0BCB9465E
:108A5800B046F8BD012251408C42BAD14A46002A9C
:108A680010D0002D00D198E00023BBE7002E34D0B1
:108A7800511E012A6ED0FF2AB4D00A009CE7002AB2
:108A880000D088E0FE206A1C104200D092E0002D41
:108A980000D0A4E0002B00D1CBE0002E00D0CAE02B
:108AA8000022DB085B025B0AD0B2CBE73100202052
:108AB800D140821A96403200501E82410A439B18C8
:108AC8005A01AED56A1CFE2D4AD1FF200023B9E712
:108AD800FF22002B4BD10C003300DB08FF2A00D10A
:108AE80081E7DFE79F01BF09380002F041F8053848
:108AF8008740854221DC3B002021421B0132D340C4
:108B08008A1A97407A1E974100223B43590700D0A2
:108B18008BE78FE7FE206A1C104212D1002D52D13C
:108B2800002B7CD0002EBBD09A1B500100D48BE0C8
:108B380001240022F31A0C40E8E7564B2A1A3B405E
:108B4800E4E79F1B7A0146D4002FCDD100240020F2
:108B5800002377E79B1901250132590100D460E70A
:108B680001214D4819405B0803400B43CEE7571ECF
:108B7800012A5AD00C00FF2A33D001221B2F07DC10
:108B88002021C91B1A008B40FA40591E8B411A43F9
:108B98000500B31A43E7002D23D1FF22002B9BD0F9
:108BA800511E012AD6D0FF2A1BD01B292CDD02001A
:108BB800731C3AE7FF2A88D09B195B08590700D035
:108BC80033E7DB086EE7002B10D1002E43D00124D9
:108BD80033000C4006E70124F71A0C4084E7002B09
:108BE80004D13300FEE601259B1B18E7002E00D1B7
:108BF800F8E68022D203974204D3944502D2012496
:108C080033000C40DB08F1E61A002025CA40691A37
:108C18008B40591E8B41134305009B1950E7002ECA
:108C280094D0012433000C403AE70C000125F31AD4
:108C3800F5E6330034E79B1900225901C1D5154ADE
:108C48001340DB0801222DE7002A00D17EE713003C
:108C58000022DB0826E780230024FF20DB03F1E65F
:108C6800002A00D156E7471B3A00002D00D130E713
:108C78008022D2040C0013437FE7002A00D101E7C9
:108C8800411B002D01D10A0088E78022D20413433A
:108C98008BE7C046FFFFFFFBFFFFFF7D410242005D
:108CA800C30F490A0020120E7E2A03DD9D2A02DD29
:108CB800094A98187047802000040143952A07DC68
:108CC8009620821AD1404842002BF3D10800F1E7E0
:108CD800963A9140F7E7C046FFFFFF7F70B500283E
:108CE80013D0C317C5185D40C40F280001F040FF1A
:108CF8009E2301001B1A962B0FDC082834D0083954
:108D08008D406D026D0AD8B202E0002400200025D3
:108D1800C0052843E407204370BD992B16DC421F89
:108D2800052800D095402A00114802406E0709D056
:108D38000F263540042D05D00432550102D59F2356
:108D480002405B1A9201550AD8B2E1E70522121ACD
:108D58002800D040020008001B3085402800451E2E
:108D6800A84102431500DEE76D0296206D0ACFE7A1
:108D7800FFFFFFFB70B5041E0ED001F0F9FE9E2325
:108D880001001B1A962B0CDC08282FD008398C40C0
:108D98006402640AD8B201E000200024C005204320
:108DA80070BD992B16DC421F052800D09440220084
:108DB80010480240650709D00F252C40042C05D027
:108DC8000432540102D59F2302405B1A9201540ACF
:108DD800D8B2E3E7020020001B3290400200501E88
:108DE80082410520401AC4401443E0E764029620FB
:108DF800640AD3E7FFFFFFFBF0B557464E464546EA
:108E0800DE46E0B583B0009001910C034F00CE0F11
:108E1800610A009C1D03640F0C43009900920193A2
:108E2800C80059004B0D9946009A019B6D0AD90F4D
:108E3800530F2B439A46009B7F0DDA0094464A460F
:108E4800B046BA1A8E4200D1B0E0002A00DC78E0C1
:108E58004946002900D1E9E0C9498F4200D195E18E
:108E68000125382A16DC8021534609040B439A460B
:108E78001F2A00DDE7E1202155468B1A61469D40F7
:108E8800D1400D43614699404B1E99415346D3400A
:108E98000D43E41A451BA84280414042241A23028C
:108EA80000D40FE16402640A002C00D139E12000EB
:108EB80001F05EFE0300083B20212800CA1AD040BA
:108EC8009C4002009D4022439F4200DD73E1D81B75
:108ED8000130091A2C008D40C4406B1E9D411300BF
:108EE800C2408B402543002714001D436B0709D05F
:108EF8000F232B40042B05D02B1DAB42AD416D42F7
:108F080064191D00230200D42DE19D4A01379742C0
:108F180000D1D3E046469B49ED0821404A072A4341
:108F28007C054D022D0B640D24052C43F6073443B4
:108F38001000210003B0F0BCBB46B246A946A046CB
:108F4800F0BD002A00D184E04A46D21B002F00D091
:108F58006DE12500054300D127E1561E012A00D105
:108F68003BE2874DAA4200D16AE20125382E12DC85
:108F780032001F2A00DDF8E120262500B61A070076
:108F88005346B040D440B540D740461EB0411B1BA5
:108F98009A463D4305436246551BAC4592415346AC
:108FA80052420E004F4688469C1A78E7002A00DC99
:108FB8008EE04946002975D161465346194300D1D0
:108FC800F6E0511E012A00D191E16D4DAA4200D16F
:108FD800DCE00125382914DC0A001F2A00DDA2E1A3
:108FE80020215346891A8B401D006346D3401D43F8
:108FF80063468B4019004B1E99415346D3400D439D
:10900800E4182D188542804140422418230259D57E
:109018005B4B01379F4251D001215A4B6A081C40D3
:1090280029400A43E507154364085FE7614653464C
:10903800194300D1BCE0511E012A00D164E1504D12
:10904800AA4200D16AE10125382900DD22E70A0099
:109058000EE74D4A7D1C154200D0D0E0250062463F
:10906800534605431A43002F00D037E1002D00D1A5
:10907800A8E1002A00D16AE16346C51A5346E21AFC
:10908800A8429B415B42D31A1A0200D403E263460A
:109098001D1AAC459241534652421C1B0E0088468D
:1090A800A41A23E736498F4270D00125382AA8DC54
:1090B8008021534609040B439A468EE73C0000255D
:1090C800002231E707232B40002B00D010E793E064
:1090D800002A74D04A46D21B002F00D1C7E0284985
:1090E800894500D185E10125382A12DC802109044F
:1090F8000C431F2A00DDABE120212500891A070057
:1091080088408D40D740411E8841D4403D430543A7
:10911800A2446544654592415242524414004F4668
:1091280074E7280001F024FD030018331F2B00DC2E
:10913800C2E62A00083882409F4200DDA9E0DB1B16
:10914800581C1F2800DCACE115001F3BDD4020281F
:1091580005D040231B1A9A40531E9A4115430723F2
:1091680000272B40B0E7ED08054B62072A43E408C7
:109178009F420FD02403250B7C05640DD4E6C0461E
:10918800FF070000FFFF7FFFFE070000C00862071F
:109198000243E4081300234300D186E180252D0310
:1091A80025432D03C34C2D0BBEE6604654460E00E6
:1091B8001700C508D8E7C04CFF1A144096E6BF4A06
:1091C800791C11426BD122000243002F00D0DBE052
:1091D800002A00D12DE1624653461A4300D1B6E079
:1091E8006346C518854280415444404224182302EE
:1091F80002D50F00B04B1C403A002800D8E7624661
:10920800851AA8429241534652429146E31A1A00DF
:109218004B46D21A130091461A0254D44A464C4679
:109228002A4300D040E60026002400257CE6A14D14
:10923800A94500D190E00125382A00DDABE680255C
:109248002D042C4395E6110055462039CD40A946FA
:10925800202A06D0402153468A1A934062461A4370
:10926800944665466B1E9D414B461D4312E6210000
:10927800014300D1C4E0511E012A00D1FBE08D4D0D
:10928800AA4200D1B5E00125382900DD41E70A00EE
:109298002FE7894CFF1A14406207E4086AE7854AF9
:1092A800914200D1E3E06346C21882428041230024
:1092B800404253441B18DD075C0807235208154336
:1092C8000F002B4000E763461D1AAC4592415346F8
:1092D80052421C1B0E008846A41AE5E5002D00D05A
:1092E80091E0002A38D180240026240356E76346FB
:1092F800C51885428041544440422418012723025E
:1093080000D4DFE6022787E66346C51AA8428041F3
:1093180053464042E41A0127241AC0E56207C008F0
:109328000243E40836E7110053462039CB409946FA
:10933800202A06D0402153468A1A934062461A438F
:10934800944665466B1E9D414B461D4359E6620790
:10935800C0080243E4080DE753465A076346D80895
:1093680053460E000243DC0814E715002600203D92
:10937800EE40202A03D04025AA1A94402043421EDA
:1093880090410500354306E6002A7CD062465346E4
:10939800C0081A4300D1FAE6620710438022E408A5
:1093A8001203144208D0D908114205D16346D808DF
:1093B80053460C005B071843420FC000C008520711
:1093C8000243E7E6002A00D12DE76346D808534652
:1093D8005A070E000243DC08CCE663461D1AAC456A
:1093E8009241534652421C1B0E008846A41A01376C
:1093F80055E56346D90853465A070A43DC08C9E6C7
:1094080060465446D4E6C008002A00D1BFE6620789
:1094180010438022E40812031442CDD0DD0815421F
:10942800CAD16346D80853465B070E002C00184380
:10943800C2E76346D90853465A070A43DC0899E647
:109448006346D80853465A070E000243DC08A1E6D3
:10945800110027002039CF40202A03D040218A1A42
:1094680094402043421E904105003D4351E60C00C4
:109478000025002258E56044604592415444524218
:109488000500A4183AE753465A076346D9085346D5
:109498000A43DC087EE61A001C002A4300D0ABE62B
:1094A800C1E620210025091A19E500220025014CF2
:1094B8003AE5C046FF070000FFFF7FFFFE070000F8
:1094C800F0B5DE46454657464E46E0B587B00092B1
:1094D80001930B031B0B9B46CA0F4B0004008046ED
:1094E8005B0D029200D16AE1D44A934200D18CE12B
:1094F8005946420FC9000A43802109041143C2009A
:109508009046CF4A894692469A4400230024039302
:10951800009E019F3B031B0B9B467B0030005B0DAD
:10952800FD0F002B00D128E1C44A934200D177E116
:109538005946720FC9000A438021090411438B461A
:10954800BF49F2008C4651466344CB1A9A46002321
:10955800029E6E400F2C27D8BA49A40009598F469D
:10956800CB464246029E039B022B16D0032B00D10A
:10957800A6E2012B00D0DFE0002200230024904661
:109588001B052343F60733434046190007B0F0BCD8
:10959800BB46B246A946A046F0BD0022002490462C
:1095A800A64BEDE72E00DFE7CB4500D2D4E100D192
:1095B800CFE101235B429C46444648460027E244EB
:1095C8005B46150E1B021D43190C2B041202009555
:1095D8001D0C914602910395FEF730FE02006A4386
:1095E8000B04210C804619438A4209D9009D0123A6
:1095F800AC465B4261449C46E0448D4200D8FBE1A6
:10960800881A0299FEF71AFE039A240442430904B1
:10961800240C03000C43A24206D90099013B8C4656
:109628006444A14200D8E1E1A01A424612041A4358
:1096380093464B4659461B0C1D0004930B044946A0
:109648000904090C0C001B0C5C43120C6B43884684
:1096580051436A43250CAC465B186344994203D9CD
:10966800802149028C466244190C24041B04240CF2
:109678008A181C19904202D316D1A74214D25B460D
:10968800009D013B4F4405934F459B41AC465B42CF
:109698006344C018854200D3A1E1824200D9F6E1B3
:1096A80000D1F1E1059B9B463C1BA742BF41009DB1
:1096B800801A7F42C01B854200D1D0E10299FEF793
:1096C800BDFD039A0B044243210C070019438A424B
:1096D80000D978E1881A0299FEF7B0FD039A2404AC
:1096E80042430904240C03000C43A24200D95DE163
:1096F8004146A41A3A041A43049D13041B0C594307
:1097080047466B439C46100C47430B0CBC446344D0
:1097180068439F4203D980256D02AC4660441F0C04
:1097280009041B04090C3F185B18BC4200D202E173
:1097380000D1FDE001231A43434B5344002B00DCC6
:10974800AEE0510700D098E15946C90106D55946FF
:109758003E4B194080238B46DB0053443C498B42E7
:1097680000DD1AE75946D208490711435A465B05F6
:1097780054028846240B5B0D02E75A46009B1A43A5
:1097880000D17EE05B46002B00D100E1584601F095
:10979800EFF9020003000B3A1D27009EBA1A1900C0
:1097A8005846D64008398840320002439346009A0A
:1097B8008A40284953448A469A440023C8E65B46AF
:1097C8000343994656D05B46002B00D1CDE058465E
:1097D80001F0CEF90B235B429C46020084446646A6
:1097E8001D239B1B260011005846DE40083988407F
:1097F80033000343994623008B409846164B0024B8
:109808009B1A9A460023039382E65A4602439146DE
:109818002AD100229A46022390460824039377E629
:109828005A46009B1A430D4B9C46E244002A17D126
:1098380002231C4300239B46023389E6FF070000EE
:1098480001FCFFFFA0B10108FF030000FFFFFFFEBE
:10985800FE070000F30300000DFCFFFF01F8FFFF07
:10986800032332001C4373E69A460323D9460C248B
:1098780003934DE6002398469A4601330424039344
:1098880046E601231C4300239B46013360E6002380
:10989800802498460026924B240371E60122524206
:1098A8000121C91A382900DD66E61F2900DCABE072
:1098B8001F204042C31A5846D8400300202904D02C
:1098C80058468849514488400243511E8A411A43E8
:1098D800072319000024114013420CD00F23134012
:1098E800042B00D1F9E0111D91429B410A005B4213
:1098F80059075B021C0BD2080A43904600233FE637
:1099080080244B462403234209D05B46234206D1D8
:109918001C4324032E009046714B240B30E6802410
:109928004B4624031C432403029E6D4B240B27E65D
:10993800002B00D100E70098511E844664448442FD
:1099480000D284E0BC4200D2AEE000D1C1E00A00FF
:10995800F0E6424500D92CE64B46DC07580843465A
:109968005B081C434346DF072AE601F001F915238B
:109978009C4684440200634620321C2B00DC2EE700
:1099880023000838834099460023984636E701F0BB
:10999800EFF802000300153220331C2A00DCFBE636
:1099A80000990838814000228B4602E70099013B64
:1099B8008C466444A14200D99AE6A24200D897E6B0
:1099C800831E644494E6AC466144013F8D4200D94D
:1099D80080E68A4200D87DE6871E61447AE68542A1
:1099E80000D05FE6B94500D95CE656E6A24200D849
:1099F8001AE6831E644417E68A4200D800E6AC469D
:109A0800831E98466144FBE5374814005044824061
:109A18005B4617008340CC407A1E974123433B4363
:109A28001A005B46CB40510709D00F211140042989
:109A380005D0111D9142924152429B180A00190209
:109A480000D455E7002201230024904698E50A0037
:109A5800BC4200D06EE64B4500D06BE66CE6234B6B
:109A6800234A5344924500DA18E7012149420A1D66
:109A78008A42894149428B4466E60F2111400429F4
:109A880000D161E61100F2E7BC4200D80AE60223E1
:109A98005B429C4600994F444F459B41E3448C46AA
:109AA8005B426344C018FFE54946009D48004845AD
:109AB8008941AC46494261448146023A6418C7E785
:109AC80080245B4624031C4324039046044B240B48
:109AD80056E59945E8D30A00BDE7002308E7C046E4
:109AE800FF0700003E0400001E040000FF03000002
:109AF80002FCFFFFF0B55746DE464E464546E0B548
:109B08000D000400E80F83460903D80F090B8246AD
:109B180019488C461F0369005E00490D3F0B760DFE
:109B2800814218D086420FD00120B1420DD1BC45E8
:109B38000BD1944209D1D3451CD0002905D16046E8
:109B48002043431E984100E00120F0BCBB46B246CA
:109B5800A946A046F0BD01208E42F6D161463943A0
:109B68000F0017432743F0D15B465246981A431E0D
:109B78009841EAE70020E8E7FF070000F0B55746FC
:109B88004E464546DE46E0B50D000F03390B83B05F
:109B98000400804601915800E90F314F400D8C4672
:109BA8006E00190382469146760D090BD80FBE4206
:109BB8001FD0BA450FD0002E2FD15546019E3443F1
:109BC800002D27D10A433AD0002C45D100281AD1BC
:109BD8000120404217E011433BD1002E02D1019FE2
:109BE8002743F3D0844509D16346002BF0D0604663
:109BF80009E0019F27432CD1B24524D063460220B7
:109C0800013B1840013803B0F0BCBB46B246A94638
:109C1800A046F0BD002CD9D0E4E75446002CEDD086
:109C28008445EBD15645E9DCDEDB019B8B42E5D868
:109C3800DAD1C845E2D80020C845E4D2D4E70020EC
:109C4800002CE0D0DAE7114303D18445D6D10020B7
:109C5800D9E702204042D6E78445E6D0CEE7C046A1
:109C6800FF070000F0B557464E464546DE46E0B5CC
:109C78000D000F0304008046E80F390B844683B0BB
:109C88005800304F400D01911E03690082469146ED
:109C9800490D360BD80FB94220D0BA450FD000294C
:109CA8002BD101990C435146002937D1324338D082
:109CB800002C44D1002819D10120404216E0164357
:109CC80013D1002902D1019F2743F3D0844520D026
:109CD80063460220013B1840013807E0019F2743F3
:109CE80003D18A45F4D116431FD0022003B0F0BC3B
:109CF800BB46B246A946A046F0BD5446002CE7D064
:109D08008445E5D15145E3DC03DB019BB342DFD851
:109D18000FD06346002BCFD06046E7E7002CC9D0B0
:109D2800D4E70020002CE1D0D2E78445D0D1002030
:109D3800DCE7C845CCD80020C845D7D2E9E7844538
:109D4800E3D0C5E7FF070000F0B55746DE464E46AC
:109D58004546E0B51F000B031B0B16009A46CA0FB9
:109D68004B000400934687B05B0D00D1D5E0BB4A99
:109D7800934200D1F8E05146420FC9000A438021BE
:109D880009041143C2009146B54A8A469D1800232A
:109D9800984602933C037B00FA0F3000240B5B0DBE
:109DA800009200D196E0AD4A934231D0720FE400A0
:109DB8002243802424041443A94AF00094466344AF
:109DC8005B195A1C0192424600260A2A42DC5A466E
:109DD80000994A4093464246022A32DC013A012A57
:109DE80000D949E1022E00D1CAE0012E3DD100235D
:109DF8000024002210005A461B052343D2071343B0
:109E0800190007B0F0BCBB46B246A946A046F0BD53
:109E1800924B2643EB18002E00D1BBE003224146AB
:109E280011435A46884600994A40802109018C46C8
:109E380029006144019141460A2900DD33E2934635
:109E48000326424601279740A6213A00C9000A4046
:109E58000F4231D0029E022E00D135E2032E00D1EE
:109E6800D2E154464846012EC1D0019A7D4B944612
:109E78006344002B00DCC0E0420709D00F220240F7
:109E8800042A05D0021D8242804140422418100055
:109E9800E20106D5744B019A1C4080239446DB00EE
:109EA8006344724A93426BDC6207C00864025B0534
:109EB8000243240B5B0D9DE7902189000F4263D17B
:109EC80088223A4200D1D7E0009BA2469B468146B1
:109ED8000296BFE72300334300D17FE0002C00D176
:109EE800ADE1200000F044FE020003000B3A1D2003
:109EF8001900821A30000839D0408C4004433000E1
:109F080088405B4AEB1A944663445A1C01924246C5
:109F180000260A2A00DC5AE79CE753460343994681
:109F280054D05346002B00D177E1504600F020FE74
:109F38000B235B429C4602008444110050460839BA
:109F480088401D23804660461B1A2000D840030025
:109F5800404603439A4623008B4099460023444DCC
:109F68009846AD1A029315E752460243914626D108
:109F780000221D000223924608329046029309E708
:109F880000240022354B35E7002380249B46240318
:109F9800324B2FE702224146114380221201944698
:109FA8002A006244884601920A2900DD52E75A468F
:109FB8000020009904004A40934602260BE70C2231
:109FC8001D000323814690460293E3E600239A4648
:109FD80004339846033B00250293DBE642460133EF
:109FE8001A432B0090465A1C019242460024002036
:109FF80001260A2A00DCEAE62CE70122D21A382ACE
:10A0080000DDF4E61F2A00DC2AE11F214942CB1AB1
:10A018002100D9400B00202A05D0164A019D9446FC
:10A028006544AC402043421E904118430723190061
:10A038000024014003420CD00F230340042B00D11D
:10A0480040E1031D8342A441180064426107640291
:10A05800240BC20800230A43CCE6C046FF070000D1
:10A0680001FCFFFFFF030000FFFFFFFEFE070000EB
:10A078000DFCFFFF3E04000049464A460904090C4E
:10A088000D00160C020C0004000C4543AC460500FC
:10A098007543A84615000F007543009202952A00E3
:10A0A800009D6F4365462D0CA94647444F44B8456B
:10A0B80005D91500802252029046454402953D0C70
:10A0C800039565462D043F042D0CAC463D006544C0
:10A0D8000495250C2404240CAC4625007543A84699
:10A0E80065460F006943414489466743390C494432
:10A0F8006E43884503D980225202904646440D0C8F
:10A10800A846350045440595039D3F04A8463F0CE5
:10A118000904C91988444546039555462E04360C4A
:10A128002F0C35004543784381463800A8462D0C4E
:10A13800AA46009A504372434A445244914503D96F
:10A1480080256D02A9464844150CA94645462D04AC
:10A158002D0CA84665467D43120448449044A94600
:10A168003200654662436E437C43170C3619BF19AB
:10A17800BC4203D980246402A446E144029C039EA5
:10A18800A446059D66448E428941AC4612043C04AF
:10A19800120CA2186244494254184644A446464543
:10A1A800A44182466442A046AA4292418C45894114
:10A1B800E244D044494252420A43A045A441824560
:10A1C8008941644249420C4341463F0CD219121955
:10A1D800CC0D049970020843411E884141464A4407
:10A1E800F60D52023043490214430843D20135D5D3
:10A1F8000122430802401343E0071843640834E689
:10A20800009BA2469B4681468024534624031C4358
:10A2180024034A462E4B240BECE500F0A9FC152339
:10A228009C4684440200634620321C2B00DC84E6F2
:10A23800002399462300083883409A468EE600F0AA
:10A2480097FC02000300153220331C2A00DC4EE67E
:10A2580002003400083A0020944052E6019304E6D4
:10A268001C4B21009C460300019DD3406544A94036
:10A2780019430300AB40581E834119430800D440DA
:10A288004B0709D00F230B40042B05D00B1D8B4225
:10A298008041404224181800230200D4D6E6012346
:10A2A80000240022A6E50F29AAD1802352461B03C9
:10A2B8001A42A9D01C42A7D11C43009B02009B460E
:10A2C800034B97E50024C1E60024014B220091E5E9
:10A2D800FF0700001E040000F0B54E464546DE4666
:10A2E8005746E0B585B0009001910C034F00CE0FA2
:10A2F800610A009CB046640F0C4300997F0DC800AA
:10A3080011001A001B039C460091019251004B0D4D
:10A318009946019B009DD90F63466A0F5B0A134358
:10A32800EA0094469346C14A03900293914500D1AE
:10A33800CDE0012569404D467D1BAA468E4200D1DD
:10A3480080E0002D00DC35E34946002900D1DFE03C
:10A35800974200D194E152460125382A19DC80221F
:10A36800029B12041343029352461F2A00DDE3E1C5
:10A37800534620226146029DD21A9540D9400D438A
:10A38800614691400A00511E8A411543029ADA40FB
:10A39800A41A451BA84280414042241A230200D433
:10A3A8003DE16402640A002C00D147E1200000F07E
:10A3B800DFFB0300083B20212800CA1AD0409C403C
:10A3C80002009D4022439F4200DD77E1D81B013007
:10A3D800091A2C008D40C4406B1E9D411300C240D9
:10A3E8008B402543002714001D436B0709D00F231A
:10A3F8002B40042B05D02B1DAB42AD416D42641997
:10A408001D00230200D440E1884A0137974200D159
:10A4180001E1012643468649ED0821404A072A43BF
:10A428007C054D022D0B640D1E4024052C43F607B8
:10A4380034431000210005B0F0BCBB46B246A94623
:10A44800A046F0BD002D00DCD0E24946002900D02E
:10A45800D4E06146029B194300D12BE1691E012D0E
:10A4680000D1D9E1954200D10AE10125382917DC4C
:10A478008A4653461F2B00DDE7E12022D21A029BB1
:10A48800614693401D005346D940634693401A00E5
:10A498000D43511E8A4153461543029ADA40A418C7
:10A4A8002D188542804140422418230200D4B6E08A
:10A4B8005E4B01379F4200D1ADE001215C4B6A0839
:10A4C8001C4029400A43E507154364088DE7594AAB
:10A4D800029B92466246BA441A432CD08E422ED032
:10A4E8005246002A60D0002F00D1DBE063460E0000
:10A4F800029CD80862070243E4081300234300D1F2
:10A5080054E280252D0325432D03484C2D0B8CE761
:10A518006146029B194300D1CCE029000139012D85
:10A5280000D188E1954200D1AAE00125382900DD53
:10A538002FE78A4618E7012251408E42D0D1534670
:10A54800002B00D1BEE0002F00D038E1CA4622001F
:10A55800024300D1E2E15346591E012B00D10DE21E
:10A56800324A924500D1D2E10127382913DC1F294C
:10A5780000DDEEE12022029B521A250007009A46D0
:10A58800CC4090409540CF40A244421E9041534653
:10A598002F43074302933D00654465459241029B62
:10A5A80052424F46D41880E7234A7D1C154200D0FA
:10A5B800AAE062462500029B05431A43002F00D0FB
:10A5C800F5E0002D00D16BE1002A00D152E163468D
:10A5D800C51A029BE21AA8429B415B42D31A1A028F
:10A5E80000D4D5E163461D1AAC4592410126029B71
:10A5F80052421C1B8846A41A0E40F6E697423FD0EA
:10A6080052460125382A00DD4AE78022029B1204BF
:10A61800134302932DE73C000025002205E707239A
:10A628002B40002B00D0E2E66BE0C046FF0700009D
:10A63800FFFF7FFF01F8FFFFFE070000280000F082
:10A6480097FA030018331F2B00DCB4E62A000838F9
:10A6580082409F4200DDB9E0DB1B581C1F2800DC4C
:10A66800A0E115001F3BDD40202805D040231B1A20
:10A678009A40531E9A411543072300272B40D0E7E1
:10A68800C00862070243E40837E7EA0863071A4389
:10A69800D34BE4089F4200D12FE72403250B7C0508
:10A6A800640DC2E6CA462200024358D163460E0032
:10A6B800029C0393039B5746DA08E7E7C94CFF1A45
:10A6C800144092E6C84D7A1C2A4200D084E0220049
:10A6D8000243002F00D0EFE0002A00D1E5E06246F7
:10A6E80002990A4300D1C5E06346C5188C468542E5
:10A6F8008041644440422418230202D5B94B0137F3
:10A708001C40BA460395D5E76246851AA84292418D
:10A7180052429146029BE31A1A004B46D21A130082
:10A7280091461A026CD44A464C462A4300D03AE66F
:10A7380000260024002578E6029953460D00203AA9
:10A74800D540202B06D04022D21A0B0093406246F7
:10A758001A4393465B465A1E93411D4319E65346D6
:10A768005A1E012B00D1C6E09D4EB24500D1BDE670
:10A7780088460E000125382A10DC1F2A7FDC20219C
:10A788002500891A070088408D40D740D440411ED3
:10A798008841029B3D431B1B054302936246551BA0
:10A7A800AC459241029B52424F469C1AF6E5002D59
:10A7B80000D0B7E0002A00D1F0E001260E40634641
:10A7C8000298D90842070A43C40896E6854CFF1A3E
:10A7D80014406207E40860E781498A4200D1C9E071
:10A7E8006346C11881428041029B4042E3181B180E
:10A7F800DD075C08072349080D4317002B4010E7C5
:10A8080063461D1AAC4592410126029B52421C1B0D
:10A818008846A41A0E40C6E56346C518029B8542C1
:10A8280080419C464042644424180127230200D4F6
:10A83800F5E6022741E66346C51AA8428041029B15
:10A848004042E41A0127241AA8E5029D52462B002B
:10A85800203AD34019005346202B06D04022D21A62
:10A868002B00934062461A4393465D466B1E9D41FA
:10A878000D4315E66207C0080243E4080DE711001E
:10A8880027002039CF40202A05D040218A1A944039
:10A89800250005430395039D6A1E95413D437DE7C9
:10A8A800002A00D144E701260E406346D908029BDE
:10A8B8005A070A43DC08F0E6002A28D06246029FBD
:10A8C800C0083A4300D1DCE6620710438022E4085E
:10A8D8001203144209D0FD08154206D16346012629
:10A8E8002C00D8087B0718430E40420FC000C00850
:10A8F8005207024301E663461D1AAC459241029B8A
:10A9080052421C1B0E0088460127A41A46E56346DE
:10A91800D908029B5A070A43DC08EEE56346029C05
:10A928000393C7E6C008002A00D1AAE662071043CD
:10A938008022E40812031442D7D0029FFD08154272
:10A94800D3D163460126D8087B072C0018430E4054
:10A95800CBE70A002700203AD740202905D040221B
:10A96800521A9440250005430395039D6A1E95419C
:10A978002F4310E614000025002256E5029B604490
:10A988009946604592414C4452420500A4184CE750
:10A998001A001C002A4300D0B3E6C9E6802400262A
:10A9A8002403AEE520210025091A17E50022002519
:10A9B8000B4C3AE5002D00D1F6E54B46DA1B9246E2
:10A9C800002F00D16FE6382A05DC80263604344390
:10A9D80088460E00D1E688460E000125DEE6C04610
:10A9E800FF070000FFFF7FFFFE070000002D00D1DA
:10A9F80068E64B46D91B002F01D18A46A7E50127F7
:10AA0800382900DDC7E5802212041443AFE5C046AB
:10AA1800F0B5C6461E03360BB0460D4E0C034D006E
:10AA28005F0000B5240B6D0D7F0DB5420BD00849B2
:10AA380000208F4204D1464616433000431E9841F9
:10AA480080BCB846F0BD04430120002CF8D1EEE7E5
:10AA5800FF0700000B00020070B5164D0C0382B012
:10AA68004900002000920193240B490DDE0FA942F2
:10AA780004DD1148814203DD104BF01802B070BDAF
:10AA88008020400320430E4C641A1F2C08DD0D4B18
:10AA98005B1AD84003005842002EEFD11800EDE7AA
:10AAA800094B009A9C46030061448B40E2401343E3
:10AAB800F1E7C046FE0300001D040000FFFFFF7F12
:10AAC8003304000013040000EDFBFFFF70B50028FD
:10AAD80016D0C317C5185D40C40F280000F048F809
:10AAE800104B1B1A5B055B0D0A2814DC02002E00B4
:10AAF800153296400B22121AD5402D032D0B03E078
:10AB080000240023002500261B052B43E4072343CC
:10AB18003000190070BD0B3885402D0300262D0B21
:10AB2800F2E7C0461E04000010B5041E10D000F065
:10AB38001FF80E4B1B1A5B055B0D0A280FDC0B2256
:10AB48002100121AD14015300A038440120B01E08B
:10AB5800002300221B0513432000190010BD22000A
:10AB68000B38824012030024120BF3E71E04000086
:10AB78001C2101231B04984201D3000C10391B0A25
:10AB8800984201D3000A08391B09984201D30009E9
:10AB9800043902A2105C40187047C0460403020240
:10ABA80001010101000000000000000080B584B030
:10ABB80000AFF860B9607A603B60FB68DB693A68AF
:10ABC8007968B868984703001800BD4604B080BD8E
:10ABD80080B582B000AF78600A00FB1C1A707B68F1
:10ABE8001B69FA1C127810009847C046BD4602B08F
:10ABF80080BD80B582B000AF78600A00FB1C1A7077
:10AC08007B685B69002B05D07B685B69FA1C12784E
:10AC180010009847C046BD4602B080BD80B582B0DE
:10AC280000AF786039607B689B693A681000984784
:10AC3800C046BD4602B080BD80B582B000AF786026
:10AC48007B689B68002B02D07B689B689847C0464E
:10AC5800BD4602B080BD80B582B000AF78607B6829
:10AC6800DB68002B02D07B68DB689847C046BD468E
:10AC780002B080BD80B584B000AF78603960002331
:10AC8800FB607B681800FFF7D7FF7B68002118007E
:10AC9800FFF79EFF7B689B780C22BA18390078680A
:10ACA800FFF784FF7B6801211800FFF791FF7B689D
:10ACB8001800FFF7D0FFFB681800BD4604B080BD40
:10ACC80090B587B000AFF860B9607A601A00FB1CD5
:10ACD8001A70FB681800FFF7AFFFFB680021180027
:10ACE800FFF776FFFB1C1B781722BC187A68B96837
:10ACF800F868FFF75BFF03002370C0460B4B1B6827
:10AD08009B6880221340802BF8D0FB680121180033
:10AD1800FFF75EFFFB681800FFF79DFF1723FB187E
:10AD28001B781800BD4607B090BDC046CC0C00206B
:10AD380080B584B000AF78600A00BB1C1A80BB1CC9
:10AD48001B881B0A9BB21A00FF231A40BB1C1B88D6
:10AD58001B0408490B401343FB60FA687B68110029
:10AD68001800FFF787FF0300BB60BB681800BD46EB
:10AD780004B080BD00FFFF0080B588B000AFF86068
:10AD8800B9607A600023FB61BB68DA01FC235B01D0
:10AD98001340A02212021343BB61BB691B0AFF22A6
:10ADA8001A40BB691B021B041B0C1343FB61FA69A5
:10ADB800FB6811001800FFF75DFF03007B61FB686B
:10ADC80000211800FFF756FF03007B617B691B0A0F
:10ADD8009BB2FF2213409AB27B699BB21B029BB2C3
:10ADE80013439AB27B681A8000231800BD4608B046
:10ADF80080BDF0B599B000AFF860B9607A60FB68C3
:10AE08009B781A007B685343BB65BA6D34257B1960
:10AE1800002118000DF068FEFB681800FFF70CFF12
:10AE2800FB6800211800FFF7D3FE5723FC18BB6D01
:10AE38001422BA187919F868FFF7B8FE03002370CE
:10AE4800FB6801211800FFF7C3FEFB681800FFF735
:10AE580002FF5E23FB1800221A705F23FB180022F2
:10AE68001A7052E05F243B191B789B00BA68D3180C
:10AE780000221A605E257B191B787A19591C1170FB
:10AE88001A001426BB199B5C19043B191B789B00FC
:10AE9800BA68D3181A6808003B191B789B00B96870
:10AEA800CB1802431A607B191B787A19591C117048
:10AEB8001A00BB199B5C19023B191B789B00BA68E6
:10AEC800D3181A6808003B191B789B00B968CB187F
:10AED80002431A607B191B787A19591C11701A00E1
:10AEE800BB19995C3B191B789B00BA68D3181A6880
:10AEF80008003B191B789B00B968CB1802431A60FD
:10AF08003B191A783B1901321A705F23FB181B781A
:10AF18007A689A42A6D85723FB181B781800BD46B2
:10AF280019B0F0BD80B588B000AFF860B960BB1D3E
:10AF38001A8014217B1800221A6000229A80BB68AC
:10AF4800DA01FC235B011340C022D2011343FB61E9
:10AF5800FB691B0ADAB27B181A70FB69DAB27B1834
:10AF68005A70BB1D1B881B0A9BB2DAB27B18DA70B9
:10AF7800BB1D1B88DAB27B181A717918F86806238A
:10AF88000022FFF79DFE03001800BD4608B080BDF3
:10AF980090B589B000AF7860FA231B03BB61FA2330
:10AFA8005B037B61FA239B033B61FA23DB01FB60B4
:10AFB80008243A197B6803211800FFF7DDFE3B19C6
:10AFC8001B7820221340DBB2002B04D01F23FB1870
:10AFD80008221A7008E00823FB181B78DB065B0FB1
:10AFE800DAB21F23FB181A700823FB181B780322F8
:10AFF8001340DBB2002B0ED11F23FB181A781F4B0E
:10B008009200D3581900B869FDF792F803001A00A6
:10B018007B681A6324E00823FB181B78032213407B
:10B02800DBB2002B0ED11F23FB181A78134B9200AA
:10B03800D35819007869FDF77BF803001A007B687C
:10B048001A630DE01F23FB181A780C4B9200D35893
:10B0580019003869FDF76CF803001A007B681A6359
:10B068007B681B6BFA689A4202D27B68FA681A639B
:10B0780000231800BD4609B090BDC0460800002056
:10B08800B0B586B000AF786039607B6803229A70EB
:10B098007B68544A9A623B6803229A703B68514A1B
:10B0A8009A627B6800211800FFF7A3FD3B68002126
:10B0B8001800FFF79EFD7B6805211800FFF7AEFD1D
:10B0C8007B6801211800FFF794FD3B6801211800F7
:10B0D800FFF78FFD7B6805211800FFF79FFD1425FA
:10B0E8007A197B6801211800FFF746FE0C243A19EB
:10B0F8007B6800211800FFF73FFE21007B185B7872
:10B108001B071B0FDBB21A007B685A707B68022290
:10B118005A707B181A88344B1A807B191A88334B5B
:10B128001A807B185B781B071B0FDBB21A007B6841
:10B138001A707B195B787F229343DBB2002B05D012
:10B148002B4A7B6811001800FFF7F2FD7B68180096
:10B15800FFF71EFF7B682C22C421995410257A1909
:10B168003B6801211800FFF707FE08243A193B68DD
:10B1780000211800FFF700FE21007B185B781B07F1
:10B188001B0FDBB21A003B685A703B6802225A70E8
:10B198007B181A88174B1A807B191A88164B1A8045
:10B1A8007B185B781B071B0FDBB21A003B681A7011
:10B1B8007B195B787F229343DBB2002B05D00C4AC6
:10B1C8003B6811001800FFF7B3FD3B681800FFF754
:10B1D800DFFE3B682C22C421995400231800BD4689
:10B1E80006B0B0BD00009644F4100020F81000200E
:10B1F80055060000F6100020FA10002080B584B033
:10B2080000AFF860B960BB1D1A80FB68002B01D144
:10B21800FF230EE0FB682C229B5CC42B01D0022389
:10B2280007E0BB1D1A88B968FB681800FFF77AFEAB
:10B2380003001800BD4604B080BD80B584B000AFDF
:10B24800F860B9607A60FB68002B01D1FF230DE03C
:10B25800FB682C229B5CC42B01D0022306E07A6891
:10B26800B968FB681800FFF787FD03001800BD46A2
:10B2780004B080BDF0B589B000AFF860B9601900BE
:10B28800FB1D1A70BB1D0A1C1A7028250826AB194D
:10B2980008229446BC446344AA1908218C46BC443D
:10B2A8006244127807210A401A70FB1D1B78032B91
:10B2B80046D81C243A19FB6804211800FFF7BDFF83
:10B2C80020003B181B881BB2FA1D12789200072138
:10B2D80091400A0012B2D24312B213401BB29AB282
:10B2E8003B181A803B181B881AB2AB1908218C46E8
:10B2F800BC4463441978FB1D1B789B0099400B00E4
:10B308001BB213431BB29AB23B181A803B181A8817
:10B31800FB6804211800FFF771FFFB1D1B78012B48
:10B3280058D8FB1D1B78FA6810335B00D3181A1D18
:10B33800AB1908218C46BC4463441B78137049E060
:10B3480018243A19FB6805211800FFF776FF20003A
:10B358003B181B881BB2FA1D1278043A9200072189
:10B3680091400A0012B2D24312B213401BB29AB2F1
:10B378003B181A803B181B881AB228240825631921
:10B3880008218C46BC4463441978FB1D1B78043B98
:10B398009B0099400B001BB213431BB29AB23B1897
:10B3A8001A803B181A88FB6805211800FFF726FF4A
:10B3B800FB1D1B78012B0DD8FB1D1B78FA68103379
:10B3C8005B00D3181A1D631908218C46BC446344DA
:10B3D8001B78137028250826AB1908229446BC440C
:10B3E8006344AA1908218C46BC4462441278072198
:10B3F8000A401A70BB1D1B78032B46D814243A192F
:10B40800BB6804211800FFF718FF20003B181B88B1
:10B418001BB2BA1D12789200072191400A0012B29D
:10B42800D24312B213401BB29AB23B181A803B188F
:10B438001B881AB2AB1908218C46BC44634419789E
:10B44800BB1D1B789B0099400B001BB213431BB21A
:10B458009AB23B181A803B181A88BB680421180056
:10B46800FFF7CCFEBB1D1B78012B58D8BB1D1B78E2
:10B47800BA6810335B00D3181A1DAB1908218C4623
:10B48800BC4463441B78137049E010243A19BB6824
:10B4980005211800FFF7D1FE20003B181B881BB2BE
:10B4A800BA1D1278043A9200072191400A0012B29C
:10B4B800D24312B213401BB29AB23B181A803B18FF
:10B4C8001B881AB228240825631908218C46BC4415
:10B4D80063441978BB1D1B78043B9B0099400B0003
:10B4E8001BB213431BB29AB23B181A803B181A8836
:10B4F800BB6805211800FFF781FEBB1D1B78012BD7
:10B508000DD8BB1D1B78BA6810335B00D3181A1D01
:10B51800631908218C46BC4463441B7813700023CC
:10B528001800BD4609B0F0BD90B587B000AFF8600F
:10B53800B960FB1D1A7014243A19FB68032118001E
:10B54800FFF71AFCFB1D1B7803221340DAB23B19E4
:10B5580003210A4010001A7803218A43111C021C97
:10B568000A431A703B191A88FB6803211800FFF771
:10B57800D9FCFB681800FFF70BFD10243A19BB68CB
:10B5880003211800FFF7F8FBFB1D1B78032213406B
:10B59800DAB23B1903210A4010001A7803218A43C2
:10B5A800111C021C0A431A703B191A88BB68032134
:10B5B8001800FFF7B7FCBB681800FFF7E9FC002389
:10B5C8001800BD4607B090BDF0B589B000AF7860EF
:10B5D800396080231B04BB617B68002B01D1FF23EA
:10B5E80097E07B682C229B5CC42B01D0022390E05F
:10B5F8000C23F9187B6803221800FFF7FAFB1E23B7
:10B60800FB1801221A701F23FB1800221A7077E01A
:10B618001E22BB181B78BA18591C11701A000C236B
:10B62800FB189200D1581F203B181A783B689200EB
:10B63800D1503B181A783B689200D358BA69134026
:10B6480017D03B181A783B689200D358DB433A1856
:10B6580012785B02590A3B689200D1503B181A785D
:10B668003B689200D3583A18127859423B689200C6
:10B67800D1501F243B191A783B689200D358180000
:10B68800FDF72CFB051C7B689B6A2449181CFCF7FA
:10B6980003FF031C1A1C26003B191C78111C281CCC
:10B6A800FDF71AF8031C191C3B68221D9200D150A3
:10B6B80034003B191A783B6804329200D5583B197C
:10B6C8001B787A6810335B00D31804331B781A0090
:10B6D800134B9B5C1800FDF701FB021C26003B196D
:10B6E8001C78111C281CFCF7D7FE031C191C3B688E
:10B6F800221D9200D150BB191A78BB1901321A7059
:10B708007B685B781F22BA1812789A4200D27FE7CA
:10B7180000231800BD4609B0F0BDC046FEFFFF4A31
:10B7280000000020B0B58EB000AFF8607A603B60D2
:10B738000B23FB180A1C1A70FB68002B01D1FF238E
:10B748003CE0FB682C229B5CC42B01D0022335E033
:10B75800FB685B780B22BA1812789A4201D9032346
:10B768002CE037257C191423FA18FB6811001800FF
:10B77800FFF72AFF030023707B191B78002B02D0E8
:10B788007B191B781AE07B68002B09D00B23FB1868
:10B798001A781423FB189200D3581A007B681A6091
:10B7A8003B68002B09D00B23FB181A781423FB18CD
:10B7B80004329200D2583B681A6000231800BD4634
:10B7C8000EB0B0BD80B586B002AF78600800110039
:10B7D800FB1C021C1A703B000A1C1A800C217B18E7
:10B7E800FA1C12781A703B001B881B0A9BB2DAB24B
:10B7F8007B185A703B001B88DAB27B189A707A184B
:10B80800786801235B4200930323A02106F02EFCF5
:10B8180003001800BD4604B080BDB0B58AB004AFBF
:10B82800F8607A600B203B180A1C1A703B181B78CA
:10B838009AB217257C19F86805230293022301930D
:10B848001423FB1800930123A02106F06FFF0300C7
:10B8580023707B191B78002B0AD0FB68180006F0B0
:10B86800D5FBFB68180006F02BFB7B191B780DE055
:10B8780014217B181B781B021AB27B185B781BB249
:10B8880013431BB29AB27B681A8000231800BD4686
:10B8980006B0B0BD90B587B002AFF8607A603B6083
:10B8A8000B243B190A1C1A703A683B191978FB6873
:10B8B8001800FFF7B2FF031E0BD13B191C783B6839
:10B8C8001B887A6810491148009323000DF0A0F8EE
:10B8D8000AE00B23FB181B787A680D490B480DF01A
:10B8E80097F83B6800221A80084B1800FCF704FC04
:10B8F80003009AB20549074864230AF019FAC046BA
:10B90800BD4605B090BDC04600AE0108040F00203A
:10B9180018AE01087C0D0020F0B585B000AF786046
:10B928000C243B1900221A800A257B1900221A8050
:10B938007B68F033C822002118000DF0D5F87B6829
:10B94800B933FF33C822002118000DF0CDF87B6809
:10B95800A022920094466344C822002118000DF0EA
:10B96800C3F87B68704A002199527A68D3239B00F8
:10B978000021D1527B686D4A002199527A68D723F9
:10B988009B006B49D1507A68D8239B000021D15085
:10B998007A68D9239B000021D1507A68DA239B006A
:10B9A8000021D1507A68DB239B000021D1547B68A9
:10B9B800604A002199547B685F4A002199547A684B
:10B9C800DC239B000021D1547B685C4A00219954F8
:10B9D8007B685B4A002199547A68D5239B00002133
:10B9E800D1547A68DD239B000021D1547A68D4238E
:10B9F8009B000021D1547B6818687B19514AFE21AD
:10BA0800FFF748FF7B6818683B194F4AFF21FFF78B
:10BA180041FF3B191B884D4A934209D17B191B886A
:10BA28004B4A934204D17A68D4239B000121D15414
:10BA38007B6818680C257B19464A0C21FFF72AFFFA
:10BA48007B681B680F26BC19802212020C21180083
:10BA5800FFF7B8FE030023707B681B6800220C21E7
:10BA68001800FFF7AFFE022004F0FCFC7B681868A2
:10BA78007B19394A0C21FFF70DFF7B681B79002BD6
:10BA88000BD17B681B68BC19902252010821180051
:10BA9800FFF798FE030023700AE07B681B680F22FB
:10BAA800BC182E4A08211800FFF78CFE03002370EB
:10BAB8007B681B680F257C19294A09211800FFF7A4
:10BAC80081FE030023707B681B687C19254A0A21C4
:10BAD8001800FFF777FE030023707B681B79002BA3
:10BAE8000AD17B681B687C191F4A0B211800FFF7D5
:10BAF80069FE030023700BE07B681B680F22BC18EB
:10BB0800E422D2010B211800FFF75CFE030023702A
:10BB18007B681B68BE22D2000C211800FFF752FE7A
:10BB2800C046BD4605B0F0BD4A0300004E03000004
:10BB3800000080FF6D0300006E0300007103000029
:10BB48007203000030AE010840AE01080410000086
:10BB5800495400004CAE010860AE01081013000003
:10BB680010330000105300001073000080B584B03B
:10BB780000AF0200BB1D1A803B1D0A1C1A80BB1DAA
:10BB88001B881B023A1D1288120A92B21343FB60EB
:10BB9800FA6880231B04134004D0FB68FF221206B6
:10BBA8001343FB60FB681800BD4604B080BD00006D
:10BBB80080B500AF4B4B1B78042B00D98EE09A0060
:10BBC800494BD3181B689F46464B01221A7085E0E3
:10BBD80004F03EFC0200454B1B689A4200D17CE011
:10BBE80004F036FC0200414B1A6080239B00404A57
:10BBF8001900100006F02AF9031E00D06DE0394B39
:10BC080002221A7069E03B4B1B78002B06D03A4B96
:10BC18003A4A3B480021FFF785FD02E0374B0022F6
:10BC28001A60304B03221A7058E0364B1B78002BF1
:10BC380006D0354B354A36480121FFF773FD02E03F
:10BC4800324B00221A60274B04221A7046E0314B0F
:10BC58001B881A00294B19682F4B9200D1502F4B83
:10BC68001B881A00294B19682D4B9200D150294B7B
:10BC78001B8801339AB2274B1A80284B1B88013343
:10BC88009AB2264B1A80234B1B88632B21D904F0C8
:10BC9800DFFB0200234B1A60234B1B78002B08D0D4
:10BCA800224B1B78002B02D100F0FAFE01E000F0D5
:10BCB800B9FF1F4B1B780133DAB21D4B1A701C4BAE
:10BCC8001B78092B05D91A4B00221A70194B01222F
:10BCD8001A70044B00221A7000E0C046C046BD46E8
:10BCE80080BDC046A8020020E0B10108AC020020D7
:10BCF800000800502E000020BC020020B4020020E2
:10BD0800CC0F00202F000020B8020020B002002035
:10BD180060100020400B002020080020420B00206B
:10BD2800B0090020000300202D000020F1020020AF
:10BD3800F2020020C802002090B583B000AF404B4B
:10BD48001B78042B00D976E09A003E4BD3181B6869
:10BD58009F463D4B1B78002B6AD03B4B00221A7044
:10BD6800374B01221A7063E0384B180002F0DCF9F7
:10BD7800374B180002F0D8F904F06AFB0200354B83
:10BD88001A602F4B02221A7055E004F061FB020082
:10BD9800304B1B68D31A812B4CD9294B03221A70BC
:10BDA80048E0FC1D2C4A2D49284B180002F0F2F8F7
:10BDB80003002370BC1D2A4A2A49254B180002F0AB
:10BDC800E9F803002370FB1D1B78002B14D0BB1D62
:10BDD8001B78002B10D0244A244B110018000CF0BB
:10BDE80017FE224B1800FCF787F903009AB21F4987
:10BDF8001F48642309F09CFF114B04221A701AE0B3
:10BE0800144B1A681B4B1A601B4B1B78002B08D06D
:10BE18001A4B1B78002B02D101F0AEF901E001F0BA
:10BE2800C9FA094B00221A70054B00221A7002E069
:10BE3800C04600E0C046C046BD4603B090BDC046FF
:10BE4800C0020020F4B10108C8020020C00B002085
:10BE5800140C0020C4020020480B0020440B0020D2
:10BE6800500B00204C0B00207CAE0108040F002072
:10BE78007C0D0020000300202D000020F10200208E
:10BE880080B500AFC34B1B78022B00D1E0E000DD8A
:10BE980064E2002B02D0012B1AD05FE2BE4B1B7864
:10BEA800002B00D157E204F0D3FA0200BB4B1B6809
:10BEB800D31A092B00D850E204F0CAFA0200B74B93
:10BEC8001A60B74B00221A70B24B01221A7044E272
:10BED800B34B1B78032B00D186E000DDB4E0022BC6
:10BEE80059D000DDB0E0002B02D0012B2AD0ABE006
:10BEF800AC4AD4239B00D35C002B0DD0A94B1B6804
:10BF0800A94A00211800FFF788FCA64B1B68A74A1E
:10BF180001211800FFF781FCA54AD4239B00D35CBC
:10BF2800002B00D189E0A24B1B68A24A002118000F
:10BF3800FFF773FC9E4B1B689F4A01211800FFF70F
:10BF48006CFC7AE0974AD4239B00D35C002B0DD07D
:10BF5800944B1B68994A02211800FFF75EFC914B2D
:10BF68001B68974A03211800FFF757FC904AD4230F
:10BF78009B00D35C002B62D08D4B1B68914A022139
:10BF88001800FFF74AFC8A4B1B688F4A03211800E8
:10BF9800FFF743FC53E0834AD4239B00D35C002B78
:10BFA8000DD0804B1B68894A04211800FFF735FC27
:10BFB8007C4B1B68864A05211800FFF72EFC7C4A3B
:10BFC800D4239B00D35C002B3BD0794B1B68814A60
:10BFD80004211800FFF721FC754B1B687E4A0521D8
:10BFE8001800FFF71AFC2CE06E4AD4239B00D35CA0
:10BFF800002B0DD06B4B1B68784A06211800FFF701
:10C008000CFC684B1B68764A07211800FFF705FCF3
:10C01800674AD4239B00D35C002B14D0644B1B6865
:10C02800704A06211800FFF7F8FB614B1B686E4A3F
:10C0380007211800FFF7F1FB05E0C04604E0C04601
:10C0480002E0C04600E0C046524B02221A7085E169
:10C05800534B1B78032B00D117E100DD52E1022B73
:10C0680000D1C5E000DD4DE1002B02D0012B49D005
:10C0780048E14C4AD4239B00D35C002B11D04A4B97
:10C088001A884A4B1B8819001000FFF76FFD020041
:10C09800444B9A61434B9A69424B1100180000F0D7
:10C0A80081F9434AD4239B00D35C002B15D0414B24
:10C0B8001A88414B1B8819001000FFF757FD020032
:10C0C8003B4B9A613A4AD2239B00D35A1A00384B09
:10C0D8009969374B0A329200D150324AD2239B00D9
:10C0E800D35A013399B22F4AD2239B00D152304AF6
:10C0F800D2239B00D35A013399B22D4AD2239B00F5
:10C10800D152FFE0274AD4239B00D35C002B14D0E4
:10C118002A4B1A882A4B1B8819001000FFF726FDA6
:10C128000200204BDA611F4B304A9B5A1A001D4B04
:10C13800D9691C4B3C329200D1501D4AD4239B0034
:10C14800D35C002B14D01F4B1A881F4B1B88190077
:10C158001000FFF70BFD0200154BDA61144B234A60
:10C168009B5A1A00124BD969114B3C329200D1509C
:10C178000C4B1E4A9B5A013399B20A4B1B4A9952DF
:10C188000B4B1A4A9B5A013399B2094B174A9952D9
:10C19800B8E0C046C90200202C000020CC020020D4
:10C1A800F002002000110020D0020020D20200205E
:10C1B8007C140020E0020020E2020020D4020020CB
:10C1C800D6020020E4020020E6020020D802002067
:10C1D800DA020020E8020020EA020020DC02002047
:10C1E800DE020020EC020020EE0200204A030000DC
:10C1F8005C4AD4239B00D35C002B15D05A4B1A8879
:10C208005A4B1B8819001000FFF7B0FC0200554B71
:10C218001A62544AD3239B00D35A1A00514B196A05
:10C22800504B6E329200D150514AD4239B00D35CBC
:10C23800002B15D04F4B1A884F4B1B881900100044
:10C24800FFF794FC02004A4B1A62494AD3239B0029
:10C25800D35A1A00464B196A454B6E329200D15098
:10C26800404AD3239B00D35A013399B23D4AD32382
:10C278009B00D1523E4AD3239B00D35A013399B233
:10C288003B4AD3239B00D1523CE0364AD4239B003F
:10C29800D35C002B14D0394B1A88394B1B881900F2
:10C2A8001000FFF763FC02002E4B5A622D4B354AF3
:10C2B8009B5A1A002B4B596A2A4BA0329200D15034
:10C2C8002B4AD4239B00D35C002B0AD02E4B1A8810
:10C2D8002E4B1B8819001000FFF748FC0200244B66
:10C2E8005A62204B274A9B5A013399B21D4B254A63
:10C2F80099521F4B234A9B5A013399B21C4B214A2E
:10C308009952C046224B1B780133DAB2204B1A707F
:10C318001F4B1B78032B1AD9124B1A4A9B5A312BE5
:10C3280011D904F095F802001A4B1A601A4B1B78C1
:10C33800002B08D0194B1B78002B02D100F036FDDA
:10C3480001E000F039FE164B00221A7006E0144B8B
:10C3580001221A7002E0C04600E0C046C046BD4651
:10C3680080BDC04600110020D8020020DA0200205B
:10C378007C140020E8020020EA020020DC020020F1
:10C38800DE0200204E030000EC020020EE02002036
:10C39800F0020020000300202D000020F102002000
:10C3A800C902002090B585B000AF7860396004F00C
:10C3B8004FF801007A68D6239B00D1507A68D723BA
:10C3C8009B00D3583A68D31AFB607A68D6239B003F
:10C3D800D2587968D8239B00CB589A4200D241E1C1
:10C3E8007A68D5239B00D35C032B00D1ABE000DD3A
:10C3F80041E1022B00D175E000DD3CE1002B02D0C9
:10C40800012B31D037E1FB689C4A934209DBFB687A
:10C418009B4A934205DC7A683B681100180000F0DB
:10C4280041F9FB68DA179B185340964A934200DC9F
:10C438001AE17A68DB239B000121D1547A68D6235C
:10C448009B00D1587A68D9239B00D1507B688E4ACB
:10C45800002199547A68D5239B000121D1547B6827
:10C468008A4A00219954FFE0FB68DA179B18534069
:10C47800844A934230DD7A68DB239B00D35C013326
:10C48800D9B27A68DB239B00D1547A68DB239B00FE
:10C49800D35C022B00D8E9E07B687D4A9B5C0133C2
:10C4A800D9B27B687A4A99547A68D6239B00D158C6
:10C4B8007A68DA239B00D1507A68D6239B00D35838
:10C4C800503319007A68D8239B00D1507A68D52355
:10C4D8009B000221D154C9E07A68D5239B00002132
:10C4E800D154C3E0FB68654A934216DBFB68644A93
:10C4F800934212DC7B68644A9B5C0133D9B27B6847
:10C50800614A99547B68604A9B5C072B09D97A6811
:10C51800D5239B000321D15403E07B685A4A0021AC
:10C5280099547A68D6239B00D2587968D9239B00FE
:10C53800CB58D31A782B00D89AE07A68D5239B0079
:10C548000321D15494E0FB684C4A934215DBFB6805
:10C558004B4A934211DC7B684B4A9B5C0133D9B24E
:10C568007B68494A99547B68474A9B5C072B08D9E2
:10C578007B68464A0121995403E07B68424A0021BE
:10C5880099547B68414A9B5C002B1DD0FB68DA17E5
:10C598009B1853403B4A934216DD7B683B4A002177
:10C5A80099547A68DB239B000121D1547A68D623F9
:10C5B8009B00D1587A68D9239B00D1507A68D5233B
:10C5C8009B000121D15455E07A68D6239B00D258AC
:10C5D8007968DA239B00CB58D21A96235B009A42DB
:10C5E80048D97B681B791C007B68294A9B5C2949D0
:10C5F800294822000CF00CFA274B1800FBF77CFDA9
:10C6080003009AB224492548642309F091FB7B680A
:10C618001F4A9B5C022B05D17A68DC239B00012111
:10C62800D15408E07B681A4A9B5C022B03D97B68CB
:10C638001B4A012199547B68154A002199547A684C
:10C64800DB239B000021D1547B680F4A00219954B9
:10C658007B680E4A002199547A68D5239B000021F3
:10C66800D15407E0C04606E0C04604E0C04602E0F8
:10C67800C04600E0C046BD4605B090BD69C5FFFF95
:10C68800973A0000307500006D0300006F0300004A
:10C698006E03000094AE0108040F00207C0D0020FA
:10C6A8007103000080B582B000AF786039603B68E4
:10C6B800114A9B5C002B09D13A68D7239B00796803
:10C6C800D1503B680C4A0121995411E03A68D723AC
:10C6D8009B00D25813005B019A1A7B68D318002B71
:10C6E80000DA1F335B1119003A68D7239B00D15039
:10C6F800BD4602B080BDC0467203000080B584B05C
:10C7080000AF786003F0A4FE0300FB607A68DD23C5
:10C718009B00D35C022B00D1E0E000DD27E1002B79
:10C7280003D0012B00D1B3E021E17B68914A9B5CE7
:10C73800002B4AD07B681B79002B1ED18E4B1B78AF
:10C7480001225340DBB2002B17D07B688B4A0321B0
:10C758009954322002F078FF322002F099FF7A686B
:10C76800DE239B00F968D1507A68DD239B00012104
:10C77800D1540021012001F0F9F87B681B79012BC5
:10C788001ED17F4B1B7801225340DBB2002B17D000
:10C798007B687A4A03219954322002F09FFF3220A5
:10C7A80002F0BCFF7A68DE239B00F968D1507A68F2
:10C7B800DD239B000121D1540121012001F0D6F88D
:10C7C8007B686C4A00219954D1E07A68DC239B008D
:10C7D800D35C002B00D1C5E07A68DC239B000021E4
:10C7E800D1547B681B79002B2AD1634B1B78002B13
:10C7F80026D0614B00221A7002F0DEFD614B1B78D7
:10C80800002B04D003F024FE02005F4B1A605F4B3C
:10C8180002221A705A4B00221A7002F0DDFD5C4B9E
:10C828001B78002B04D003F013FE0200594B1A604A
:10C83800564B02225A71554B180000F0E9FF96E05A
:10C848007B684E4A022199547B681B79002B06D1DC
:10C85800322002F0F9FE322002F01AFF09E07B686C
:10C868001B79012B05D1322002F038FF322002F06B
:10C8780055FF7A68DE239B00F968D1507A68DD237A
:10C888009B000121D1540121012001F06FF86EE0D5
:10C898007A68DE239B00D358FA68D21AFA235B0021
:10C8A8009A4261D37B681B79002B04D102F056FFB2
:10C8B80002F060FF07E07B681B79012B03D102F0CF
:10C8C80065FF02F06CFF7A68DE239B00F968D1509F
:10C8D8007A68DD239B000221D15445E07A68DE2383
:10C8E8009B00D358FA68D31AC72B3FD97B68234AD1
:10C8F8009B5C013BD9B27B68204A99547B681F4AEC
:10C908009B5C002B1FD07B681B79002B06D1322043
:10C9180002F09AFE322002F0BBFE09E07B681B7928
:10C92800012B05D1322002F0D9FE322002F0F6FEAA
:10C938007A68DE239B00F968D1507A68DD239B0072
:10C948000121D15412E07A68DD239B000021D154E3
:10C958007A68DC239B000021D1547B68054A0021BA
:10C96800995403E0C04602E0C04600E0C046BD4618
:10C9780004B080BD71030000141800207503000086
:10C988001518002016180020F4020020FC170020BB
:10C9980017180020F802002080B500AF204B1B7844
:10C9A800002B1BD003F054FD02001E4B1B68D31A4A
:10C9B8001D4A934231D91D4B1B7801225340DBB2EB
:10C9C800002B2AD0194B01221A70194B9A78184B50
:10C9D8005B781900100002F05BFC1EE0154B1B7819
:10C9E800002B1AD003F034FD0200134B1B68D31A36
:10C9F8000D4A934211D9114B1B7801225340DBB2E7
:10CA0800002B0AD00D4B01221A70094BDA79084B1A
:10CA18009B791900100002F085FCC046BD4680BD18
:10CA280016180020F40200209F8601001418002028
:10CA3800FC17002017180020F80200201518002005
:10CA480080B584B000AF78600A00BB1C1A800F2341
:10CA5800FB1800221A700C23FB1800221A8010E021
:10CA68000C203B181B887A68D31819780F22BB183A
:10CA7800BA1812784A401A703B181A883B180132C3
:10CA88001A800C23FA18BB1C12881B889A42E7D319
:10CA98000F23FB181B781800BD4604B080BD0000AA
:10CAA80090B585B000AFC0464E4B1B78DBB2002B6B
:10CAB800FAD14D4A4D4B002118000CF015F84B4B9C
:10CAC800FB604B4BBB60FB681A7800210A40111CC5
:10CAD80055220A431A705A7800210A40111C56221E
:10CAE80052420A435A70FB6801229A70414B1A68F5
:10CAF800FB680333FF2111400C0019780020014026
:10CB0800081C211C01431970110AFF2001400C0068
:10CB1800597800200140081C211C01435970110C50
:10CB2800FF2001400C00997800200140081C211CBE
:10CB380001439970100EDA7800210A40111C021C7A
:10CB48000A43DA702C4B1B785A1CD1B22A4A11704E
:10CB5800FA68D371294B1A78FB681A72FB680022AD
:10CB68005A72274BC8225200264918000CF04EF87A
:10CB7800254BC8225200254918000CF047F8244BD1
:10CB8800FC1DCA22920011001800FFF759FF03008C
:10CB98002370BB68FA1D12781A70BB6801331A78C3
:10CBA80000210A40111C562252420A431A705A7830
:10CBB80000210A40111C55220A435A70094B0122D0
:10CBC8001A70144A0949144B180009F0ADF9134BAF
:10CBD80000221A80124B00221A80C046BD4605B0BA
:10CBE80090BDC046FC020020140500000C03002084
:10CBF800360600200003002004030020090300205B
:10CC08001603002020080020A6040020B0090020F8
:10CC18000E0300202D030000100E0020400B002002
:10CC2800420B0020F0B5554CA54400AF3B00CD2584
:10CC3800AD007A1913603B00514A94466344CC26F0
:10CC4800B600BA1913607B191B681A7800210A40CC
:10CC5800111C55220A431A705A7800210A40111CE7
:10CC6800562252420A435A707B191B6801229A7055
:10CC7800444B1A687B191B680333FF2111400C00D1
:10CC8800197800200140081C211C01431970110A61
:10CC9800FF2001400C00597800200140081C211C8D
:10CCA80001435970110CFF2001400C0099780020B5
:10CCB8000140081C211C01439970100EDA780021EC
:10CCC8000A40111C021C0A43DA702F4B1B785A1CAD
:10CCD800D1B22D4A11707A191268D3712B4B1A7878
:10CCE8007B191B681A727B191B6800225A723B0059
:10CCF8000A33C8225200264918000BF087FF3B0070
:10CD08009B33FF33C8225200224918000BF07EFFE4
:10CD18003B000233204D7C19CA22920011001800F2
:10CD2800FFF78EFE03002370BB191B687A1912786F
:10CD38001A70BB191B6801331A7800210A40111CAC
:10CD4800562252420A431A705A7800210A40111C8E
:10CD580055220A435A70114A39001148642308F0D1
:10CD6800E7FF104B00221A800F4B00221A80C046A2
:10CD7800BD46CF239B009D44F0BDC046C4FCFFFFC9
:10CD88002A030000000300200403002009030020F8
:10CD980020080020B00900202F0300002D03000008
:10CDA800100E0020400B0020420B002090B585B0EB
:10CDB80000AFC046674B1B78DBB2002BFAD1664A3E
:10CDC800664B002118000BF08FFE644BFB60644B30
:10CDD800BB60FB681A7800210A40111C55220A43DF
:10CDE8001A705A7800210A40111C562252420A43EE
:10CDF8005A70FB6804229A705A4B1A68FB6803330E
:10CE0800FF2111400C00197800200140081C211C4A
:10CE180001431970110AFF2001400C0059780020C5
:10CE28000140081C211C01435970110CFF200140CE
:10CE38000C00997800200140081C211C01439970BE
:10CE4800100EDA7800210A40111C021C0A43DA701D
:10CE5800454BDB785A1CD1B2434AD170FA68D3717A
:10CE6800FB6800221A72FB6800225A723F4B404945
:10CE7800C82218000BF0CAFE3E4B3F49C8221800D2
:10CE88000BF0C4FE3D4B3E49C82218000BF0BEFE15
:10CE98003C4B3D49C82218000BF0B8FE3B4B3C49BF
:10CEA800C82218000BF0B2FE3A4B3B49C8221800C2
:10CEB8000BF0ACFE394BFC1D9722D2001100180074
:10CEC800FFF7BEFD03002370BB68FA1D12781A70C5
:10CED800BB6801331A7800210A40111C56225242BD
:10CEE8000A431A705A7800210A40111C55220A4335
:10CEF8005A70184B01221A70294A1849294B1800F0
:10CF080009F012F8284AD2239B000021D152264B5F
:10CF1800264A00219952244AD3239B000021D1524A
:10CF2800214B234A00219952224AD2239B000021F7
:10CF3800D152204B1D4A002199521E4AD3239B00EF
:10CF48000021D1521B4B1A4A00219952C046BD46B6
:10CF580005B090BDFC020020140500000C03002061
:10CF6800C607002000030020040300201603002049
:10CF7800F0110020DE030020B8120020A6040020D3
:10CF8800801300206E050020A4140020360600201F
:10CF98006C150020FE060020341600200E03002029
:10CFA800BD040000100E0020001100204A030000FC
:10CFB8004E0300007C140020F0B5614CA54400AF7E
:10CFC8003B009B25AD007A1913603B005D4A9446EF
:10CFD80063449A26B600BA1913607B191B681A783D
:10CFE80000210A40111C55220A431A705A78002160
:10CFF8000A40111C562252420A435A707B191B6878
:10D0080004229A70504B1A687B191B680333FF215E
:10D0180011400C00197800200140081C211C014314
:10D028001970110AFF2001400C00597800200140B6
:10D03800081C211C01435970110CFF2001400C00F1
:10D04800997800200140081C211C01439970100E9A
:10D05800DA7800210A40111C021C0A43DA703B4BA3
:10D06800DB785A1CD1B2394AD1707A191268D37157
:10D078007B191B6800221A727B191B6800225A72DE
:10D088003B000A333249C82218000BF0BFFD3B00B1
:10D09800D2333049C82218000BF0B8FD3B009B334F
:10D0A800FF332D49C82218000BF0B0FD3B000233B6
:10D0B8002A4D7C199822920011001800FFF7C0FC35
:10D0C80003002370BB191B687A1912781A70BB19F0
:10D0D8001B6801331A7800210A40111C562252425B
:10D0E8000A431A705A7800210A40111C55220A4333
:10D0F8005A701B4A39001B48642308F019FE1A4B62
:10D108001A4A00219952184AD3239B000021D15270
:10D11800154B174A00219952164B144A002199526F
:10D12800144AD3239B000021D152124B104A0021EC
:10D138009952C046BD469D239B009D44F0BDC04604
:10D148008CFDFFFF620200000003002004030020A2
:10D15800F0110020B81200208013002067020000A0
:10D1680065020000100E0020001100204A03000094
:10D178004E0300007C140020F0B587B000AFC04615
:10D188007E4B1B78DBB2002BFAD17D4A7D4B002108
:10D1980018000BF0A9FC7B4B7B617B4B3B617B69E7
:10D1A8001A7800210A40111C55220A431A705A782D
:10D1B80000210A40111C562252420A435A707B69C8
:10D1C80003229A70714B1A687B690333FF2111405F
:10D1D8000C00197800200140081C211C014319701B
:10D1E800110AFF2001400C00597800200140081C5A
:10D1F800211C01435970110CFF2001400C00997843
:10D2080000200140081C211C01439970100EDA7897
:10D2180000210A40111C021C0A43DA705C4B9B78FF
:10D228005A1CD1B25A4A91707A69D3717B6900222B
:10D238001A727B6900225A72564B1B685649181C91
:10D24800FBF74AFA031C0E257C19181CFBF726FD70
:10D2580003002380514B1B684F49181CFBF73CFA0D
:10D26800031C0C26BC19181CFBF718FD03002380AF
:10D278004B4B1B684849181CFBF72EFA031C0A2164
:10D288007C18181CFBF70AFD03002380454B1B681C
:10D298004149181CFBF720FA031C0822BC18181C6B
:10D2A800FBF7FCFC030023803F4B7B607B190020CD
:10D2B8001B5E1B121BB2DAB27B681A707B680133E3
:10D2C8007A191288D2B21A70BB1900201B5E1B1281
:10D2D8001AB27B680233D2B21A707B680333BA1968
:10D2E8001288D2B21A700A217B1800201B5E1B120A
:10D2F8001AB27B680433D2B21A707B6805337A1885
:10D308001288D2B21A7008217B1800229B5E1B1269
:10D318001AB27B680633D2B21A707B6807337A1860
:10D328001288D2B21A70214BFC1C10211800FFF78A
:10D3380087FB030023703B69FA1C12781A703B695B
:10D3480001331A7800210A40111C562252420A431E
:10D358001A705A7800210A40111C55220A435A7043
:10D36800064B01221A700749114B1522180008F0C4
:10D37800DBFDC046BD4607B0F0BDC046FC0200203C
:10D38800140500000C0300201E03002000030020E9
:10D3980004030020440B00200000C842480B002072
:10D3A8004C0B0020500B0020160300200E03002019
:10D3B800100E0020F0B58DB000AF3B1DFB623B1D89
:10D3C8001233BB62FB6A1A7800210A40111C5522ED
:10D3D8000A431A705A7800210A40111C56225242F8
:10D3E8000A435A70FB6A03229A706D4B1A68FB6AEB
:10D3F8000333FF2111400C00197800200140081C5C
:10D40800211C01431970110AFF2001400C005978B2
:10D4180000200140081C211C01435970110CFF20F9
:10D4280001400C00997800200140081C211C014390
:10D438009970100EDA7800210A40111C021C0A4368
:10D44800DA70584B9B785A1CD1B2564A9170FA6AD6
:10D45800D371FB6A00221A72FB6A00225A72524B7D
:10D468001B685249181CFBF737F9031C26257C1941
:10D47800181CFBF713FC030023804D4B1B684B491A
:10D48800181CFBF729F9031C2426BC19181CFBF7E8
:10D4980005FC03002380474B1B684449181CFBF715
:10D4A8001BF9031C22217C18181CFBF7F7FB03004F
:10D4B8002380414B1B683D49181CFBF70DF9031CE1
:10D4C8002022BC18181CFBF7E9FB030023803B1D36
:10D4D8000A33FB617B1900201B5E1B121BB2DAB2F8
:10D4E800FB691A70FB6901337A191288D2B21A7073
:10D4F800BB1900201B5E1B121AB2FB690233D2B2A1
:10D508001A70FB690333BA191288D2B21A70222131
:10D518007B1800201B5E1B121AB2FB690433D2B2BF
:10D528001A70FB6905337A181288D2B21A70202152
:10D538007B1800229B5E1B121AB2FB690633D2B21B
:10D548001A70FB6907337A181288D2B21A703B1D19
:10D5580002331B257C1910211800FFF771FA03000C
:10D568002370BB6A7A1912781A70BB6A01331A7869
:10D5780000210A40111C562252420A431A705A7856
:10D5880000210A40111C55220A435A70391D0B48C4
:10D598006423152208F0CCFBC046BD460DB0F0BD93
:10D5A8000003002004030020440B00200000C842B0
:10D5B800480B00204C0B0020500B0020100E0020C0
:10D5C80080B582B000AF0200FB1D1A70884B1B7833
:10D5D8000E2B00D908E19A00864BD3181B689F468A
:10D5E800FB1D1B78AA2B00D0FDE0814B01221A708D
:10D5F800F9E0FB1D1B78552B06D17F4B00221A70D2
:10D608007B4B02221A70EFE0794B00221A70EBE094
:10D61800FB1D1B78062B06D1754B0D221A70774B14
:10D6280001221A70E0E0FB1D1B78092B07D1704B13
:10D638000D221A70724BFA1D12781A70D4E0714BD1
:10D64800FA1D12781A706C4B1A78FB1D1B78534020
:10D65800DAB2694B1A70664B03221A70C4E0694B40
:10D66800FA1D12785A70644B1A78FB1D1B785340C8
:10D67800DAB2614B1A705E4B04221A70B4E0614B47
:10D68800FA1D12789A705C4B1A78FB1D1B78534070
:10D69800DAB2594B1A70564B05221A70A4E0594B4E
:10D6A800FA1D1278DA70544B1A78FB1D1B78534018
:10D6B800DAB2514B1A704E4B06221A7094E0514B55
:10D6C800FA1D12781A714C4B1A78FB1D1B785340BF
:10D6D800DAB2494B1A70464B07221A7084E0494B5C
:10D6E800FA1D12785A71444B1A78FB1D1B78534067
:10D6F800DAB2414B1A703E4B08221A7074E0414B63
:10D70800FA1D12789A713C4B1A78FB1D1B7853400E
:10D71800DAB2394B1A70364B09221A7064E0394B69
:10D72800FA1D1278DA71344B1A78FB1D1B785340B6
:10D73800DAB2314B1A702E4B0A221A7054E0314B70
:10D74800FA1D12781A722C4B1A78FB1D1B7853405D
:10D75800DAB2294B1A70264B0B221A7044E0294B77
:10D76800FA1D12785A72244B1A78FB1D1B78534005
:10D77800DAB2214B1A701E4B0C221A7034E0214B7E
:10D78800FA1D12789A721F4B9A7A1B4B1B789A4291
:10D7980003D1174B0D221A7026E0154B00221A7080
:10D7A80022E0FB1D1B78552B03D1114B0E221A705A
:10D7B8001AE00F4B00221A7016E0FB1D1B78AA2BEB
:10D7C8000DD10F4B1B78092B03D10F4B01221A7077
:10D7D80002E00E4B01221A70094B00221A70044B0A
:10D7E80000221A7000E0C046C046BD4602B080BDA7
:10D7F800540B002008B20108560B0020550B0020DE
:10D80800570B002008180020FD02002013180020E4
:10D81800B0B586B000AF7860C0464D4B1B78DBB220
:10D82800002BFAD14B4A4C4B002118000BF05CF945
:10D83800494B7B61494B3B617B691A7800210A405F
:10D84800111C55220A431A705A7800210A40111CEB
:10D85800562252420A435A707B6905229A707B69A4
:10D8680003331A7800210A401A705A7800210A40B6
:10D878005A709A7800210A409A70DA7800210A4092
:10D88800DA707B690022DA717B6900221A727B697F
:10D8980000225A72324BFB607B681A78FB681A7058
:10D8A800FB6801337A6852781A70FB6802337A6829
:10D8B80092781A70FB6803337A68D2781A70FB681A
:10D8C80004337A6812791A70FB6805337A6812781B
:10D8D8001A70FB6806337A6852781A70FB68073347
:10D8E8007A6892781A70FB6808337A68D2781A7066
:10D8F800FB6809337A6812791A701A4B0B257C1960
:10D9080012211800FFF79CF8030023703B697A196D
:10D9180012781A703B6901331A7800210A40111CE9
:10D92800562252420A431A705A7800210A40111CA2
:10D9380055220A435A70064B01221A7006490A4BAF
:10D948001722180008F0F0FAC046BD4606B0B0BD70
:10D95800FC020020140500000C0300202003002016
:10D96800160300200E030020100E0020B0B586B06C
:10D9780000AF0200FB1D1A70BB1D0A1C1A70C046BE
:10D98800394B1B78DBB2002BFAD1384A384B0021CF
:10D9980018000BF0A9F8364B7B61364B3B617B696D
:10D9A8001A7800210A40111C55220A431A705A7825
:10D9B80000210A40111C562252420A435A707B69C0
:10D9C8000A229A707B6903331A7800210A401A7078
:10D9D8005A7800210A405A709A7800210A409A70B1
:10D9E800DA7800210A40DA707B690022DA717B69F3
:10D9F80000221A727B6900225A721F4BFB60FB6877
:10DA0800FA1D12781A70FB680133BA1D12781A7061
:10DA18001A4B0B257C190A211800FFF711F803008F
:10DA280023703B697A1912781A703B6901331A78A6
:10DA380000210A40111C562252420A431A705A7891
:10DA480000210A40111C55220A435A70064B012234
:10DA58001A7007490A4B0F22180008F065FAC046E9
:10DA6800BD4606B0B0BDC046FC020020140500004B
:10DA78000C03002018030020160300200E030020CA
:10DA8800100E002090B585B000AFC0463C4B1B7807
:10DA9800DBB2002BFAD13B4A3B4B002118000BF0BC
:10DAA80023F8394BFB60394BBB60FB681A780021BF
:10DAB8000A40111C55220A431A705A7800210A405C
:10DAC800111C562252420A435A70FB6809229A7066
